:100000000C942A000C9447000C9447000C94470071
:100010000C9447000C9447000C9447000C94470044
:100020000C9447000C9447000C9447000C94470034
:100030000C9447000C947A0E0C9447000C94B90E63
:100040000C9447000C9447000C9447000C94470014
:100050000C94470011241FBECFE5D8E0DEBFCDBF12
:1000600011E0A0E6B0E0EAE5FFE102C005900D92E4
:10007000A83AB107D9F711E0A8EAB1E001C01D9292
:10008000A13BB107E1F70E94F70E0C94AB0F0C9463
:100090000000EF92FF920F931F937B018C0120E0F1
:1000A00030E040E050E00E94E50488230CF05CC0A2
:1000B000C801B70190580E94BD002195E1E01216D9
:1000C00008F0E0E03195F1E0131608F0F0E0E32EDF
:1000D000EE1AE1E03E1508F0E0E0FE2B4195A1E0CC
:1000E000141608F0A0E0F42EFF1AE1E04F1508F016
:1000F000E0E0AE2B5195F1E0151608F0F0E0052F89
:100100000A1BE1E0501708F0E0E0FE2B6195A1E04A
:10011000161608F0A0E0162F1F1BE1E0611708F08B
:10012000E0E0AE2B7195F1E0171608F0F0E0B72F84
:10013000BA1BE1E07B1708F0E0E0FE2B8195A1E01F
:10014000181608F0A0E0382F3F1BF32FE1E08317CB
:1001500008F0E0E0AE2B91953E2D4F2D502F612FF2
:100160007B2F8F2F9A1B04C0C801B7010E94BD00CE
:100170001F910F91FF90EF900895A0E0B0E0E3ECA5
:10018000F0E00C94740F7B018C0120E030E040E83B
:100190005FE30E94E50488234CF4AA24BB24CC240A
:1001A000DD24EE24FF2400E010E086C0C801B70182
:1001B00020E030E040E85FE40E94E504882354F446
:1001C000C801B7010E940E075B016C01EE24FF24F9
:1001D000870172C0C801B70120E030E040E85FE568
:1001E0000E94E50487FD0FC0AA24AA94BB24BA94F8
:1001F000CC24CA94DD24DA94EE24EA94FF24FA9401
:100200000FEF1FEF59C0C801B70120E030E040E810
:100210005FE20E940F037B018C0122243324210121
:1002200090E1A92EB12CC12CD12CC0E0D0E061E02E
:1002300070E080E090E00A2C04C0660F771F881FF2
:10024000991F0A94D2F70E94C7053B014C01C801CF
:10025000B701A40193010E94B504882364F02A2801
:100260003B284C285D28C801B701A40193010E94D6
:1002700009047B018C01D694C794B794A794219666
:10028000C530D105A1F6C801B70120E030E040E853
:100290005FE40E940F030E940E075B016C019B014B
:1002A000A60160E070E080E090E0022D0E94400630
:1002B00059016A017B018C019501A601B701C801B2
:1002C000CDB7DEB7E2E10C94900FA0E0B0E0EBE632
:1002D000F1E00C94740FDC012B01FA019C91923037
:1002E00008F439C1EB018881823008F433C19430BD
:1002F00069F4843009F02FC111969C91119789817E
:10030000981709F428C1A0E6B0E025C1843009F4AB
:1003100021C18230A9F4923009F01DC19A01AD01CA
:1003200088E0EA010990AE01E90109929E0181503D
:10033000C1F7E201898111969C918923818308C1CB
:10034000923009F407C112962D903C901397EB015F
:100350008A819B811496AD90BD90CD90DC901797CB
:10036000EC80FD800E811F819101281B390BB901A2
:1003700037FF04C066277727621B730B6032710555
:100380000CF061C0121613066CF537014801062EF9
:1003900004C096948794779467940A94D2F721E0E6
:1003A00030E040E050E004C0220F331F441F551FCF
:1003B0006A95D2F721503040404050402E213F21D5
:1003C00040235123211531054105510521F021E03C
:1003D00030E040E050E079018A01E628F72808295A
:1003E00019293CC0232BD1F1260E371E35014601B9
:1003F000062E04C096948794779467940A94D2F753
:1004000021E030E040E050E004C0220F331F441FE1
:10041000551F6A95D2F721503040404050402A2164
:100420003B214C215D21211531054105510521F06C
:1004300021E030E040E050E059016A01A628B728E9
:10044000C828D9280BC0821593052CF01C01AA24BA
:10045000BB24650103C0EE24FF24870111969C9103
:10046000D20111968C91981709F445C0992339F05F
:10047000A80197012A193B094C095D0906C0A6018C
:1004800095012E193F09400B510B57FD08C01182F1
:100490003382228224833583468357831DC081E0C3
:1004A00081833382228288279927DC01821B930B68
:1004B000A40BB50B84839583A683B7830DC0220F4D
:1004C000331F441F551F24833583468357838281FE
:1004D000938101979383828324813581468157815B
:1004E000DA01C9010197A109B1098F5F9F4FAF4F91
:1004F000BF4328F30BC0918333822282EA0CFB1C9A
:100500000C1D1D1DE482F5820683178383E0808322
:10051000248135814681578157FF1AC0C901AA2716
:1005200097FDA095BA2F81709070A070B07056950D
:10053000479537952795822B932BA42BB52B848336
:100540009583A683B7838281938101969383828367
:10055000DF0101C0D201CD01CDB7DEB7E2E10C94DD
:10056000900FA0E2B0E0E7EBF2E00C94800F69831B
:100570007A838B839C832D833E834F835887E9E066
:10058000EE2EF12CEC0EFD1ECE010196B7010E945D
:100590000F088E010F5E1F4FCE010596B8010E9415
:1005A0000F088A8991E089278A8BC701B801AE01BB
:1005B000475E5F4F0E9465010E943A07A096E6E001
:1005C0000C949C0FA0E2B0E0E8EEF2E00C94800FF7
:1005D00069837A838B839C832D833E834F835887E3
:1005E000F9E0EF2EF12CEC0EFD1ECE010196B701C5
:1005F0000E940F088E010F5E1F4FCE010596B801B5
:100600000E940F08C701B801AE01475E5F4F0E940C
:1006100065010E943A07A096E6E00C949C0FA0E2C8
:10062000B0E0E5E1F3E00C94740F69837A838B8387
:100630009C832D833E834F835887CE010196BE0154
:10064000675F7F4F0E940F08CE010596BE016F5E67
:100650007F4F0E940F089985923088F089898230F7
:10066000C8F0943019F4823051F404C0843029F475
:10067000923081F480E690E0C6C0923049F420E0E8
:100680009A858A89981321E02A87CE010996BBC0F2
:10069000823049F420E09A858A89981321E02A8BD8
:1006A000CE014196B0C02D843E844F8458886D8819
:1006B0007E888F88988CEE24FF248701AA24BB248F
:1006C000650140E050E060E070E0E0E0F0E0C10192
:1006D00081709070892BE9F0E60CF71C081D191D3C
:1006E0009A01AB012A0D3B1D4C1D5D1D80E090E081
:1006F000A0E0B0E0E614F7040805190520F481E055
:1007000090E0A0E0B0E0BA01A901480F591F6A1FAC
:100710007B1FAA0CBB1CCC1CDD1C97FE08C081E013
:1007200090E0A0E0B0E0A82AB92ACA2ADB2A3196D4
:10073000E032F10549F0660C771C881C991C569430
:10074000479437942794C3CFFA85EA892B893C894B
:100750008B859C85280F391F2E5F3F4F17C0CA011C
:1007600081709070892B61F016950795F794E79446
:1007700080E090E0A0E0B0E8E82AF92A0A2B1B2BE1
:1007800076956795579547952F5F3F4F77FDE7CF54
:100790000CC0440F551F661F771F17FD4160EE0CFC
:1007A000FF1C001F111F21503040403090E05907BE
:1007B00090E0690790E4790760F32B8F3C8FDB01B1
:1007C000CA018F779070A070B07080349105A10538
:1007D000B10561F447FD0AC0E114F10401051105FA
:1007E00029F0405C5F4F6F4F7F4F40781A8EFE17A5
:1007F00011F081E08A8F4D8F5E8F6F8F78A383E039
:10080000898FCE0149960E943A07A096E2E10C94A6
:10081000900FA8E1B0E0EFE0F4E00C947C0F698366
:100820007A838B839C832D833E834F835887B9E0E3
:10083000EB2EF12CEC0EFD1ECE010196B7010E94AD
:100840000F088E010F5E1F4FCE010596B8010E9462
:100850000F082985223008F47EC03989323010F41F
:10086000B8017CC08A859A8989278A87243011F04B
:10087000223031F4231709F06EC060E670E06EC0DC
:10088000343039F41D861E861F86188A1C861B8606
:1008900004C0323021F484E08987B7015FC02B8522
:1008A0003C858B899C89281B390B3C872B87ED84E1
:1008B000FE840F851889AD88BE88CF88D88CEA144D
:1008C000FB040C051D0540F4EE0CFF1C001F111F5E
:1008D000215030403C872B8720E030E040E050E062
:1008E00080E090E0A0E0B0E460E070E0EA14FB0497
:1008F0000C051D0540F0282B392B4A2B5B2BEA18E1
:10090000FB080C091D09B695A79597958795EE0CE0
:10091000FF1C001F111F6F5F7F4F6F31710531F793
:10092000DA01C9018F779070A070B07080349105A2
:10093000A105B10561F427FD0AC0E114F104010528
:10094000110529F0205C3F4F4F4F5F4F20782D87D6
:100950003E874F87588BBE01675F7F4FCB010E9458
:100960003A076896EAE00C94980FA8E1B0E0EBEB48
:10097000F4E00C94800F69837A838B839C832D83AE
:100980003E834F83588789E0E82EF12CEC0EFD1E44
:10099000CE010196B7010E940F088E010F5E1F4F16
:1009A000CE010596B8010E940F088985823040F07B
:1009B0008989823028F0C701B8010E94870801C0E8
:1009C0008FEF6896E6E00C949C0FA8E1B0E0EBEEA8
:1009D000F4E00C94800F69837A838B839C832D834E
:1009E0003E834F83588789E0E82EF12CEC0EFD1EE4
:1009F000CE010196B7010E940F088E010F5E1F4FB6
:100A0000CE010596B8010E940F088985823040F01A
:100A10008989823028F0C701B8010E94870801C087
:100A200081E06896E6E00C949C0FA8E0B0E0EBE172
:100A3000F5E00C947D0F9B01AC0183E08983DA0122
:100A4000C9018827B7FD83959927AA27BB27B82E08
:100A5000211531054105510519F482E089833AC019
:100A60008823A9F0203080E0380780E0480780E83C
:100A7000580729F460E070E080E09FEC30C0EE247D
:100A8000FF248701E21AF30A040B150B02C0790157
:100A90008A018EE1C82ED12CDC82CB82ED82FE82CF
:100AA0000F831887C801B7010E94BF060197181667
:100AB000190684F4082E04C0EE0CFF1C001F111F41
:100AC0000A94D2F7ED82FE820F831887C81AD90ADA
:100AD000DC82CB82BA82CE0101960E943A07289628
:100AE000E9E00C94990FACE0B0E0E9E7F5E00C9494
:100AF000840F69837A838B839C83CE010196BE0128
:100B00006B5F7F4F0E940F088D81823061F18230D0
:100B100050F1843021F48E81882351F12EC02F8131
:100B2000388537FD20C06E812F3131051CF06623DA
:100B3000F9F023C08EE190E0821B930B29853A8562
:100B40004B855C8504C056954795379527958A95C2
:100B5000D2F76623B1F050954095309521953F4FDF
:100B60004F4F5F4F0EC020E030E040E050E009C042
:100B70002FEF3FEF4FEF5FE704C020E030E040E0B1
:100B800050E8B901CA012C96E2E00C94A00FA8E04D
:100B9000B0E0EDECF5E00C947C0F7B018C0161156D
:100BA00071058105910519F482E0898360C083E0B5
:100BB00089838EE1C82ED12CDC82CB82ED82FE822D
:100BC0000F831887C801B7010E94BF06FC01319747
:100BD000F7FF3BC0222733272E1B3F0B570168012D
:100BE000022E04C0D694C794B794A7940A94D2F75F
:100BF00040E050E060E070E081E090E0A0E0B0E034
:100C000004C0880F991FAA1FBB1F2A95D2F701970E
:100C1000A109B1098E219F21A023B1230097A1052D
:100C2000B10521F041E050E060E070E04A295B2925
:100C30006C297D294D835E836F8378878EE190E0F8
:100C40008E1B9F0B9C838B8312C0309781F00E2EDE
:100C500004C0EE0CFF1C001F111F0A94D2F7ED8296
:100C6000FE820F831887CE1ADF0ADC82CB821A82BB
:100C7000CE0101960E943A072896EAE00C94980F5C
:100C8000EF92FF920F93DF93CF93CDB7DEB76097CC
:100C90000FB6F894DEBF0FBECDBFA82F002309F416
:100CA00061C07E010894E11CF11C88E0F7011192FB
:100CB0008A95E9F729833A834B835C836D837E832E
:100CC000AF83988780E2801BE82FFF27E7FDF09530
:100CD00049815A816B817C81181684F019861A86A5
:100CE0001B861C86882799278E1B9F0B04C0440FE8
:100CF000551F661F771F8A95D2F728C0202F3327EC
:100D000027FD3095DB01CA01022E04C0880F991F10
:100D1000AA1FBB1F0A94D2F789879A87AB87BC8723
:100D200004C07695679557954795EA95D2F78D81DA
:100D30009E81AF81B88504C0880F991FAA1FBB1F71
:100D40002A95D2F7482B592B6A2B7B2B4D875E8730
:100D50006F87788B29853A854B855C856D857E8587
:100D6000AF8598898A2F60960FB6F894DEBF0FBEC4
:100D7000CDBFCF91DF910F91FF90EF900895EF924B
:100D8000FF920F931F937B018C0180E0E81680E0B7
:100D9000F80681E0080780E0180788F48FEFE8166E
:100DA000F1040105110531F028F088E090E0A0E0A1
:100DB000B0E017C080E090E0A0E0B0E012C080E0BA
:100DC000E81680E0F80680E0080781E0180728F0C0
:100DD00088E190E0A0E0B0E004C080E190E0A0E015
:100DE000B0E020E230E040E050E0281B390B4A0B35
:100DF0005B0B04C016950795F794E7948A95D2F794
:100E0000F701E859FF4F8081281B31094109510939
:100E1000C9011F910F91FF90EF900895EF92FF92FB
:100E20000F931F937B018C0120E030E040E05FE4F2
:100E30000E94B50488238CF0C801B70120E030E09F
:100E400040E05FE40E94B1020E9473059B01AC0187
:100E5000205030404040504806C0C801B7010E94B1
:100E600073059B01AC01B901CA011F910F91FF905D
:100E7000EF900895DF92EF92FF920F931F93FC0182
:100E8000E480F58006811781D1808081823048F42A
:100E900080E090E0A0E1B0E0E82AF92A0A2B1B2BC1
:100EA000A5C0843009F49FC0823021F4EE24FF24D1
:100EB000870105C0E114F1040105110519F4E0E012
:100EC000F0E096C0628173819FEF623879070CF081
:100ED0005BC022E83FEF261B370B2A3131052CF08F
:100EE00020E030E040E050E02AC0B801A701022E27
:100EF00004C076956795579547950A94D2F781E097
:100F000090E0A0E0B0E004C0880F991FAA1FBB1FAB
:100F10002A95D2F70197A109B1098E219F21A0231B
:100F2000B1230097A105B10521F081E090E0A0E098
:100F3000B0E09A01AB01282B392B4A2B5B2BDA014D
:100F4000C9018F779070A070B07080349105A105B1
:100F5000B10539F427FF09C0205C3F4F4F4F5F4F69
:100F600004C0215C3F4F4F4F5F4FE0E0F0E0203086
:100F7000A0E03A07A0E04A07A0E45A0710F0E1E039
:100F8000F0E079018A0127C06038710564F5FB0142
:100F9000E158FF4FD801C7018F779070A070B070F3
:100FA00080349105A105B10539F4E7FE0DC080E458
:100FB00090E0A0E0B0E004C08FE390E0A0E0B0E0FB
:100FC000E80EF91E0A1F1B1F17FF05C0169507958F
:100FD000F794E794319687E016950795F794E79490
:100FE0008A95D1F705C0EE24FF248701EFEFF0E0EA
:100FF0006E2F679566276795902F9F77D794DD248E
:10100000D7948E2F8695492F462B582F5D29B701EF
:10101000CA011F910F91FF90EF90DF900895FC019E
:10102000DB01408151812281622F6F7770E0221FA6
:101030002227221F9381892F880F822B282F30E0AF
:10104000991F9927991F11969C9311972115310586
:10105000A9F5411551056105710511F482E037C00C
:1010600082E89FEF13969C938E9312979A01AB019F
:1010700067E0220F331F441F551F6A95D1F783E0A5
:101080008C930DC0220F331F441F551F12968D9154
:101090009C911397019713969C938E9312972030EF
:1010A00080E0380780E0480780E4580758F314963A
:1010B0002D933D934D935C93179708952F3F3105E2
:1010C00079F4411551056105710519F484E08C939B
:1010D000089564FF03C081E08C9312C01C9210C07D
:1010E0002F57304013963C932E93129783E08C93A6
:1010F00087E0440F551F661F771F8A95D1F77064EC
:1011000014964D935D936D937C93179708951F9359
:10111000DC01FB019C91923008F447C08081823051
:1011200008F443C0943051F411961C91843099F521
:101130008181682F70E0611B71093FC0843021F00C
:10114000923031F48230B9F18181882389F12DC048
:1011500011961C9111978230F1F081811817D9F402
:1011600012962D913C911397828193818217930758
:1011700094F028173907BCF014968D919D910D902D
:10118000BC91A02D248135814681578128173907CC
:101190004A075B0718F4112341F00AC0821793072E
:1011A000A407B50740F4112319F061E070E005C011
:1011B0006FEF7FEF02C060E070E0CB011F910895F8
:1011C0000F931F9381E060E041E00E94FA0A00ED76
:1011D00017E0C8010197F1F781E060E040E00E946C
:1011E000FA0AC8010197F1F71F910F910895682F2E
:1011F00080E00E94880C81E061E040E00E94FA0AF1
:1012000081E062E040E00E94FA0A0E94E00808954E
:1012100088E10E94F70880ED97E00197F1F70895C3
:101220008CE10E94F70880ED97E00197F1F70895AF
:10123000982F8150823070F4662361F0613150F450
:10124000913019F4862F815806C0923021F4862FF0
:10125000815401C080E80E94F70880ED97E0019773
:10126000F1F7089581E00E94F70880E29EE401977B
:10127000F1F70895682F80E00E94880C81E061E01A
:1012800041E00E94FA0A81E062E040E00E94FA0A2E
:101290000E94E00808950F931F93CF93DF93182FB8
:1012A000062F80E40E94F708C8E6D1E089910E94E9
:1012B0003A0981E0C83AD807C9F7812F602F0E9408
:1012C000180910E0812F0E943A091F5F1830D1F7EA
:1012D000DF91CF911F910F9108956F927F928F921E
:1012E0009F92AF92BF92CF92DF92EF92FF920F93B5
:1012F0001F935B016C01611571058105910521F456
:1013000080E30E943A0956C097FF0BC08DE20E940D
:101310003A09D094C094B094A094A11CB11CC11CF3
:10132000D11C81E0682E712C812C912CC401B30159
:101330002AE030E040E050E00E94180F7B018C0171
:10134000C601B5010E94590F3B014C016E0C7F1C78
:10135000801E911EC601B5012AE030E040E050E059
:101360000E94590FC901DA015C016D01A114B10499
:10137000C104D104D9F618C0C401B3012AE030E099
:1013800040E050E00E94370F862F805D0E943A09AE
:10139000C401B3012AE030E040E050E00E94370F82
:1013A000C901DA013C014D0181E068167104810434
:1013B000910411F71F910F91FF90EF90DF90CF9064
:1013C000BF90AF909F908F907F906F900895EF9215
:1013D000FF920F931F937B018C010E9473050E9463
:1013E0006D09C801B70120E030E040E050E00E9404
:1013F000E504882324F417FB109517F91095C8010C
:10140000B7010E9473050E9415059B01AC01C8013C
:10141000B7010E94B10220E030E44CE156E40E94A2
:101420000F037B018C010E944900232B242B252BC9
:10143000262B272B282B292B49F08EE20E943A09D4
:10144000C801B7010E9473050E946D091F910F9199
:10145000FF90EF9008951F93CF93DF93EC0110E07E
:1014600003C00E943A091F5FFE01E10FF11D808158
:101470008823B9F7DF91CF911F9108950F931F93A0
:1014800084EF91E028EC30E0F9013197F1F7019712
:10149000D9F780E06FEF0E94720C81E061E041E0DB
:1014A0000E947C0A81E062E041E00E947C0A81E0C7
:1014B00060E041E00E947C0A82E00E94F70880E23E
:1014C0009EE40197F1F788E30E94F70800ED17E02A
:1014D000C8010197F1F78EE00E94F708C801019753
:1014E000F1F70E94320986E00E94F708C8010197CF
:1014F000F1F71F910F910895843008F077C068309C
:1015000008F074C04130B1F5813099F0813030F08D
:101510008230D1F0833009F06BC021C02AB381E062
:1015200090E002C0880F991F6A95E2F7282B2ABB2A
:101530005BC027B381E090E002C0880F991F6A95D5
:10154000E2F7282B27BB50C024B381E090E002C013
:10155000880F991F6A95E2F7282B24BB45C021B359
:1015600081E090E002C0880F991F6A95E2F7282B6E
:1015700021BB3AC04423D1F5813099F0813028F065
:101580008230D9F08330A1F524C02AB381E090E005
:1015900002C0880F991F6A95E2F7809582238ABB63
:1015A00023C027B381E090E002C0880F991F6A959D
:1015B000E2F78095822387BB17C024B381E090E0D7
:1015C00002C0880F991F6A95E2F78095822384BB39
:1015D0000BC021B381E090E002C0880F991F6A958B
:1015E000E2F78095822381BB81E0089580E0089531
:1015F00081E00895843008F077C0683008F074C046
:101600004130B1F5813099F0813030F08230D1F045
:10161000833009F06BC021C02BB381E090E002C0A1
:10162000880F991F6A95E2F7282B2BBB5BC028B364
:1016300081E090E002C0880F991F6A95E2F7282B9D
:1016400028BB50C025B381E090E002C0880F991FED
:101650006A95E2F7282B25BB45C022B381E090E0D4
:1016600002C0880F991F6A95E2F7282B22BB3AC067
:101670004423D1F5813099F0813028F08230D9F0BF
:101680008330A1F524C02BB381E090E002C0880F25
:10169000991F6A95E2F7809582238BBB23C028B3FC
:1016A00081E090E002C0880F991F6A95E2F780956B
:1016B000822388BB17C025B381E090E002C0880F69
:1016C000991F6A95E2F78095822385BB0BC022B3F0
:1016D00081E090E002C0880F991F6A95E2F780953B
:1016E000822382BB81E0089580E0089581E008951F
:1016F000FA01843028F5683018F5813049F08130DE
:1017000028F0823039F08330C9F406C029B305C00F
:1017100026B303C023B301C020B381E090E0062EBE
:1017200002C0880F991F0A94E2F730E082239323C6
:1017300002C0959587956A95E2F7808381E00895C8
:1017400080E008958430C0F56830B0F5813091F0C4
:10175000813028F08230C9F0833061F521C02BB38D
:1017600081E090E002C0880F991F6A95E2F7282770
:101770002BBB20C028B381E090E002C0880F991FE6
:101780006A95E2F7282728BB15C025B381E090E0D1
:1017900002C0880F991F6A95E2F7282725BB0AC067
:1017A00022B381E090E002C0880F991F6A95E2F7AA
:1017B000282722BB81E0089580E00895843008F056
:1017C0008FC0683008F08CC0813049F1813038F02A
:1017D000823009F444C0833009F080C060C04130D9
:1017E00091F480B78B7F80BF3AB381E090E002C074
:1017F000880F991F6A95E2F7282F209523232ABB8B
:101800002BB3822B0AC02BB381E090E002C0880F7B
:10181000991F6A95E2F7809582238BBB5FC04130A8
:1018200091F480B78B7F80BF37B381E090E002C036
:10183000880F991F6A95E2F7282F2095232327BB4D
:1018400028B3822B0AC028B381E090E002C0880F41
:10185000991F6A95E2F78095822388BB3FC041308B
:1018600091F480B78B7F80BF34B381E090E002C0F9
:10187000880F991F6A95E2F7282F2095232324BB10
:1018800025B3822B0AC025B381E090E002C0880F07
:10189000991F6A95E2F78095822385BB1FC041306E
:1018A00091F480B78B7F80BF31B381E090E002C0BC
:1018B000880F991F6A95E2F7282F2095232321BBD3
:1018C00022B3822B0AC022B381E090E002C0880FCD
:1018D000991F6A95E2F78095822382BB81E0089583
:1018E00080E00895843090F4813049F0813028F010
:1018F000823039F0833051F406C06ABB05C067BB43
:1019000003C064BB01C061BB81E0089580E008951D
:10191000843090F4813049F0813028F0823039F001
:10192000833051F406C06BBB05C068BB03C065BB08
:1019300001C062BB81E0089580E00895FB0184301E
:1019400098F4813049F0813028F0823039F08330CA
:1019500059F406C089B305C086B303C083B301C080
:1019600080B3808381E0089580E00895843010F092
:1019700080E00895813059F0813028F0823059F0AC
:10198000833061F40DC08BB380958BBB07C088B3E7
:10199000809588BB03C085B3809585BB81E00895A1
:1019A00082B3809582BB81E00895843010F080E09E
:1019B00008956F70813071F0813028F0823089F0A5
:1019C0008330A9F416C08BB3807F8BBB8BB3682B9D
:1019D0006BBB0DC088B3807F88BB88B3682B68BBA6
:1019E00006C085B3807F85BB85B3682B65BB81E06E
:1019F000089582B3807F82BB82B3682B62BB81E093
:101A00000895843010F080E008956295607F813001
:101A100071F0813028F0823089F08330A9F416C04B
:101A20008BB38F708BBB8BB3682B6BBB0DC088B334
:101A30008F7088BB88B3682B68BB06C085B38F7076
:101A400085BB85B3682B65BB81E0089582B38F7039
:101A500082BB82B3682B62BB81E00895843010F0B2
:101A600080E008956F70813071F0813028F082300D
:101A700089F08330A9F416C08AB3807F8ABB8AB309
:101A8000682B6ABB0DC087B3807F87BB87B3682B89
:101A900067BB06C084B3807F84BB84B3682B64BB00
:101AA00081E0089581B3807F81BB81B3682B61BBE6
:101AB00081E00895843010F080E008956295607FA1
:101AC000813071F0813028F0823089F08330A9F4C0
:101AD00016C08AB38F708ABB8AB3682B6ABB0DC0ED
:101AE00087B38F7087BB87B3682B67BB06C084B38F
:101AF0008F7084BB84B3682B64BB81E0089581B38D
:101B00008F7081BB81B3682B61BB81E008955998C8
:101B100010BC83E389B95898529886E880BD5798DD
:101B200056985598549A539A0895282F8091AA014F
:101B3000882311F083E0089580E090E0A0E0B0E019
:101B400003C00196A11DB11D5D9909C0803137E226
:101B5000930730E0A30730E0B30799F708C080513E
:101B60009742A040B04019F02CB980E001C084E059
:101B70001092AA010895FC01009711F482E00895E3
:101B80008091AA01882311F083E0089580E090E01D
:101B9000A0E0B0E003C00196A11DB11D5F9909C08E
:101BA000803127E2920720E0A20720E0B20799F7F0
:101BB00009C080519742A040B04021F08CB1808391
:101BC00080E001C084E01092AA0108950F931F9352
:101BD000CF93DF93009711F482E014C0EC0108EC7E
:101BE00010E00DC00E94950D28EE33E0F80131970A
:101BF000F1F721503040D1F72196882319F48881DC
:101C0000882381F7DF91CF911F910F910895FC01F7
:101C10008091AA01882311F083E008953097A9F0FC
:101C20006115710591F081E08093AA01F093A901FB
:101C3000E093A8017093AC016093AB011092B001E6
:101C400080818CB9569A80E0089582E00895AF9221
:101C5000BF92CF92DF92EF92FF920F931F93CF9399
:101C6000DF93EC015A016B01009711F482E016C07A
:101C7000EE24FF2487010CC0CE018E0D9F1D0E9413
:101C8000BB0D882359F40894E11CF11C011D111DA2
:101C9000EA14FB040C051D0578F380E0DF91CF9179
:101CA0001F910F91FF90EF90DF90CF90BF90AF907A
:101CB0000895BC018091AA01882311F083E0089562
:101CC00061157105A9F02115310591F081E080932E
:101CD000AA017093AE016093AD013093AC012093E3
:101CE000AB014093AF011092B001579A80E0089584
:101CF00082E008951F920F920FB60F9211242F9336
:101D00003F934F935F936F937F938F939F93AF9383
:101D1000BF93EF93FF939091B0018CB1E091AD012F
:101D2000F091AE01E90FF11D80839F5F9093B001A8
:101D30008091AF01981761F41092B0011092AA013E
:101D4000E091AB01F091AC01309709F009955798FB
:101D5000FF91EF91BF91AF919F918F917F916F9183
:101D60005F914F913F912F910F900FBE0F901F9059
:101D700018951F920F920FB60F9211242F933F9335
:101D80004F935F936F937F938F939F93AF93BF9383
:101D9000EF93FF938091B0018F5F8093B001E0914A
:101DA000A801F091A901E80FF11DE081EE2369F48B
:101DB0001092B0011092AA01E091AB01F091AC0138
:101DC000309709F00995569801C0ECB9FF91EF9151
:101DD000BF91AF919F918F917F916F915F914F9143
:101DE0003F912F910F900FBE0F901F9018950F935A
:101DF0001F93DF93CF930F92CDB7DEB70E943E0AB9
:101E00000E94870D88EB9BE028EC30E0F9013197C8
:101E1000F1F70197D9F78E010F5F1F4FC8010E949C
:101E2000BB0D8823D9F7898190E00E943A09F6CF4B
:101E3000629FD001739FF001829FE00DF11D649FAE
:101E4000E00DF11D929FF00D839FF00D749FF00D3A
:101E5000659FF00D9927729FB00DE11DF91F639FDB
:101E6000B00DE11DF91FBD01CF0111240895A1E2BC
:101E70001A2EAA1BBB1BFD010DC0AA1FBB1FEE1F04
:101E8000FF1FA217B307E407F50720F0A21BB30B4F
:101E9000E40BF50B661F771F881F991F1A9469F7CB
:101EA00060957095809590959B01AC01BD01CF0127
:101EB000089597FB092E05260ED057FD04D0D7DFD5
:101EC0000AD0001C38F450954095309521953F4F2D
:101ED0004F4F5F4F0895F6F79095809570956195F7
:101EE0007F4F8F4F9F4F08952F923F924F925F9257
:101EF0006F927F928F929F92AF92BF92CF92DF921A
:101F0000EF92FF920F931F93CF93DF93CDB7DEB77E
:101F1000CA1BDB0B0FB6F894DEBF0FBECDBF099412
:101F20002A88398848885F846E847D848C849B8469
:101F3000AA84B984C884DF80EE80FD800C811B8177
:101F4000AA81B981CE0FD11D0FB6F894DEBF0FBEA6
:0A1F5000CDBFED010895F894FFCF16
:101F5A000000000000000000000102020303030366
:101F6A00040404040404040405050505050505051F
:101F7A0005050505050505050606060606060606FF
:101F8A0006060606060606060606060606060606E7
:101F9A0006060606060606060707070707070707CF
:101FAA0007070707070707070707070707070707B7
:101FBA0007070707070707070707070707070707A7
:101FCA000707070707070707070707070707070797
:101FDA00070707070707070708080808080808087F
:101FEA000808080808080808080808080808080867
:101FFA000808080808080808080808080808080857
:10200A000808080808080808080808080808080846
:10201A000808080808080808080808080808080836
:10202A000808080808080808080808080808080826
:10203A000808080808080808080808080808080816
:10204A000808080808080808080808080808080806
:10205A000808080808080808000704141C000C00EF
:10206A00000E0A0E02020C0000000202030E00001B
:10207A00000007041C00000000000E1111110E00E0
:10208A0000000202030E0000000002021F00080006
:08209A00000007041C00000017
:00000001FF
