:100000000C942A000C94F1090C9447000C944700BE
:100010000C9447000C9447000C9447000C94BD05C9
:100020000C9447000C9447000C9447000C94470034
:100030000C9447000C9447000C9447000C94470024
:100040000C9447000C9447000C9447000C94470014
:100050000C94470011241FBECFE5D8E0DEBFCDBF12
:1000600010E0A0E6B0E0E6EAF7E202C005900D92EB
:10007000AA36B107D9F714E0AAE6B0E001C01D9294
:10008000A432B107E1F70E94490A0C94D1130C94F1
:100090000000823429F1833420F4813409F06AC0ED
:1000A00006C08334B1F1843409F064C04BC04130E0
:1000B00059F42AB381E090E002C0880F991F6A9535
:1000C000E2F7282B2ABB08952AB381E090E002C012
:1000D000880F991F6A95E2F7809582238ABB08955D
:1000E000413059F427B381E090E002C0880F991F96
:1000F0006A95E2F7282B27BB089527B381E090E0AB
:1001000002C0880F991F6A95E2F78095822387BB0A
:100110000895413059F424B381E090E002C0880F83
:10012000991F6A95E2F7282B24BB089524B381E038
:1001300090E002C0880F991F6A95E2F780958223AC
:1001400084BB0895413059F421B381E090E002C0AE
:10015000880F991F6A95E2F7282B21BB089521B3D8
:1001600081E090E002C0880F991F6A95E2F78095C0
:10017000822381BB0895823429F1833420F48134B1
:1001800009F06AC006C08334B1F1843409F064C058
:100190004BC0413059F42BB381E090E002C0880F8E
:1001A000991F6A95E2F7282B2BBB08952BB381E0AA
:1001B00090E002C0880F991F6A95E2F7809582232C
:1001C0008BBB0895413059F428B381E090E002C020
:1001D000880F991F6A95E2F7282B28BB089528B34A
:1001E00081E090E002C0880F991F6A95E2F7809540
:1001F000822388BB0895413059F425B381E090E013
:1002000002C0880F991F6A95E2F7282B25BB089535
:1002100025B381E090E002C0880F991F6A95E2F74C
:100220008095822385BB0895413059F422B381E043
:1002300090E002C0880F991F6A95E2F7282B22BB35
:10024000089522B381E090E002C0880F991F6A955B
:10025000E2F78095822382BB0895823461F0833473
:1002600018F4813469F505C0833439F0843441F5DC
:1002700016C029B303C026B301C023B381E090E0C8
:10028000062E02C0880F991F0A94E2F730E08223FD
:10029000932302C0959587956A95E2F7089520B358
:1002A00081E090E0062E02C0880F991F0A94E2F7C1
:1002B00030E08223932302C0959587956A95E2F7F3
:1002C00008958234A9F0833418F4813489F505C087
:1002D0008334C9F0843461F521C02BB381E090E010
:1002E00002C0880F991F6A95E2F728272BBB089553
:1002F00028B381E090E002C0880F991F6A95E2F769
:10030000282728BB089525B381E090E002C0880F1C
:10031000991F6A95E2F7282725BB089522B381E04B
:1003200090E002C0880F991F6A95E2F7282722BB48
:100330000895823461F0833418F4813469F405C07F
:10034000833439F0843441F406C06BBB089568BB34
:10035000089565BB089562BB0895823479F08334B3
:1003600018F48134C9F405C0833469F08434A1F4ED
:100370000FC08BB3607F862B8BBB089588B3607FE3
:10038000862B88BB089585B3607F862B85BB089537
:1003900082B3607F862B82BB0895823471F08334F0
:1003A00018F48134A9F405C0833459F0843481F4FD
:1003B0000CC08BB38F708BBB089588B38F7088BBD4
:1003C000089585B38F7085BB089582B38F7082BB0B
:1003D0000895FC010FB6F8940F9220813181609549
:1003E000709562237323718360830F900FBEC901E0
:1003F0000895FC01808191810895BA010E94E9016C
:100400000895CF93DF93EC010E94850A06C08F8187
:10041000988560E072E00E94C40C8A818823B9F755
:10042000CE010E9480030E94A20EDF91CF91089519
:10043000CF92DF92EF92FF920F931F93CF93DF93B0
:100440008B01EC0185E0E82EF12CEC0EFD1E0E94E4
:10045000850AEF81F88588819981802B912B99837A
:10046000888300E010E024C0D280C3808081918125
:10047000BC016070AC0150702881398192FD05C0CB
:1004800024233523232B31F40FC0242335232417B1
:10049000350751F470FF02C0042B152B6881798158
:1004A0007260CF010E94C40C8D2D9C2D9C01F9011E
:1004B000EE15FF05C9F60095109588819981802376
:1004C0009123998388830E94A20E88819981DF916C
:1004D000CF911F910F91FF90EF90DF90CF900895F3
:1004E000BA010E9418020895AF92BF92CF92DF9294
:1004F000EF92FF920F931F93CF93DF937B01A42E74
:10050000B22E68018C010E94850AF8012081318198
:10051000C70182239323BB2021F4892B09F05AC001
:1005200004C08E159F0509F455C0C114D10459F4B7
:10053000E9011BC0C7018095909582239323F801A0
:10054000918380834AC0AA2019F060E071E002C064
:1005500060E070E0B11074606E297F29C8010296D6
:10056000A6010E948311C0E0D0E00E94A20ECD2817
:1005700029F1882311F40E94C0050E94300B91FDDF
:100580001BC00FB6F8940F92F801808191819701FA
:1005900028233923BB2019F4232B19F50BC02E1562
:1005A0003F0541F41EC0E094F094E822F922F801DE
:1005B000F182E0820F900FBEEC01D070CE01DF918E
:1005C000CF911F910F91FF90EF90DF90CF90BF9050
:1005D000AF900895AA2009F0ADCFE901CC24DD2425
:1005E000C4CFAA2001F7E6CF8F929F92AF92BF921D
:1005F000CF92DF92EF92FF920F931F93CF93DF93EF
:10060000F82EE92E8B015A014901C82ED92E0E94DD
:10061000850AF601C081D1818F2D9E2DB8010E94DF
:100620001802C02BD12BC5018C239D238A159B0555
:1006300069F4950120953095F6018081918182239E
:100640009323918380838824992410C0811491047A
:1006500051F0B5017560C6010296A4010E94831194
:10066000C0E0D0E003C0F601C081D1810E94A20E9B
:100670008928F9F0882311F40E94C0050E94300BEC
:100680009C0191FD14C00FB6F8940F92F6012081E1
:100690003181C501822393238A159B0531F4A094EF
:1006A000B094A222B322B182A0820F900FBEE901C2
:1006B000D070CE01DF91CF911F910F91FF90EF90FD
:1006C000DF90CF90BF90AF909F908F900895CF9381
:1006D000DF938BE090E00E94B003EC01009731F0D3
:1006E000FC0111921192CF010E945304CE01DF91BF
:1006F000CF910895809167009091680008950895C2
:10070000CF93DF93009749F1EC0124970E94850A6B
:100710004A815B81ABE8B3E02C9111963C91119733
:10072000BD01C901DC0112968D919C91139784172C
:10073000950790F3FB01B983A883D183C08380918F
:100740006700909168002A813B81820F931F9093EC
:100750006800809367000E94A20EDF91CF910895F8
:10076000EF92FF920F931F93CF93DF93EC010E94C0
:10077000850A80916A00882309F58CE690E09093C1
:100780008C0380938B0310928E0310928D038FE164
:1007900093E09093920380939103109290031092B0
:1007A0008F0390936F0080936E008FE893E0909397
:1007B0006D0080936C0081E080936A00209709F0BF
:1007C0002496CE0101978E51934008F060C040916D
:1007D0008B0350918C03EBE8F3E0DA0112968D91D4
:1007E0009C9113978C179D0738F48D919C910097DD
:1007F00019F0AC01FD01F1CFB3E04F385B0709F40C
:1008000046C0E080F180DA018D919C91119791832F
:10081000808312968D919C9113978C1B9D0B893030
:10082000910528F1BA016C0F7D1FFB019383828330
:100830001396DC93CE9312970280F381E02DABE800
:10084000B3E02C9111963C9111971A2F0B2FC901EF
:10085000DC0112968D919C9113978E179F0788F358
:10086000E12FF02FEB01B983A88371836083E70147
:1008700024968091670090916800FA01228133816B
:10088000821B930B909368008093670002C0C0E0C6
:10089000D0E00E94A20ECE01DF91CF911F910F9167
:1008A000FF90EF900895FC019C012D5F3F4F328334
:1008B00021838FEF9FEF9483838336832583308753
:1008C000278310820895FC01118610860895AC01DB
:1008D000FC01A181B281FB01B383A28314968D91A7
:1008E0009C911597958384831496ED91FC911597AF
:1008F0007383628315967C936E931497FB015187E3
:100900004087FA0180818F5F80830895CF93DF93C2
:100910009C01EB01488159818FEF4F3F580721F42B
:10092000F901A781B0850DC0D90113961296ED91FA
:10093000FC911397808191814817590710F0DF01CE
:10094000F5CF1296ED91FC911397FB83EA83D58343
:10095000C483BD83AC831396DC93CE9312973987FF
:100960002887F90180818F5F8083DF91CF9108957F
:10097000CF93DF93DC011896CD91DC9119971296F5
:100980004D915C91139714968D919C911597FA0156
:100990009583848314962D913C911597F901538387
:1009A000428389819A818A179B0711F43A832983AC
:1009B00019961C921E921897888181508883DF9126
:1009C000CF910895FC0191E1908322E2229383E389
:1009D000829362937293129280E88293129282E0E1
:1009E000829383E0829384E0829385E0829386E021
:1009F000829387E0829388E0829389E0829380E10A
:100A00008293929382E1829383E1829384E1829341
:100A100085E1829386E1829387E1829388E18293E4
:100A200089E1829380E2829381E28293229383E23E
:100A300082934293529386E2829387E2829388E282
:100A4000829389E2829380E3829381E38293319758
:100A5000CF0108951BBC8CE78ABD8BE08EBD89B7A2
:100A6000806189BFA0919303B0919403CD91CDBFD4
:100A7000DD91DEBFFF91EF91DF91CF91BF91AF91FB
:100A80009F918F917F916F915F914F913F912F91A6
:100A90001F910F91FF90EF90DF90CF90BF90AF909C
:100AA0009F908F907F906F905F904F903F902F908E
:100AB0001F900F900FBE0F90089581E00895089544
:100AC0000F920FB6F8940F921F9211242F923F921B
:100AD0004F925F926F927F928F929F92AF92BF924E
:100AE000CF92DF92EF92FF920F931F932F933F933A
:100AF0004F935F936F937F938F939F93AF93BF9326
:100B0000CF93DF93EF93FF93A0919303B09194035E
:100B10000DB60D920EB60D920E94380D882311F07D
:100B20000E94AA0AA0919303B0919403CD91CDBFE6
:100B3000DD91DEBFFF91EF91DF91CF91BF91AF913A
:100B40009F918F917F916F915F914F913F912F91E5
:100B50001F910F91FF90EF90DF90CF90BF90AF90DB
:100B60009F908F907F906F905F904F903F902F90CD
:100B70001F900F900FBE0F9008950E94600518956A
:100B80000F920FB6F8940F921F9211242F923F925A
:100B90004F925F926F927F928F929F92AF92BF928D
:100BA000CF92DF92EF92FF920F931F932F933F9379
:100BB0004F935F936F937F938F939F93AF93BF9365
:100BC000CF93DF93EF93FF93A0919303B09194039E
:100BD0000DB60D920EB60D920E94AA0AA091930333
:100BE000B0919403CD91CDBFDD91DEBFFF91EF9128
:100BF000DF91CF91BF91AF919F918F917F916F9135
:100C00005F914F913F912F911F910F91FF90EF9026
:100C1000DF90CF90BF90AF909F908F907F906F901C
:100C20005F904F903F902F901F900F900FBE0F90AE
:100C300008950FB6F8940F92FC01828D0F900FBEAD
:100C40000895FC010FB6F8940F92928D0F900FBE8D
:100C5000838D891B0895FC01828D0895FC01828D8E
:100C600090E0882309F491E0892F0895FC01928D8A
:100C700020E0838D981709F421E0822F08959C01CC
:100C8000E2E0F4E0A0E0B0E080819181892B71F492
:100C9000AA0FBB1FAA0FBB1FFD01EE5FFB4F7183A5
:100CA0006083AC5FBB4F2D933C93089511963496AF
:100CB000A830B10549F708959C01A4E0B4E0E0E054
:100CC000F0E08D919C9111978217930749F4EE0FF4
:100CD000FF1FEE0FFF1FEE5FFB4F2081318107C02A
:100CE00031961496E830F10561F720E030E0C90153
:100CF00008959C01E4E0F4E0A0E0B0E080819181FF
:100D00008217930771F4AA0FBB1FAA0FBB1FFD0127
:100D1000EE5FFB4F11821082AC5FBB4F1D921C92A5
:100D2000089511963496A830B10541F708950F93B0
:100D30001F93182F092F0E947906812F902F0E9450
:100D400080031F910F910895FC01562FA72F248D2A
:100D50002223B9F086819781820F911D9783868324
:100D6000228133818217930720F0808191819783BC
:100D70008683448D66817781852F9A2F50E00E946B
:100D8000C81308950F931F93CF93DF93EC018A8DBF
:100D9000882341F00E811F81CE010E94A4061F838B
:100DA0000E8381E0DF91CF911F910F910895EF9213
:100DB000FF920F931F93CF93DF937A01EC011A8D6B
:100DC000112311F480E01AC00D8D0E94A406115069
:100DD0001A8F0F3F81F48885882379F0CE01089619
:100DE0000E94F80C882349F0E114F10431F081E00D
:100DF000F701808303C00F5F0D8F81E0DF91CF91FA
:100E00001F910F91FF90EF900895CF93DF93EB0127
:100E1000FC01928D838D981710F080E016C0868DAE
:100E20009F5F928F8F3F71F48189882369F0CF0192
:100E300041960E94F80C882339F0209729F081E030
:100E4000888303C08F5F868F81E0DF91CF91089503
:100E5000EF92FF921F93CF93DF93EC010FB6F894BC
:100E60000F921E8D61E1E62EF12CE80EF91E0BC0EB
:100E70008989882351F0C7010E94F80C882311F05A
:100E80000E94260B115011169CF38FEF8E8F0F903E
:100E90000FBE0FB6F8940F921D8D58E0E52EF12C81
:100EA000EC0EFD1E0BC08885882351F0C7010E94FF
:100EB000F80C882311F00E94260B115011169CF398
:100EC0008FEF8D8F0F900FBEDF91CF911F91FF900D
:100ED000EF9008956F927F928F929F92AF92BF9200
:100EE000CF92DF92EF92FF920F931F93DF93CF93F6
:100EF00000D000D00F92CDB7DEB74B015D834C839D
:100F0000E22E8C01E1E1AE2EB12CA80EB91E20E03C
:100F10006E010894C11CD11C74E0672E712C6C0EFC
:100F20007D1E01C021E00FB6F8940F92F801F28CFB
:100F3000FF2061F1C680D780C801B4010E94A406D9
:100F4000EE2099F4FA94F801F28E80819181892B38
:100F500029F40E94480BF80193838283F80180856D
:100F6000882381F0C801089607C0F801D782C6829D
:100F70008189882339F0C5010E94F80C882311F07B
:100F80000E94C0050F900FBE81E063C08C819D81DF
:100F9000892B21F40F900FBE80E05BC0222319F44F
:100FA000C6010E94E40A0F900FBE0E94850A0FB688
:100FB000F8940F92F801858D8F3F09F4158EF80192
:100FC000868D8F3F09F4168E0F900FBEC601B301B8
:100FD0000E94EF0A882371F50FB6F8940F92F8017A
:100FE000828D0F900FBE8823F9F4F80180819181E2
:100FF000892B51F40FB6F8940F92F80182819381F6
:101000000E94720C0F900FBE6C817D81C5010E9401
:10101000DE11C8010E9428070E94A20E882309F051
:1010200081CF0E94C0057ECFC8010E9428070E9480
:10103000A20E78CFC8010E9428070E94A20E0FB608
:10104000F8940F92F801828D0F900FBE882309F05B
:1010500069CF0F900F900F900F900F90CF91DF916D
:101060001F910F91FF90EF90DF90CF90BF90AF90C6
:101070009F908F907F906F9008950F931F93CF93C1
:10108000DF93EC01042F1A8D4C8D442361F4888189
:101090009981892B09F03FC08A819B810E943D0C78
:1010A0001B821A8239C00023B1F48C819D8150E0EB
:1010B0000E94C8138C8D2C813D81280F311D3D83EA
:1010C0002C838A819B812817390728F1888199818F
:1010D0009D838C8320C08E819F8150E00E94C81325
:1010E0008C8D90E044275527481B590B8E819F819A
:1010F000840F951F9F838E832881398182179307E0
:1011000030F48A819B81840F951F9F838E830230E8
:1011100011F41111115080E01F5F1A8FDF91CF91F0
:101120001F910F910895EF92FF921F93CF93DF933A
:101130007A01EC019A8D8B8D981720F0223011F0F6
:1011400080E01AC01E8DCE01422F0E943D081F3F35
:1011500081F48989882379F0CE0141960E94F80CA8
:10116000882349F0E114F10431F081E0F701808334
:1011700003C01F5F1E8F81E0DF91CF911F91FF9011
:10118000EF9008956F927F929F92AF92BF92CF920D
:10119000DF92EF92FF920F931F93DF93CF9300D0D4
:1011A00000D00F92CDB7DEB76B015D834C83922EDA
:1011B0008C01A8E0EA2EF12CE80EF91E20E05E0179
:1011C0000894A11CB11CF4E06F2E712C6C0E7D1ED6
:1011D00001C021E00FB6F8940F92F801928D838D33
:1011E000981718F0F2E09F16C9F4C801B601492D0E
:1011F0000E943D08982FF8018189882339F0C801A1
:1012000041960E94F80C882329F002C0992311F01E
:101210000E94C0050F900FBE81E04CC08C819D8163
:10122000892B19F40F900FBE44C0222319F4C50175
:101230000E94E40A0F900FBE0E94850A0FB6F89430
:101240000F92F801858D8F3F09F4158EF801868D78
:101250008F3F09F4168E0F900FBEC501B3010E9497
:10126000EF0A882309F50FB6F8940F92F801928DD2
:101270000F900FBEF801838D981781F46C817D81EA
:10128000C7010E94DE11C8010E9428070E94A20E19
:10129000882309F09ECF0E94C0059BCFC8010E9401
:1012A00028070E94A20E95CFC8010E9428070E941D
:1012B000A20E80E00F900F900F900F900F90CF91A3
:1012C000DF911F910F91FF90EF90DF90CF90BF9033
:1012D000AF909F907F906F900895CF93DF93EC0134
:1012E0000FB6F8940F92EC8D2B8DE29FC001112464
:1012F00048815981840F951F9B838A831A8E5D8351
:101300004C8330E021503040F0E02E9FC0012F9FF1
:10131000900D3E9F900D1124480F591F5F834E83FF
:101320008FEF8D8F8E8F662361F48885882389F0F7
:10133000CE0108960E94F80C882359F00E94C0053F
:1013400008C0CE0108960E945304CE0141960E9427
:1013500053040F900FBE81E0DF91CF9108950F935A
:101360001F93CF93DF93082F162F662319F480E085
:1013700090E003C0689FC00111244F960E94B00303
:10138000EC01009771F0112319F49983888303C04D
:101390004F96998388830B8F1C8FCE0161E00E944A
:1013A0006D09CE01DF91CF911F910F910895CF93D9
:1013B000DF93482F81E060E00E94AF09EC010097C5
:1013C00061F01B821A82198218821E8260E070E02E
:1013D00040E050E020E00E94C208CE01DF91CF91B2
:1013E00008951F920F920FB60F9211242F933F93DF
:1013F0004F935F936F937F938F939F93AF93BF931D
:10140000EF93FF93809122049091230460E070E0B9
:101410000E940507FF91EF91BF91AF919F918F912E
:101420007F916F915F914F913F912F910F900FBEE0
:101430000F901F901895CF93DF938F9ABF9AC8ECA7
:10144000D0E0809122049091230460E070E040E1BC
:1014500057E220E00E946A07813059F482B3805835
:1014600082BB80E197E2FE013197F1F70197D9F74E
:10147000E8CF882331F788B3805888BB88E893E1A8
:10148000FE013197F1F70197D9F788B3805888BBEF
:10149000D8CFEF92FF920F938BE19AE060E670E075
:1014A00044E650E020E030E001E0EE24FF240E941A
:1014B0009E1278948BB780648BBF85B7836085BF9D
:1014C00081E060E043E00E94AF09909323048093A1
:1014D00022040E94A013FFCF0FB6F8940F9200973A
:1014E00029F4E0919303F091940301C0FC010F9063
:1014F0000FBE86890895009729F4E0919303F09137
:10150000940301C0FC0186890895809195038F5F43
:101510008093950308950FB6F8940F922091980345
:10152000309199030F900FBEC9010895209198033F
:1015300030919903C901089580919E030895009701
:1015400021F480919303909194039C01275E3F4F77
:10155000C901089580919503882321F081E080934B
:1015600097030895109297032091960399E001C084
:101570002150299FD0011124AC55BC4F8C91882358
:10158000B9F31196ED91FC9112970280F381E02D51
:101590001296FC93EE931197CD010396E817F90785
:1015A00031F48281938112969C938E9311971196B8
:1015B000ED91FC911297868197819093940380938B
:1015C0009303209396030895FC0180919C038083EC
:1015D0008091980390919903928381830895FC01EF
:1015E000DB010FB6F8940F92409198035091990344
:1015F0006D917C9111978FEF6F3F780709F1909172
:101600009C038081981729F081819281481759079E
:10161000C8F421813281CA01821B930B8617970778
:1016200088F4241B350B260F371F2D933C93809194
:101630009C03808380919803909199039283818386
:1016400080E001C081E00F900FBE089581E080939B
:10165000970308952091930330919403C90108954D
:10166000E0919303F091940384859585A091930371
:10167000B0919403E0919303F0919403468925E09F
:1016800030E0241B31091D963C932E931C9708953E
:101690008091930390919403892B39F0E091930307
:1016A000F091940384A18F5F84A3209193033091E0
:1016B0009403C9010895009729F4E0919303F091F0
:1016C000940301C0FC010FB6F8940F9281A58230FB
:1016D00011F080E002C011A681E00F900FBE0895C6
:1016E000EF92FF920F931F93CF93DF937B01EC0157
:1016F00029A582E089A78DA19EA1AFA1B8A50196D9
:10170000A11DB11D8DA39EA3AFA3B8A7213091F554
:10171000809195038823A9F48E010E5F1F4FC801A5
:101720000E94B8049E8980919603891710F49093C3
:10173000960389E0989FC00111248C559C4FB801F5
:1017400005C0BE01645F7F4F87EE93E00E9467048F
:10175000E0919303F09194039E898689891750F450
:10176000E114F10421F081E0F701808303C081E0FE
:1017700080939703DF91CF911F910F91FF90EF908E
:101780000895EF92FF920F931F93CF93DF93F80189
:10179000EC010115110541F08DA19EA1AFA1B8A5E5
:1017A00080839183A283B38339A582E089A7223005
:1017B00099F0233018F4213019F505C02330E1F0F9
:1017C0002430F1F415C08DA19EA1AFA1B8A5842B42
:1017D000952BA62BB72B07C08DA19EA1AFA1B8A5B5
:1017E0000196A11DB11D8DA39EA3AFA3B8A708C0EC
:1017F000323011F480E03AC04DA35EA36FA378A706
:10180000313099F5809195038823A9F48E010E5FFC
:101810001F4FC8010E94B8049E89809196038917C2
:1018200010F49093960389E0989FC00111248C5581
:101830009C4FB80105C0BE01645F7F4F87EE93E007
:101840000E946704E0919303F09194039E89868936
:10185000891758F4E114F10421F081E0F701808345
:1018600005C081E08093970301C081E0DF91CF91B3
:101870001F910F91FF90EF9008950F931F93CF93B7
:10188000DF93EC01009741F12CA121502CA39E89FC
:101890008BA1981709F12223F9F48E010E5F1F4FD7
:1018A000C8010E94B8042BA12E8B85E090E0821B1A
:1018B00091099D878C8780919603821710F420935D
:1018C000960389E0289FC00111248C559C4FB801D4
:1018D0000E94670481E001C080E0DF91CF911F91F9
:1018E0000F9108950F931F93CF93DF93EC0100970F
:1018F00009F445C0E0919303F09194039E89868991
:101900009817E8F58C859D8597FD0BC0E0919303B2
:10191000F0919403268985E090E0821B91099D87D0
:101920008C878E8929E0829FC00111248C559C4FA1
:101930002A853B8528173907E1F48E010E5F1F4F7A
:10194000C8010E94B804E0919303F0919403968932
:101950009E8B80919603891710F49093960389E0EB
:10196000989FC00111248C559C4FB8010E946704B8
:1019700006C0E0919303F091940386898E8BDF91EA
:10198000CF911F910F9108950F931F93CF93DF93E2
:10199000FC01706871836083C681D7810E94B8049E
:1019A0008E010E5F1F4FC8010E94B8049E8980916E
:1019B0009603891710F49093960389E0989FC001CD
:1019C00011248C559C4FB8010E946704E091930349
:1019D000F09194039E898689891710F080E003C0F6
:1019E00081E080939703DF91CF911F910F9108952C
:1019F0000F931F93CF93DF93DC011596ED91FC912C
:101A00001697C681D7818E01045F1F4FC8010E94BF
:101A1000B804809195038823A1F48E010E5F1F4FB7
:101A2000C8010E94B8049E8980919603891710F41A
:101A30009093960389E0989FC00111248C559C4F88
:101A400002C087EE93E0B8010E946704E09193031F
:101A5000F09194039E898689891710F080E003C075
:101A600081E080939703DF91CF911F910F910895AB
:101A7000CF92DF92EF92FF920F931F93CF93DF935A
:101A800080919503882309F08FC0009198031091ED
:101A900099030F5F1F4F109399030093980301154B
:101AA000110579F52091E3033091E4038091E5037A
:101AB0009091E6039093E4038093E3033093E6036D
:101AC0002093E50380919C038F5F80939C03E091BA
:101AD000E303F091E4038081882319F48FEF9FEFF3
:101AE0000CC0E091E303F091E4030580F681E02D62
:101AF0000680F781E02D8281938190939B038093F0
:101B00009A0380919A0390919B030817190708F490
:101B100050C0DD2499E0C92EE091E303F091E40385
:101B20008081882319F48FEF9FEF0EC0E091E303CB
:101B3000F091E4030580F681E02DC681D7818A818A
:101B40009B810817190728F490939B0380939A03AD
:101B500031C082E0E82EF12CEC0EFD1EC7010E9480
:101B6000B8048C899D89892B21F0CE010C960E94A6
:101B7000B8049E8980919603891710F49093960378
:101B80009C9DC00111248C559C4FB7010E94670495
:101B9000E0919303F09194039E898689981708F445
:101BA000BBCFDD24D394B8CF80919D038F5F80930A
:101BB0009D03DD2480919703882311F0DD24D394C5
:101BC0008D2DDF91CF911F910F91FF90EF90DF90BE
:101BD000CF900895DF92EF92FF920F931F93CF93D0
:101BE000DF93EC018A859B85895F934091F58C8911
:101BF0009D8923E0873E920761F1892B51F533C01F
:101C0000DE88E0919303F0919403068922E0E22EAE
:101C1000F12CEC0EFD1EC7010E94B8046E89809164
:101C20009603861710F46093960310E0D01608F020
:101C300011E089E0689FC00111248C559C4FB701C9
:101C40000E94670407C02C9687EE93E0BE010E94B5
:101C5000670410E0812FDF91CF911F910F91FF90CA
:101C6000EF90DF90089580919503882349F2EBCFA0
:101C70000F931F93CF93DF93F801EC010FB6F89405
:101C80000F920115110541F08DA19EA1AFA1B8A53C
:101C900080839183A283B38339A582E089A7223010
:101CA00099F0233018F4213019F505C02330E1F004
:101CB0002430F1F415C08DA19EA1AFA1B8A5842B4D
:101CC000952BA62BB72B07C08DA19EA1AFA1B8A5C0
:101CD0000196A11DB11D8DA39EA3AFA3B8A708C0F7
:101CE000323011F480E027C04DA35EA36FA378A724
:101CF000313001F58E010E5F1F4FC8010E94B804FC
:101D00009E8980919603891710F49093960389E039
:101D1000989FC00111248C559C4FB8010E94670404
:101D2000E0919303F09194039E898689891710F4BA
:101D30000E94C00581E00F900FBEDF91CF911F91EF
:101D40000F910895EF92FF920F931F93CF93DF931C
:101D50000FB6F8940F92809195038150809395036C
:101D600080919503882309F06CC080919E0388239D
:101D700009F467C0C0E0D0E039E0E32EFF24F3941B
:101D800029C0E091EC03F091ED03C681D781CE012B
:101D90000C960E94B8048E010E5F1F4FC8010E946E
:101DA000B8049E8980919603891710F49093960346
:101DB0009E9DC00111248C559C4FB8010E94670460
:101DC000E0919303F09194039E898689981710F00F
:101DD000F09297038091E703882399F6CD2BD1F0F9
:101DE000E091E303F091E4038081882319F48FEFFD
:101DF0009FEF0CC0E091E303F091E4030580F681CE
:101E0000E02D0680F781E02D8281938190939B03E2
:101E100080939A0310919D03112359F001E00E94D1
:101E2000380D882311F0009397031150C1F71092D9
:101E30009D0380919703882321F00E94C00581E0D3
:101E400001C080E00F900FBEDF91CF911F910F91E5
:101E5000FF90EF9008950F931F93CF93DF93EC01C2
:101E6000009709F43CC08091930390919403C817A4
:101E7000D907A9F10FB6F8940F928A859B85895FDF
:101E80009340F1F48C899D8923E0873E9207C1F04D
:101E9000892BB1F418C09093960389E0989FC001F4
:101EA00011248C559C4FB8010E946704E091930364
:101EB000F09194039E898689981710F00E94C005BE
:101EC0000F900FBE0CC08E010E5F1F4FC8010E9405
:101ED000B8049E89809196038917E8F2DECFDF91DE
:101EE000CF911F910F9108950F931F93CF93DF937D
:101EF0000FB6F8940F92009729F4C0919303D091F4
:101F0000940301C0EC018E010E5F1F4FC8010E94B7
:101F1000B8048C899D89892B21F0CE010C960E94F2
:101F2000B80489EF93E0B8010E9467040F900FBED8
:101F300080919F038823F9F00FB6F8940F92E091F7
:101F4000E303F091E4038081882319F48FEF9FEF7E
:101F50000CC0E091E303F091E4030580F681E02DED
:101F60000680F781E02D8281938190939B0380937B
:101F70009A030F900FBE8091930390919403C8171A
:101F8000D907A1F480919F03882319F00E94C0050E
:101F90000DC090919E038091F903891729F4109246
:101FA00094031092930302C00E94AA0ADF91CF917A
:101FB0001F910F910895FF920F931F93CF93DF937B
:101FC000653008F064E00FB6F8940F92009729F49A
:101FD000C0919303D091940301C0EC012BA126176B
:101FE00009F452C0261790F48091930390919403C2
:101FF000C817D90711F4FF2413C0E0919303F0919F
:102000009403FF248689681758F008C080919303D1
:1020100090919403FF24C817D90711F4FF24F39477
:102020003E89231709F46E8B6BA38C859D8597FDE4
:1020300006C085E090E0861B91099D878C8789E02A
:10204000389FC00111248C559C4F2A853B85281749
:102050003907B1F48E010E5F1F4FC8010E94B8040A
:102060009E8980919603891710F49093960389E0D6
:10207000989FC00111248C559C4FB8010E946704A1
:10208000FF2011F00E94C0050F900FBEDF91CF918D
:102090001F910F91FF900895FF920F931F93CF937D
:1020A000DF93EC01F62E0091980310919903809133
:1020B00093039091940302960E94B8048FEFCF3F50
:1020C000D80769F4FF2059F060919303709194034D
:1020D0006E5F7F4F89EF93E00E9467042FC0C00FAF
:1020E000D11FE0919303F0919403D383C283C0176F
:1020F000D10768F48091E5039091E6036091930322
:10210000709194036E5F7F4F0E94860417C0809188
:10211000E3039091E40360919303709194036E5FE5
:102120007F4F0E94860480919A0390919B03C81769
:10213000D90720F4D0939B03C0939A03DF91CF91EA
:102140001F910F91FF9008956F927F928F929F92AF
:10215000AF92BF92CF92DF92EF92FF920F931F93B5
:10216000CF93DF935B016C0139014A01E8010FB69F
:10217000F8940F92E0919303F091940381A582303B
:1021800019F1E0919303F091940385A196A1A7A181
:10219000B0A5A094B094C094D0948A219B21AC2186
:1021A000BD2185A396A3A7A3B0A7E0919303F091C7
:1021B000940381E081A7E114F10431F0C70161E0EB
:1021C0000E944C100E94C0050F900FBE0FB6F894ED
:1021D0000F92209761F0E0919303F091940385A111
:1021E00096A1A7A1B0A588839983AA83BB83E09118
:1021F0009303F091940381A5813011F480E015C020
:10220000E0919303F091940385A196A1A7A1B0A5B5
:10221000609470948094909486219721A821B9218C
:1022200085A396A3A7A3B0A781E0E0919303F091C3
:10223000940311A60F900FBEDF91CF911F910F91C4
:10224000FF90EF90DF90CF90BF90AF909F908F90D6
:102250007F906F9008951F93182F0FB6F8940F92E8
:10226000E0919303F091940385A196A1A7A1B0A555
:102270000097A105B10579F4E0919303F0919403DF
:1022800081E081A76115710531F0CB0161E00E9409
:102290004C100E94C0050F900FBE0FB6F8940F921D
:1022A000E0919303F091940325A136A147A150A595
:1022B0002115310541055105D9F0112349F0E0916F
:1022C0009303F091940315A216A217A210A610C0B2
:1022D000E0919303F09194032150304040405040EE
:1022E00025A336A347A350A72F5F3F4F4F4F5F4F04
:1022F000E0919303F091940311A60F900FBEB901E2
:10230000CA011F9108950F931F938A01E0919303CF
:10231000F09194037068758764876091930370915E
:102320009403645F7F4F0E946704C80161E00E94CC
:102330004C101F910F9108959C01009769F08091B6
:1023400095038F5F80939503C90160E00E944C1054
:102350000E94A20E882311F40E94C0050895FC017A
:10236000809195038F5F80939503409198035091DE
:10237000990320813181620F731F4217530728F49C
:102380006217730728F080E008C06217730720F017
:1023900080E04617570708F481E071836083882343
:1023A00031F0CB01841B950B60E00E944C100E9421
:1023B000A20E882311F40E94C00508950F931F9365
:1023C0008B016091930370919403645F7F4F0E942F
:1023D0008604C80161E00E944C101F910F9108957E
:1023E000F89410929F030E945F0508950F931F9326
:1023F0002CC0809195038F5F809395031091F0031B
:102400000E94A20E112309F10FB6F8940F92E091E9
:10241000F503F091F60306811781C80102960E9428
:10242000B80480919E03815080939E038091A20303
:1024300081508093A2030F900FBEF8018789908D81
:102440000E948003C8010E9480038091A203882318
:1024500081F68091A4038230C0F30E94C005F5CFBD
:102460000F931F93CF93DF930FB6F8940F920097BB
:1024700029F4C0919303D091940301C0EC018E0123
:102480000E5F1F4FC8010E94B8048C899D89892B5B
:1024900021F0CE010C960E94B8048091A3038F5FB7
:1024A0008093A3038091930390919403C817D90755
:1024B00059F480EF93E0B8010E9467048091A20371
:1024C0008F5F8093A20326C080919E0381508093EA
:1024D0009E038F89988D0E948003CE010E94800305
:1024E000E091E303F091E4038081882319F48FEFF6
:1024F0009FEF0CC0E091E303F091E4030580F681C7
:10250000E02D0680F781E02D8281938190939B03DB
:1025100080939A030F900FBE80919F03882349F008
:102520008091930390919403C817D90711F40E94E6
:10253000C005DF91CF911F910F9108954F925F9247
:102540006F927F928F929F92AF92BF92CF92DF92C3
:10255000EF92FF920F931F93CF93DF932C01162FCF
:10256000972E5A013901CA010E94B003EC0100976D
:10257000A1F08AE290E00E94B0036C01009751F054
:10258000FC01D08FC78B812F992D9C01F901D601B9
:1025900090E005C0CE010E9480038FEFC0C0808113
:1025A00059968C9359978081882329F09F5F3196A3
:1025B00011969A30A1F7F60112A2053008F004E056
:1025C000F601068B03A314A252E0852E912C8C0CED
:1025D0009D1CC4010E946304C6010C960E94630402
:1025E000F601D186C08685E090E0801B9109958731
:1025F0008487D38AC28A15A216A217A210A611A692
:102600000894A108B108CE018A0D9B1DB201A30157
:102610000E94E204F60191838083E114F10419F031
:10262000F701D182C0820FB6F8940F9280919E0379
:102630008F5F80939E038091930390919403892BE5
:1026400099F5D0929403C092930380919E038130B8
:10265000E1F5C4EAD3E0CE010E9453042996F3E0E9
:10266000C13DDF07C1F741EDE42E43E0F42EC70181
:102670000E9453040AED13E0C8010E94530487EE40
:1026800093E00E94530480EF93E00E94530489EF8B
:1026900093E00E945304F092E403E092E30310936A
:1026A000E6030093E50311C080919F03882369F43A
:1026B000E0919303F09194039689F6018689891736
:1026C00020F0D0929403C09293038091A3038F5F74
:1026D0008093A303F601968980919603891710F4DD
:1026E00090939603F601868929E0829FC001112408
:1026F0008C559C4FB4010E9467040F900FBE8091CF
:102700009F03882359F0E0919303F09194039689F5
:10271000F6018689981710F40E94C00581E0DF91C8
:10272000CF911F910F91FF90EF90DF90CF90BF90CE
:10273000AF909F908F907F906F905F904F90089593
:10274000EF92FF920F9386EF91E162E670E048EC22
:1027500050E020E030E000E0E0EAEE2EE3E0FE2E84
:102760000E949E12813081F4F8948FEF9FEF909336
:102770009B0380939A0381E080939F0310929903B7
:10278000109298030E942A050F91FF90EF900895F0
:10279000FB01DC0102C001900D9241505040D8F77E
:0627A0000895F894FFCF3C
:0A27A6004D0049444C45001F03009C
:00000001FF
