:100000000C942A000C9447000C9447000C94470071
:100010000C94FE0A0C94D50A0C94AC0A0C94830A36
:100020000C945A0A0C94310A0C94080A0C94DF09B7
:100030000C9447000C9447000C9447000C94470024
:100040000C9447000C9447000C9447000C94470014
:100050000C94470011241FBECFE5D8E0DEBFCDBF12
:1000600011E0A8E6B1E001C01D92A837B107E1F7A1
:1000700011E0A0E6B0E0EEE5F7E102C005900D92D8
:10008000A836B107D9F70E94270B0C94AD0B0C943E
:100090000000EF92FF920F931F937B018C0120E0F1
:1000A00030E040E05FE40E94190388238CF0C8012F
:1000B000B70120E030E040E05FE40E94C1010E940F
:1000C000A7039B01AC01205030404040504806C07F
:1000D000C801B7010E94A7039B01AC01B901CA0185
:1000E0001F910F91FF90EF900895A0E0B0E0EBE733
:1000F000F0E00C94760BDC012B01FA019C9192301C
:1001000008F439C1EB018881823008F433C194309E
:1001100069F4843009F02FC111969C91119789815F
:10012000981709F428C1A0E6B0E025C1843009F48D
:1001300021C18230A9F4923009F01DC19A01AD01AC
:1001400088E0EA010990AE01E90109929E0181501F
:10015000C1F7E201898111969C918923818308C1AD
:10016000923009F407C112962D903C901397EB0141
:100170008A819B811496AD90BD90CD90DC901797AD
:10018000EC80FD800E811F819101281B390BB90184
:1001900037FF04C066277727621B730B6032710537
:1001A0000CF061C0121613066CF537014801062EDB
:1001B00004C096948794779467940A94D2F721E0C8
:1001C00030E040E050E004C0220F331F441F551FB1
:1001D0006A95D2F721503040404050402E213F21B7
:1001E00040235123211531054105510521F021E01E
:1001F00030E040E050E079018A01E628F72808293C
:1002000019293CC0232BD1F1260E371E350146019A
:10021000062E04C096948794779467940A94D2F734
:1002200021E030E040E050E004C0220F331F441FC3
:10023000551F6A95D2F721503040404050402A2146
:100240003B214C215D21211531054105510521F04E
:1002500021E030E040E050E059016A01A628B728CB
:10026000C828D9280BC0821593052CF01C01AA249C
:10027000BB24650103C0EE24FF24870111969C91E5
:10028000D20111968C91981709F445C0992339F041
:10029000A80197012A193B094C095D0906C0A6016E
:1002A00095012E193F09400B510B57FD08C01182D3
:1002B0003382228224833583468357831DC081E0A5
:1002C00081833382228288279927DC01821B930B4A
:1002D000A40BB50B84839583A683B7830DC0220F2F
:1002E000331F441F551F24833583468357838281E0
:1002F000938101979383828324813581468157813D
:10030000DA01C9010197A109B1098F5F9F4FAF4F72
:10031000BF4328F30BC0918333822282EA0CFB1C7B
:100320000C1D1D1DE482F5820683178383E0808304
:10033000248135814681578157FF1AC0C901AA27F8
:1003400097FDA095BA2F81709070A070B0705695EF
:10035000479537952795822B932BA42BB52B848318
:100360009583A683B7838281938101969383828349
:10037000DF0101C0D201CD01CDB7DEB7E2E10C94BF
:10038000920BA0E2B0E0E7ECF1E00C94820B698301
:100390007A838B839C832D833E834F835887E9E048
:1003A000EE2EF12CEC0EFD1ECE010196B7010E943F
:1003B0001F058E010F5E1F4FCE010596B8010E94EA
:1003C0001F058A8991E089278A8BC701B801AE0190
:1003D000475E5F4F0E9475000E944A04A096E6E0C7
:1003E0000C949E0BA0E2B0E0E8EFF1E00C94820BDD
:1003F00069837A838B839C832D833E834F835887C5
:10040000F9E0EF2EF12CEC0EFD1ECE010196B701A6
:100410000E941F058E010F5E1F4FCE010596B80189
:100420000E941F05C701B801AE01475E5F4F0E94E1
:1004300075000E944A04A096E6E00C949E0BA0E290
:10044000B0E0E5E2F2E00C94760B69837A838B836B
:100450009C832D833E834F835887CE010196BE0136
:10046000675F7F4F0E941F05CE010596BE016F5E3C
:100470007F4F0E941F059985923088F089898230CC
:10048000C8F0943019F4823051F404C0843029F457
:10049000923081F480E690E0C6C0923049F420E0CA
:1004A0009A858A89981321E02A87CE010996BBC0D4
:1004B000823049F420E09A858A89981321E02A8BBA
:1004C000CE014196B0C02D843E844F8458886D88FB
:1004D0007E888F88988CEE24FF248701AA24BB2471
:1004E000650140E050E060E070E0E0E0F0E0C10174
:1004F00081709070892BE9F0E60CF71C081D191D1E
:100500009A01AB012A0D3B1D4C1D5D1D80E090E062
:10051000A0E0B0E0E614F7040805190520F481E036
:1005200090E0A0E0B0E0BA01A901480F591F6A1F8E
:100530007B1FAA0CBB1CCC1CDD1C97FE08C081E0F5
:1005400090E0A0E0B0E0A82AB92ACA2ADB2A3196B6
:10055000E032F10549F0660C771C881C991C569412
:10056000479437942794C3CFFA85EA892B893C892D
:100570008B859C85280F391F2E5F3F4F17C0CA01FE
:1005800081709070892B61F016950795F794E79428
:1005900080E090E0A0E0B0E8E82AF92A0A2B1B2BC3
:1005A00076956795579547952F5F3F4F77FDE7CF36
:1005B0000CC0440F551F661F771F17FD4160EE0CDE
:1005C000FF1C001F111F21503040403090E05907A0
:1005D00090E0690790E4790760F32B8F3C8FDB0193
:1005E000CA018F779070A070B07080349105A1051A
:1005F000B10561F447FD0AC0E114F10401051105DC
:1006000029F0405C5F4F6F4F7F4F40781A8EFE1786
:1006100011F081E08A8F4D8F5E8F6F8F78A383E01A
:10062000898FCE0149960E944A04A096E2E10C947B
:10063000920BA8E1B0E0EFE1F3E00C94820B698348
:100640007A838B839C832D833E834F83588789E0F5
:10065000E82EF12CEC0EFD1ECE010196B7010E9492
:100660001F058E010F5E1F4FCE010596B8010E9437
:100670001F058985823040F08989823028F0C701C2
:10068000B8010E94970501C08FEF6896E6E00C94D0
:100690009E0BA8E0B0E0EFE4F3E00C947F0B9B012D
:1006A000AC0183E08983DA01C9018827B7FD83950E
:1006B0009927AA27BB27B82E2115310541055105D9
:1006C00019F482E089833AC08823A9F0203080E0C1
:1006D000380780E0480780E8580729F460E070E0B8
:1006E00080E09FEC30C0EE24FF248701E21AF30A79
:1006F000040B150B02C079018A018EE1C82ED12CA2
:10070000DC82CB82ED82FE820F831887C801B7019D
:100710000E94FB0301971816190684F4082E04C0E2
:10072000EE0CFF1C001F111F0A94D2F7ED82FE820F
:100730000F831887C81AD90ADC82CB82BA82CE010D
:1007400001960E944A042896E9E00C949B0BACE0C9
:10075000B0E0EDEAF3E00C94860B69837A838B8337
:100760009C83CE010196BE016B5F7F4F0E941F05E7
:100770008D81823061F1823050F1843021F48E819C
:10078000882351F12EC02F81388537FD20C06E811E
:100790002F3131051CF06623F9F023C08EE190E083
:1007A000821B930B29853A854B855C8504C0569541
:1007B0004795379527958A95D2F76623B1F05095DE
:1007C0004095309521953F4F4F4F5F4F0EC020E031
:1007D00030E040E050E009C02FEF3FEF4FEF5FE720
:1007E00004C020E030E040E050E8B901CA012C9696
:1007F000E2E00C94A20BEF92FF920F931F937B0108
:100800008C0180E0E81680E0F80681E0080780E0CF
:10081000180788F48FEFE816F1040105110531F08F
:1008200028F088E090E0A0E0B0E017C080E090E021
:10083000A0E0B0E012C080E0E81680E0F80680E0BA
:10084000080781E0180728F088E190E0A0E0B0E018
:1008500004C080E190E0A0E0B0E020E230E040E0C1
:1008600050E0281B390B4A0B5B0B04C0169507950B
:10087000F794E7948A95D2F7F701E859FF4F808102
:10088000281B310941095109C9011F910F91FF909E
:10089000EF900895DF92EF92FF920F931F93FC0168
:1008A000E480F58006811781D1808081823048F410
:1008B00080E090E0A0E1B0E0E82AF92A0A2B1B2BA7
:1008C000A5C0843009F49FC0823021F4EE24FF24B7
:1008D000870105C0E114F1040105110519F4E0E0F8
:1008E000F0E096C0628173819FEF623879070CF067
:1008F0005BC022E83FEF261B370B2A3131052CF075
:1009000020E030E040E050E02AC0B801A701022E0C
:1009100004C076956795579547950A94D2F781E07C
:1009200090E0A0E0B0E004C0880F991FAA1FBB1F91
:100930002A95D2F70197A109B1098E219F21A02301
:10094000B1230097A105B10521F081E090E0A0E07E
:10095000B0E09A01AB01282B392B4A2B5B2BDA0133
:10096000C9018F779070A070B07080349105A10597
:10097000B10539F427FF09C0205C3F4F4F4F5F4F4F
:1009800004C0215C3F4F4F4F5F4FE0E0F0E020306C
:10099000A0E03A07A0E04A07A0E45A0710F0E1E01F
:1009A000F0E079018A0127C06038710564F5FB0128
:1009B000E158FF4FD801C7018F779070A070B070D9
:1009C00080349105A105B10539F4E7FE0DC080E43E
:1009D00090E0A0E0B0E004C08FE390E0A0E0B0E0E1
:1009E000E80EF91E0A1F1B1F17FF05C01695079575
:1009F000F794E794319687E016950795F794E79476
:100A00008A95D1F705C0EE24FF248701EFEFF0E0CF
:100A10006E2F679566276795902F9F77D794DD2473
:100A2000D7948E2F8695492F462B582F5D29B701D5
:100A3000CA011F910F91FF90EF90DF900895FC0184
:100A4000DB01408151812281622F6F7770E0221F8C
:100A50002227221F9381892F880F822B282F30E095
:100A6000991F9927991F11969C931197211531056C
:100A7000A9F5411551056105710511F482E037C0F2
:100A800082E89FEF13969C938E9312979A01AB0185
:100A900067E0220F331F441F551F6A95D1F783E08B
:100AA0008C930DC0220F331F441F551F12968D913A
:100AB0009C911397019713969C938E9312972030D5
:100AC00080E0380780E0480780E4580758F3149620
:100AD0002D933D934D935C93179708952F3F3105C8
:100AE00079F4411551056105710519F484E08C9381
:100AF000089564FF03C081E08C9312C01C9210C063
:100B00002F57304013963C932E93129783E08C938B
:100B100087E0440F551F661F771F8A95D1F77064D1
:100B200014964D935D936D937C93179708951F933F
:100B3000DC01FB019C91923008F447C08081823037
:100B400008F443C0943051F411961C91843099F507
:100B50008181682F70E0611B71093FC0843021F0F2
:100B6000923031F48230B9F18181882389F12DC02E
:100B700011961C9111978230F1F081811817D9F4E8
:100B800012962D913C91139782819381821793073E
:100B900094F028173907BCF014968D919D910D9013
:100BA000BC91A02D248135814681578128173907B2
:100BB0004A075B0718F4112341F00AC08217930714
:100BC000A407B50740F4112319F061E070E005C0F7
:100BD0006FEF7FEF02C060E070E0CB011F910895DE
:100BE000843008F077C0683008F074C04130B1F547
:100BF000813099F0813030F08230D1F0833009F0CB
:100C00006BC021C02AB381E090E002C0880F991F19
:100C10006A95E2F7282B2ABB5BC027B381E090E0FE
:100C200002C0880F991F6A95E2F7282B27BB50C096
:100C300024B381E090E002C0880F991F6A95E2F723
:100C4000282B24BB45C021B381E090E002C0880F6F
:100C5000991F6A95E2F7282B21BB3AC04423D1F5AE
:100C6000813099F0813028F08230D9F08330A1F5BD
:100C700024C02AB381E090E002C0880F991F6A95D2
:100C8000E2F7809582238ABB23C027B381E090E0FE
:100C900002C0880F991F6A95E2F78095822387BB6F
:100CA00017C024B381E090E002C0880F991F6A95B5
:100CB000E2F78095822384BB0BC021B381E090E0F2
:100CC00002C0880F991F6A95E2F78095822381BB45
:100CD00081E0089580E0089581E00895843008F06F
:100CE00077C0683008F074C04130B1F5813099F0B8
:100CF000813030F08230D1F0833009F06BC021C0F8
:100D00002BB381E090E002C0880F991F6A95E2F74B
:100D1000282B2BBB5BC028B381E090E002C0880F7A
:100D2000991F6A95E2F7282B28BB50C025B381E0B4
:100D300090E002C0880F991F6A95E2F7282B25BB27
:100D400045C022B381E090E002C0880F991F6A95E8
:100D5000E2F7282B22BB3AC04423D1F5813099F029
:100D6000813028F08230D9F08330A1F524C02BB334
:100D700081E090E002C0880F991F6A95E2F78095A4
:100D800082238BBB23C028B381E090E002C0880F90
:100D9000991F6A95E2F78095822388BB17C025B317
:100DA00081E090E002C0880F991F6A95E2F7809574
:100DB000822385BB0BC022B381E090E002C0880F84
:100DC000991F6A95E2F78095822382BB81E008959E
:100DD00080E0089581E00895FA01843028F56830B4
:100DE00018F5813049F0813028F0823039F08330B5
:100DF000C9F406C029B305C026B303C023B301C09C
:100E000020B381E090E0062E02C0880F991F0A945B
:100E1000E2F730E08223932302C0959587956A9587
:100E2000E2F7808381E0089580E008958430C0F582
:100E30006830B0F5813091F0813028F08230C9F00F
:100E4000833061F521C02BB381E090E002C0880FB0
:100E5000991F6A95E2F728272BBB20C028B381E0B1
:100E600090E002C0880F991F6A95E2F7282728BBF7
:100E700015C025B381E090E002C0880F991F6A95E4
:100E8000E2F7282725BB0AC022B381E090E002C028
:100E9000880F991F6A95E2F7282722BB81E0089501
:100EA00080E00895843008F08FC0683008F08CC06E
:100EB000813049F1813038F0823009F444C0833008
:100EC00009F080C060C0413091F480B78B7F80BF53
:100ED0003AB381E090E002C0880F991F6A95E2F76B
:100EE000282F209523232ABB2BB3822B0AC02BB398
:100EF00081E090E002C0880F991F6A95E2F7809523
:100F000082238BBB5FC0413091F480B78B7F80BF61
:100F100037B381E090E002C0880F991F6A95E2F72D
:100F2000282F2095232327BB28B3822B0AC028B360
:100F300081E090E002C0880F991F6A95E2F78095E2
:100F4000822388BB3FC0413091F480B78B7F80BF44
:100F500034B381E090E002C0880F991F6A95E2F7F0
:100F6000282F2095232324BB25B3822B0AC025B329
:100F700081E090E002C0880F991F6A95E2F78095A2
:100F8000822385BB1FC0413091F480B78B7F80BF27
:100F900031B381E090E002C0880F991F6A95E2F7B3
:100FA000282F2095232321BB22B3822B0AC022B3F2
:100FB00081E090E002C0880F991F6A95E2F7809562
:100FC000822382BB81E0089580E00895843090F40C
:100FD000813049F0813028F0823039F0833051F48B
:100FE00006C06ABB05C067BB03C064BB01C061BB70
:100FF00081E0089580E00895843090F4813049F0D4
:10100000813028F0823039F0833051F406C06BBB58
:1010100005C068BB03C065BB01C062BB81E0089529
:1010200080E00895FB01843098F4813049F08130EC
:1010300028F0823039F0833059F406C089B305C0F6
:1010400086B303C083B301C080B3808381E0089579
:1010500080E00895843010F080E00895813059F0E8
:10106000813028F0823059F0833061F40DC08BB3A9
:1010700080958BBB07C088B3809588BB03C085B3C0
:10108000809585BB81E0089582B3809582BB81E025
:101090000895843010F080E008956F70813071F011
:1010A000813028F0823089F08330A9F416C08BB3E8
:1010B000807F8BBB8BB3682B6BBB0DC088B3807FED
:1010C00088BB88B3682B68BB06C085B3807F85BBAF
:1010D00085B3682B65BB81E0089582B3807F82BBB6
:1010E00082B3682B62BB81E00895843010F080E009
:1010F00008956295607F813071F0813028F08230F0
:1011000089F08330A9F416C08BB38F708BBB8BB37F
:10111000682B6BBB0DC088B38F7088BB88B3682BFE
:1011200068BB06C085B38F7085BB85B3682B65BB74
:1011300081E0089582B38F7082BB82B3682B62BB5B
:1011400081E00895843010F080E008956F70813060
:1011500071F0813028F0823089F08330A9F416C014
:101160008AB3807F8ABB8AB3682B6ABB0DC087B302
:10117000807F87BB87B3682B67BB06C084B3807F43
:1011800084BB84B3682B64BB81E0089581B3807F06
:1011900081BB81B3682B61BB81E00895843010F07E
:1011A00080E008956295607F813071F0813028F091
:1011B000823089F08330A9F416C08AB38F708ABB5D
:1011C0008AB3682B6ABB0DC087B38F7087BB87B3A8
:1011D000682B67BB06C084B38F7084BB84B3682B55
:1011E00064BB81E0089581B38F7081BB81B3682BAC
:1011F00061BB81E008951DBC1CBC992787FD9095BB
:10120000A92FB92FBC01CD010E94490321E63BE083
:1012100046EB5BE30E941F0220E030E040EC5FE31E
:101220000E94F20120E030E04AE754E40E941F02ED
:101230000E9449007BBD6ABD089583E065E041E0FE
:101240000E94F005089583B78F7B83BF83B7877FA4
:1012500083BF80EC82BF89B7816089BF83B7887FF5
:1012600083BF83B7826083BF08958FB58E7F8FBDA4
:101270008FB582608FBD8EB588608EBD8EB5806162
:101280008EBD1BBC1ABC19BC18BC8FE19EE497BD77
:1012900086BD8EB580648EBD8FB58F7B8FBD8FB5BB
:1012A00080688FBD8FB58F7E8FBD8FB580628FBDFB
:1012B00089B78B7F89BF89B78F7E89BF89B7877FC1
:1012C00089BF89B78F7D89BF8EB5887F8EBD8EB56A
:1012D00082608EBD089582B5886082BD85B58F7BA2
:1012E00085BD85B5877F85BD14BC89B7806489BFFE
:1012F00085B5887F85BD85B5816085BD089582BF30
:1013000008959DBD8CBD089584BD08958CBF08953A
:101310009BBD8ABD089599BD88BD089583BD08957C
:1013200097BD86BD089582B708952CB53DB5C90116
:10133000089584B508959BBD8ABD08958EB58064D7
:101340008EBD89B7806289BF0895813029F48EB53A
:1013500080648EBD80E00895882311F081E00895B7
:101360008EB58F7B8EBD80E0089589B7806289BF7E
:10137000089589B78F7D89BF089526B537B5C9010E
:10138000089581B5887F81BD81B5866081BD08954E
:1013900081B5886081BD089581B5886181BD11BC2A
:1013A0000895009711F482E00895E62FF0E0EE0F23
:1013B000FF1FE859FE4F9183808380E008951F92BC
:1013C0000F920FB60F9211242F933F934F935F9379
:1013D0006F937F938F939F93AF93BF93EF93FF93FD
:1013E000E0917E01F0917F01309709F00995FF911E
:1013F000EF91BF91AF919F918F917F916F915F918D
:101400004F913F912F910F900FBE0F901F90189505
:101410001F920F920FB60F9211242F933F934F9369
:101420005F936F937F938F939F93AF93BF93EF934C
:10143000FF93E0917C01F0917D01309709F00995CF
:10144000FF91EF91BF91AF919F918F917F916F919C
:101450005F914F913F912F910F900FBE0F901F9072
:1014600018951F920F920FB60F9211242F933F934E
:101470004F935F936F937F938F939F93AF93BF939C
:10148000EF93FF93E0917A01F0917B01309709F09F
:101490000995FF91EF91BF91AF919F918F917F91AE
:1014A0006F915F914F913F912F910F900FBE0F90D1
:1014B0001F9018951F920F920FB60F9211242F9321
:1014C0003F934F935F936F937F938F939F93AF93CC
:1014D000BF93EF93FF93E0917801F09179013097FA
:1014E00009F00995FF91EF91BF91AF919F918F9175
:1014F0007F916F915F914F913F912F910F900FBE10
:101500000F901F9018951F920F920FB60F921124F3
:101510002F933F934F935F936F937F938F939F93FB
:10152000AF93BF93EF93FF93E0917601F091770132
:10153000309709F00995FF91EF91BF91AF919F917D
:101540008F917F916F915F914F913F912F910F906C
:101550000FBE0F901F9018951F920F920FB60F920B
:1015600011242F933F934F935F936F937F938F93A8
:101570009F93AF93BF93EF93FF93E0917401F0912A
:101580007501309709F00995FF91EF91BF91AF91E7
:101590009F918F917F916F915F914F913F912F918B
:1015A0000F900FBE0F901F9018951F920F920FB6BD
:1015B0000F9211242F933F934F935F936F937F93D9
:1015C0008F939F93AF93BF93EF93FF93E09172013B
:1015D000F0917301309709F00995FF91EF91BF9158
:1015E000AF919F918F917F916F915F914F913F91BB
:1015F0002F910F900FBE0F901F9018951F920F9272
:101600000FB60F9211242F933F934F935F936F93D5
:101610007F938F939F93AF93BF93EF93FF93E0914B
:101620007001F0917101309709F00995FF91EF91E8
:10163000BF91AF919F918F917F916F915F914F91EA
:101640003F912F910F900FBE0F901F901895CF9341
:10165000DF930E9435090E941D09C8ECD0E08DE29D
:101660000E94FB0880E197E2FE013197F1F70197B4
:10167000D9F780E00E94FB0880E197E2FE013197F4
:10168000F1F70197D9F78FE00E94FB0880E197E21C
:10169000FE013197F1F70197D9F78AE50E94FB081F
:1016A00080E197E2FE013197F1F70197D9F781EFD9
:1016B0000E94FB0880E197E2FE013197F1F7019764
:1016C000D9F786EA0E94FB0880E197E2FE01319794
:1016D000F1F70197D9F783ED0E94FB0880E197E2CB
:1016E000FE013197F1F70197D9F7B9CF2F923F92C9
:1016F0004F925F926F927F928F929F92AF92BF9222
:10170000CF92DF92EF92FF920F931F93CF93DF93CD
:10171000CDB7DEB7CA1BDB0B0FB6F894DEBF0FBE2A
:10172000CDBF09942A88398848885F846E847D8477
:101730008C849B84AA84B984C884DF80EE80FD8079
:101740000C811B81AA81B981CE0FD11D0FB6F894EF
:0E175000DEBF0FBECDBFED010895F894FFCFB0
:10175E00000000000000000000010202030303036A
:10176E000404040404040404050505050505050523
:10177E000505050505050505060606060606060603
:10178E0006060606060606060606060606060606EB
:10179E0006060606060606060707070707070707D3
:1017AE0007070707070707070707070707070707BB
:1017BE0007070707070707070707070707070707AB
:1017CE00070707070707070707070707070707079B
:1017DE000707070707070707080808080808080883
:1017EE00080808080808080808080808080808086B
:1017FE00080808080808080808080808080808085B
:10180E00080808080808080808080808080808084A
:10181E00080808080808080808080808080808083A
:10182E00080808080808080808080808080808082A
:10183E00080808080808080808080808080808081A
:10184E00080808080808080808080808080808080A
:08185E00080808080808080842
:00000001FF
