:100000000C942A000C9447000C9447000C94470071
:100010000C9447000C9447000C9447000C9459131F
:100020000C9447000C9447000C9447000C94470034
:100030000C9447000C9447000C9447000C94470024
:100040000C9447000C9447000C9447000C94470014
:100050000C94470011241FBECFE5D8E0DEBFCDBF12
:1000600010E0A0E6B0E0E6EBF4E502C005900D92EA
:10007000A637B107D9F714E0A6E7B0E001C01D929A
:10008000A433B107E1F70E948E0F0C94592A0C9407
:100090000000EF92FF920F931F937B018C0120E0F1
:1000A00030E040E05FE40E94490388238CF0C801FF
:1000B000B70120E030E040E05FE40E94C1010E940F
:1000C000A9039B01AC01205030404040504806C07D
:1000D000C801B7010E94A9039B01AC01B901CA0183
:1000E0001F910F91FF90EF900895A0E0B0E0EBE733
:1000F000F0E00C94192ADC012B01FA019C9192305A
:1001000008F439C1EB018881823008F433C194309E
:1001100069F4843009F02FC111969C91119789815F
:10012000981709F428C1A9E6B0E025C1843009F484
:1001300021C18230A9F4923009F01DC19A01AD01AC
:1001400088E0EA010990AE01E90109929E0181501F
:10015000C1F7E201898111969C918923818308C1AD
:10016000923009F407C112962D903C901397EB0141
:100170008A819B811496AD90BD90CD90DC901797AD
:10018000EC80FD800E811F819101281B390BB90184
:1001900037FF04C066277727621B730B6032710537
:1001A0000CF061C0121613066CF537014801062EDB
:1001B00004C096948794779467940A94D2F721E0C8
:1001C00030E040E050E004C0220F331F441F551FB1
:1001D0006A95D2F721503040404050402E213F21B7
:1001E00040235123211531054105510521F021E01E
:1001F00030E040E050E079018A01E628F72808293C
:1002000019293CC0232BD1F1260E371E350146019A
:10021000062E04C096948794779467940A94D2F734
:1002200021E030E040E050E004C0220F331F441FC3
:10023000551F6A95D2F721503040404050402A2146
:100240003B214C215D21211531054105510521F04E
:1002500021E030E040E050E059016A01A628B728CB
:10026000C828D9280BC0821593052CF01C01AA249C
:10027000BB24650103C0EE24FF24870111969C91E5
:10028000D20111968C91981709F445C0992339F041
:10029000A80197012A193B094C095D0906C0A6016E
:1002A00095012E193F09400B510B57FD08C01182D3
:1002B0003382228224833583468357831DC081E0A5
:1002C00081833382228288279927DC01821B930B4A
:1002D000A40BB50B84839583A683B7830DC0220F2F
:1002E000331F441F551F24833583468357838281E0
:1002F000938101979383828324813581468157813D
:10030000DA01C9010197A109B1098F5F9F4FAF4F72
:10031000BF4328F30BC0918333822282EA0CFB1C7B
:100320000C1D1D1DE482F5820683178383E0808304
:10033000248135814681578157FF1AC0C901AA27F8
:1003400097FDA095BA2F81709070A070B0705695EF
:10035000479537952795822B932BA42BB52B848318
:100360009583A683B7838281938101969383828349
:10037000DF0101C0D201CD01CDB7DEB7E2E10C94BF
:10038000352AA0E2B0E0E7ECF1E00C94252A69837D
:100390007A838B839C832D833E834F835887E9E048
:1003A000EE2EF12CEC0EFD1ECE010196B7010E943F
:1003B000D2048E010F5E1F4FCE010596B8010E9438
:1003C000D2048A8991E089278A8BC701B801AE01DE
:1003D000475E5F4F0E9475000E94FD03A096E6E015
:1003E0000C94412AA0E2B0E0E8EFF1E00C94252A59
:1003F00069837A838B839C832D833E834F835887C5
:10040000F9E0EF2EF12CEC0EFD1ECE010196B701A6
:100410000E94D2048E010F5E1F4FCE010596B801D7
:100420000E94D204C701B801AE01475E5F4F0E942F
:1004300075000E94FD03A096E6E00C94412AA0E21C
:10044000B0E0E5E2F2E00C94192A69837A838B83A9
:100450009C832D833E834F835887CE010196BE0136
:10046000675F7F4F0E94D204CE010596BE016F5E8A
:100470007F4F0E94D2049985923088F0898982301A
:10048000C8F0943019F4823051F404C0843029F457
:10049000923081F489E690E0C6C0923049F420E0C1
:1004A0009A858A89981321E02A87CE010996BBC0D4
:1004B000823049F420E09A858A89981321E02A8BBA
:1004C000CE014196B0C02D843E844F8458886D88FB
:1004D0007E888F88988CEE24FF248701AA24BB2471
:1004E000650140E050E060E070E0E0E0F0E0C10174
:1004F00081709070892BE9F0E60CF71C081D191D1E
:100500009A01AB012A0D3B1D4C1D5D1D80E090E062
:10051000A0E0B0E0E614F7040805190520F481E036
:1005200090E0A0E0B0E0BA01A901480F591F6A1F8E
:100530007B1FAA0CBB1CCC1CDD1C97FE08C081E0F5
:1005400090E0A0E0B0E0A82AB92ACA2ADB2A3196B6
:10055000E032F10549F0660C771C881C991C569412
:10056000479437942794C3CFFA85EA892B893C892D
:100570008B859C85280F391F2E5F3F4F17C0CA01FE
:1005800081709070892B61F016950795F794E79428
:1005900080E090E0A0E0B0E8E82AF92A0A2B1B2BC3
:1005A00076956795579547952F5F3F4F77FDE7CF36
:1005B0000CC0440F551F661F771F17FD4160EE0CDE
:1005C000FF1C001F111F21503040403090E05907A0
:1005D00090E0690790E4790760F32B8F3C8FDB0193
:1005E000CA018F779070A070B07080349105A1051A
:1005F000B10561F447FD0AC0E114F10401051105DC
:1006000029F0405C5F4F6F4F7F4F40781A8EFE1786
:1006100011F081E08A8F4D8F5E8F6F8F78A383E01A
:10062000898FCE0149960E94FD03A096E2E10C94C9
:10063000352AA8E1B0E0EFE1F3E00C94252A6983C4
:100640007A838B839C832D833E834F83588789E0F5
:10065000E82EF12CEC0EFD1ECE010196B7010E9492
:10066000D2048E010F5E1F4FCE010596B8010E9485
:10067000D2048985823040F08989823028F0C70110
:10068000B8010E944A0501C08FEF6896E6E00C941D
:10069000412AA8E1B0E0EFE4F3E00C94252A698355
:1006A0007A838B839C832D833E834F83588789E095
:1006B000E82EF12CEC0EFD1ECE010196B7010E9432
:1006C000D2048E010F5E1F4FCE010596B8010E9425
:1006D000D2048985823040F08989823028F0C701B0
:1006E000B8010E944A0501C08FEF6896E6E00C94BD
:1006F000412AA8E1B0E0EFE7F3E00C94252A6983F2
:100700007A838B839C832D833E834F83588789E034
:10071000E82EF12CEC0EFD1ECE010196B7010E94D1
:10072000D2048E010F5E1F4FCE010596B8010E94C4
:10073000D2048985823040F08989823028F0C7014F
:10074000B8010E944A0501C081E06896E6E00C9479
:10075000412AACE0B0E0EFEAF3E00C94292A698387
:100760007A838B839C83CE010196BE016B5F7F4FA2
:100770000E94D2048D81823061F1823050F1843048
:1007800021F48E81882351F12EC02F81388537FDC9
:1007900020C06E812F3131051CF06623F9F023C093
:1007A0008EE190E0821B930B29853A854B855C8511
:1007B00004C056954795379527958A95D2F76623B5
:1007C000B1F050954095309521953F4F4F4F5F4F79
:1007D0000EC020E030E040E050E009C02FEF3FEFD6
:1007E0004FEF5FE704C020E030E040E050E8B9019F
:1007F000CA012C96E2E00C94452ADF92EF92FF9218
:100800000F931F93FC01E480F58006811781D1804E
:100810008081823048F480E090E0A0E1B0E0E82AF6
:10082000F92A0A2B1B2BA5C0843009F49FC0823003
:1008300021F4EE24FF24870105C0E114F104010531
:10084000110519F4E0E0F0E096C0628173819FEF3A
:10085000623879070CF05BC022E83FEF261B370BAC
:100860002A3131052CF020E030E040E050E02AC091
:10087000B801A701022E04C0769567955795479554
:100880000A94D2F781E090E0A0E0B0E004C0880FC5
:10089000991FAA1FBB1F2A95D2F70197A109B10979
:1008A0008E219F21A023B1230097A105B10521F03E
:1008B00081E090E0A0E0B0E09A01AB01282B392B59
:1008C0004A2B5B2BDA01C9018F779070A070B07052
:1008D00080349105A105B10539F427FF09C0205CDA
:1008E0003F4F4F4F5F4F04C0215C3F4F4F4F5F4F13
:1008F000E0E0F0E02030A0E03A07A0E04A07A0E402
:100900005A0710F0E1E0F0E079018A0127C0603871
:10091000710564F5FB01E158FF4FD801C7018F77DE
:100920009070A070B07080349105A105B10539F4C4
:10093000E7FE0DC080E490E0A0E0B0E004C08FE3EB
:1009400090E0A0E0B0E0E80EF91E0A1F1B1F17FFA1
:1009500005C016950795F794E794319687E01695AC
:100960000795F794E7948A95D1F705C0EE24FF2404
:100970008701EFEFF0E06E2F679566276795902F60
:100980009F77D794DD24D7948E2F8695492F462BB9
:10099000582F5D29B701CA011F910F91FF90EF9069
:1009A000DF900895FC01DB01408151812281622F9B
:1009B0006F7770E0221F2227221F9381892F880FD3
:1009C000822B282F30E0991F9927991F11969C930D
:1009D000119721153105A9F54115510561057105DD
:1009E00011F482E037C082E89FEF13969C938E93B8
:1009F00012979A01AB0167E0220F331F441F551F66
:100A00006A95D1F783E08C930DC0220F331F441FEA
:100A1000551F12968D919C911397019713969C9355
:100A20008E931297203080E0380780E0480780E4FA
:100A3000580758F314962D933D934D935C93179755
:100A400008952F3F310579F4411551056105710570
:100A500019F484E08C93089564FF03C081E08C93C3
:100A600012C01C9210C02F57304013963C932E9307
:100A7000129783E08C9387E0440F551F661F771F02
:100A80008A95D1F7706414964D935D936D937C9322
:100A9000179708951F93DC01FB019C91923008F495
:100AA00047C08081823008F443C0943051F41196DD
:100AB0001C91843099F58181682F70E0611B710968
:100AC0003FC0843021F0923031F48230B9F181811D
:100AD000882389F12DC011961C9111978230F1F075
:100AE00081811817D9F412962D913C911397828128
:100AF00093818217930794F028173907BCF0149656
:100B00008D919D910D90BC91A02D248135814681C0
:100B10005781281739074A075B0718F4112341F05A
:100B20000AC082179307A407B50740F4112319F0F0
:100B300061E070E005C06FEF7FEF02C060E070E041
:100B4000CB011F910895DF93CF9300D000D00F9277
:100B5000CDB7DEB789836A834B838981282F30E044
:100B60003D832C838C819D818234910509F444C09E
:100B70002C813D812334310534F48C819D81813475
:100B8000910571F0BCC02C813D812334310509F4FD
:100B90005FC08C819D818434910509F485C0AFC00C
:100BA0008B818130A1F4AAE3B0E0EAE3F0E0808138
:100BB000482F8A81282F30E081E090E0022E02C089
:100BC000880F991F0A94E2F7842B8C9398C0AAE3AC
:100BD000B0E0EAE3F0E08081482F8A81282F30E0FE
:100BE00081E090E0022E02C0880F991F0A94E2F77C
:100BF000809584238C9383C08B818130A1F4A7E3FB
:100C0000B0E0E7E3F0E08081482F8A81282F30E0D0
:100C100081E090E0022E02C0880F991F0A94E2F74B
:100C2000842B8C936CC0A7E3B0E0E7E3F0E0808115
:100C3000482F8A81282F30E081E090E0022E02C008
:100C4000880F991F0A94E2F7809584238C9357C0EC
:100C50008B818130A1F4A4E3B0E0E4E3F0E0808193
:100C6000482F8A81282F30E081E090E0022E02C0D8
:100C7000880F991F0A94E2F7842B8C9340C0A4E359
:100C8000B0E0E4E3F0E08081482F8A81282F30E053
:100C900081E090E0022E02C0880F991F0A94E2F7CB
:100CA000809584238C932BC08B818130A1F4A1E3A8
:100CB000B0E0E1E3F0E08081482F8A81282F30E026
:100CC00081E090E0022E02C0880F991F0A94E2F79B
:100CD000842B8C9314C0A1E3B0E0E1E3F0E08081C9
:100CE000482F8A81282F30E081E090E0022E02C058
:100CF000880F991F0A94E2F7809584238C930F90B4
:100D00000F900F900F900F90CF91DF910895DF9388
:100D1000CF9300D000D00F92CDB7DEB789836A831E
:100D20004B838981282F30E03D832C838C819D81EA
:100D30008234910509F444C02C813D81233431056E
:100D400034F48C819D818134910571F0BCC02C817B
:100D50003D812334310509F45FC08C819D81843449
:100D6000910509F485C0AFC08B818130A1F4ABE35C
:100D7000B0E0EBE3F0E08081482F8A81282F30E05B
:100D800081E090E0022E02C0880F991F0A94E2F7DA
:100D9000842B8C9398C0ABE3B0E0EBE3F0E0808170
:100DA000482F8A81282F30E081E090E0022E02C097
:100DB000880F991F0A94E2F7809584238C9383C04F
:100DC0008B818130A1F4A8E3B0E0E8E3F0E080811A
:100DD000482F8A81282F30E081E090E0022E02C067
:100DE000880F991F0A94E2F7842B8C936CC0A8E3B8
:100DF000B0E0E8E3F0E08081482F8A81282F30E0DE
:100E000081E090E0022E02C0880F991F0A94E2F759
:100E1000809584238C9357C08B818130A1F4A5E306
:100E2000B0E0E5E3F0E08081482F8A81282F30E0B0
:100E300081E090E0022E02C0880F991F0A94E2F729
:100E4000842B8C9340C0A5E3B0E0E5E3F0E0808123
:100E5000482F8A81282F30E081E090E0022E02C0E6
:100E6000880F991F0A94E2F7809584238C932BC0F6
:100E70008B818130A1F4A2E3B0E0E2E3F0E0808175
:100E8000482F8A81282F30E081E090E0022E02C0B6
:100E9000880F991F0A94E2F7842B8C9314C0A2E365
:100EA000B0E0E2E3F0E08081482F8A81282F30E033
:100EB00081E090E0022E02C0880F991F0A94E2F7A9
:100EC000809584238C930F900F900F900F900F902C
:100ED000CF91DF910895DF93CF9300D000D00F9290
:100EE000CDB7DEB78A836B838A81282F30E03D83BC
:100EF0002C834C815D8142345105B1F18C819D81FF
:100F00008334910534F42C813D812134310571F015
:100F100084C04C815D814334510509F443C08C8108
:100F20009D818434910509F45BC077C0E9E3F0E06A
:100F30008081482F50E08B81282F30E081E090E0C5
:100F400002C0880F991F2A95E2F79A0128233923B6
:100F50008B81882F90E0A90102C0559547958A950D
:100F6000E2F7CA01898359C0E6E3F0E08081482FA7
:100F700050E08B81282F30E081E090E002C0880FA4
:100F8000991F2A95E2F79A01282339238B81882F0C
:100F900090E0A90102C0559547958A95E2F7CA01EC
:100FA00089833BC0E3E3F0E08081482F50E08B81F0
:100FB000282F30E081E090E002C0880F991F2A9529
:100FC000E2F79A01282339238B81882F90E0A90129
:100FD00002C0559547958A95E2F7CA0189831DC0DD
:100FE000E0E3F0E08081482F50E08B81282F30E053
:100FF00081E090E002C0880F991F2A95E2F79A01DC
:10100000282339238B81882F90E0A90102C05595B0
:1010100047958A95E2F7CA01898389810F900F90DD
:101020000F900F900F90CF91DF910895DF93CF93A2
:1010300000D000D0CDB7DEB789836A838981282F9D
:1010400030E03C832B838B819C818234910551F16C
:101050002B813C812334310534F48B819C81813494
:10106000910561F05AC02B813C812334310571F127
:101070008B819C8184349105E9F14FC0ABE3B0E0F2
:10108000EBE3F0E08081482F8A81282F30E081E077
:1010900090E0022E02C0880F991F0A94E2F784277D
:1010A0008C933BC0A8E3B0E0E8E3F0E08081482FF8
:1010B0008A81282F30E081E090E0022E02C0880F64
:1010C000991F0A94E2F784278C9327C0A5E3B0E028
:1010D000E5E3F0E08081482F8A81282F30E081E02D
:1010E00090E0022E02C0880F991F0A94E2F784272D
:1010F0008C9313C0A2E3B0E0E2E3F0E08081482FDC
:101100008A81282F30E081E090E0022E02C0880F13
:10111000991F0A94E2F784278C930F900F900F90F9
:101120000F90CF91DF910895DF93CF9300D000D03F
:10113000CDB7DEB789836A838981282F30E03C836D
:101140002B838B819C8182349105D9F02B813C814A
:101150002334310534F48B819C818134910561F015
:101160001EC02B813C812334310581F08B819C8111
:101170008434910581F013C0EBE3F0E08A81808331
:101180000EC0E8E3F0E08A81808309C0E5E3F0E087
:101190008A81808304C0E2E3F0E08A8180830F903B
:1011A0000F900F900F90CF91DF910895DF93CF9321
:1011B00000D000D0CDB7DEB789836A838981282F1C
:1011C00030E03C832B838B819C818234910509F133
:1011D0002B813C812334310534F48B819C81813413
:1011E000910561F036C02B813C8123343105E1F05B
:1011F0008B819C818434910511F12BC0ABE3B0E06D
:10120000EBE3F0E08081982F8A81807F892B8C939B
:1012100020C0A8E3B0E0E8E3F0E08081982F8A8165
:10122000807F892B8C9315C0A5E3B0E0E5E3F0E067
:101230008081982F8A81807F892B8C930AC0A2E3BA
:10124000B0E0E2E3F0E08081982F8A81807F892BF3
:101250008C930F900F900F900F90CF91DF91089586
:10126000DF93CF9300D00F92CDB7DEB7898389810A
:10127000282F30E03B832A838A819B818234910529
:10128000F1F02A813B812334310534F48A819B813A
:101290008134910561F02AC02A813B8123343105D4
:1012A000B1F08A819B8184349105C9F01FC0ABE302
:1012B000B0E0EBE3F0E080818F708C9317C0A8E37F
:1012C000B0E0E8E3F0E080818F708C930FC0A5E37D
:1012D000B0E0E5E3F0E080818F708C9307C0A2E37B
:1012E000B0E0E2E3F0E080818F708C930F900F907C
:1012F0000F90CF91DF910895DF93CF9300D0CDB7BA
:10130000DEB78BE090E00E94BC0C9A8389838981D0
:101310009A81009749F0E981FA81118210828981CE
:101320009A8102960E94580E89819A810F900F909F
:10133000CF91DF910895DF93CF93CDB7DEB760975C
:101340000FB6F894DEBF0FBECDBF9A8789877C8722
:101350006B875E874D87388B2F8789859A859C831D
:101360008B8319820E94ED1FEB81FC81808191812A
:1013700098878F8389859A852B853C85B9010E9442
:101380006D0B2F8138858B859C85282B392B8D857E
:101390009E85282339238D859E8528173907C9F412
:1013A0002F8138858B859C85822B932B9E838D8303
:1013B000EB81FC81208131818D859E858095909582
:1013C00082239323EB81FC8191838083188A1F867B
:1013D0001CC08F859889009791F08B819C81BC01FE
:1013E0006E5F7F4F8D859E859C0135604F85588946
:1013F000CB01B9010E9444221E821D8206C0EB81EE
:10140000FC81808191819E838D830E94F91F8A8354
:101410008F859889009709F43AC08A81882311F44E
:101420000E9447120E94B4259E838D838D819E81E8
:1014300080709270009731F50FB6F8940F92EB819F
:10144000FC81808191819E838D832D813E818D855C
:101450009E85282339238D859E852817390771F4A9
:10146000EB81FC81208131818D859E8580959095D1
:1014700082239323EB81FC81918380830F900FBEA5
:1014800081E089838D819E8190709E838D838D8183
:101490009E8160960FB6F894DEBF0FBECDBFCF9190
:1014A000DF9108950F931F93DF93CF93CDB7DEB7EE
:1014B00063970FB6F894DEBF0FBECDBF9D878C87B4
:1014C0007F876E87488B298B1B8B0A8B8C859D852C
:1014D0009B878A871F821E821B820E94ED1FEA85DE
:1014E000FB85808191819A83898389819A812E8568
:1014F0003F85B90149890E948A0C8D838D8188239B
:10150000C1F089819A81998788871B8A1A8A88897C
:101510008823D9F1EA85FB85208131818E859F85DD
:101520008095909582239323EA85FB859183808320
:101530002CC08A899B89009729F489819A8199878F
:10154000888723C08889882329F08E819F819160B4
:101550009F838E838989882329F08E819F8194605F
:101560009F838E838A859B85BC016E5F7F4F2E850E
:101570003F858E819F81282B392B4A895B89CB013E
:10158000B9010E944422198618860E94F91F8C8393
:101590008A899B89009709F43BC08C81882311F4C8
:1015A0000E9447120E94B42599878887888599856B
:1015B00080709270009739F50FB6F8940F92EA8513
:1015C000FB858081918199878887888599852E857B
:1015D0003F85B90149890E948A0C882389F088894E
:1015E000882371F0EA85FB85208131818E859F8576
:1015F0008095909582239323EA85FB859183808350
:101600000F900FBE1B828885998590709987888777
:101610008885998563960FB6F894DEBF0FBECDBF5F
:10162000CF91DF911F910F910895DF93CF93CDB7A5
:10163000DEB728970FB6F894DEBF0FBECDBF9E83EE
:101640008D8378876F838D819E819C838B830FB67A
:10165000F8940F92EB81FC81808191819A83898338
:10166000EB81FC81208131818F81988580959095D7
:1016700082239323EB81FC81918380830F900FBEA3
:1016800089819A8128960FB6F894DEBF0FBECDBF30
:10169000CF91DF910895DF93CF93CDB7DEB7279732
:1016A0000FB6F894DEBF0FBECDBF9F838E838E81B1
:1016B0009F819C838B831D82EB81FC818081918142
:1016C0009A83898389819A8127960FB6F894DEBF21
:1016D0000FBECDBFCF91DF910895DF93CF93CDB7EC
:1016E000DEB765970FB6F894DEBF0FBECDBF9B8BFC
:1016F0008A8B7D8B6C8B198618868A899B899B8344
:101700008A8319828A819B8102969B878A878A8530
:101710009B8503969D878C870E94ED1FEA85FB853C
:1017200085819681998B888BEA81FB81208131812B
:101730008C899D89822B932BEA81FB819183808305
:1017400059C0E889F989828193819F878E87E889CA
:10175000F989808191819F838E8319828E819F81F7
:1017600080709D838C838E819F8190709F838E83F8
:101770008C819D8180709470009769F4EA81FB816F
:10178000208131818E819F8182239323009791F064
:1017900081E089830FC0EA81FB81208131818E81C4
:1017A0009F81282339238E819F812817390711F4BF
:1017B00081E0898389818823C9F08C819D81807033
:1017C0009170009741F0888599852E813F81822B09
:1017D000932B99878887EA81FB81808191819C0185
:1017E000326088899989B9010E94DF228E859F85A0
:1017F000998B888B288939898C859D85281739078D
:1018000009F09FCFEA81FB8120813181888599850C
:101810008095909582239323EA81FB819183808335
:101820000E94F91FEA81FB818081918165960FB644
:10183000F894DEBF0FBECDBFCF91DF910895DF9347
:10184000CF9300D000D000D0CDB7DEB79E838D837C
:101850008D819E819C838B838B819C8102969A8350
:1018600089830E94ED1F08C0E981FA8185819681F4
:1018700060E072E00E94DF22E981FA8180818823A2
:1018800099F78B819C810E94A40D0E94F91F2696D6
:101890000FB6F894DEBF0FBECDBFCF91DF91089594
:1018A000DF93CF9300D000D000D0CDB7DEB79A83BE
:1018B00089834B835C836D837E832B813C8189810B
:1018C0009A81B9010E946D0B26960FB6F894DEBF7F
:1018D0000FBECDBFCF91DF910895DF93CF9300D09E
:1018E00000D000D0CDB7DEB79A8389834B835C8369
:1018F0006D837E832B813C8189819A81B9010E940D
:10190000150B26960FB6F894DEBF0FBECDBFCF9154
:10191000DF910895DF93CF9300D000D000D0CDB7F2
:10192000DEB79B838A837D836C834E8319828E818D
:10193000882359F48A819B812C813D8182239323C2
:10194000009781F081E089830DC02A813B818C81E1
:101950009D81282339238C819D812817390711F413
:1019600081E08983898126960FB6F894DEBF0FBE89
:10197000CDBFCF91DF910895DF93CF93CDB7DEB781
:101980002E970FB6F894DEBF0FBECDBF9E878D8712
:101990001E821D820E94ED1F80917600882329F40B
:1019A0000E94230E81E0809376008D859E850097AE
:1019B00051F080917300909174002D853E85820FC7
:1019C000931F9E878D878D859E85009709F4AFC0F4
:1019D0008D859E8523E08F31920708F0A8C087E9A6
:1019E00093E09A87898780919703909198039C87C9
:1019F0008B870AC08B859C859A878987EB85FC85B8
:101A0000808191819C878B87EB85FC852281338146
:101A10008D859E852817390730F4EB85FC858081FC
:101A20009181009739F78B859C8543E08B3994072A
:101A300009F47DC0E985FA852081318180917300A8
:101A400090917400820F931F9E838D83EB85FC859C
:101A500080819181E985FA8591838083EB85FC857E
:101A6000228133818D859E85281B390B80917300DF
:101A700090917400880F991F8217930708F047C050
:101A80002B853C858D859E85820F931F98878F833C
:101A9000EB85FC85228133818D859E85A901481BBC
:101AA000590BCA01EF81F88593838283EB85FC850E
:101AB0008D859E8593838283EF81F88582819381D2
:101AC0009A83898387E993E09C838B8306C0EB81AB
:101AD000FC81808191819C838B83EB81FC810190CF
:101AE000F081E02D2281338189819A81281739077D
:101AF00070F3EB81FC8180819181EF81F885918386
:101B00008083EB81FC818F819885918380832091F4
:101B1000710030917200EB85FC8582819381A9016F
:101B2000481B590BCA0190937200809371000E9468
:101B3000F91F8D819E812E960FB6F894DEBF0FBEE1
:101B4000CDBFCF91DF910895DF93CF93CDB7DEB7AF
:101B50002A970FB6F894DEBF0FBECDBF9A8789874C
:101B600089859A8598878F8389859A85009709F456
:101B70004FC0809173009091740022273327281B57
:101B8000390B8F819885820F931F98878F838F8160
:101B900098859E838D830E94ED1FED81FE81828159
:101BA00093819A83898387E993E09C838B8306C022
:101BB000EB81FC81808191819C838B83EB81FC8113
:101BC0000190F081E02D2281338189819A8128174B
:101BD000390770F3EB81FC8180819181ED81FE8179
:101BE00091838083EB81FC818D819E8191838083B1
:101BF000ED81FE812281338180917100909172008C
:101C0000820F931F90937200809371000E94F91FBE
:101C10002A960FB6F894DEBF0FBECDBFCF91DF91ED
:101C20000895DF93CF93CDB7DEB780917100909187
:101C30007200CF91DF910895DF93CF93CDB7DEB7D8
:101C4000CF91DF910895DF93CF9300D000D0CDB72F
:101C5000DEB788E790E09A83898389819A8190939F
:101C600098038093970310929A03109299038FE13F
:101C700093E090939E0380939D0310929C03109297
:101C80009B0389819A819C838B83EB81FC818FE10B
:101C900093E093838283EB81FC818BE993E09183D2
:101CA00080830F900F900F900F90CF91DF91089548
:101CB000DF93CF9300D0CDB7DEB79A838983898134
:101CC0009A810396E981FA8192838183E981FA817D
:101CD0008FEF9FEF9483838389819A810396E981B3
:101CE000FA819683858389819A810396E981FA81B5
:101CF00090878783E981FA8110820F900F90CF91AE
:101D0000DF910895DF93CF9300D0CDB7DEB79A83EC
:101D10008983E981FA81118610860F900F90CF9107
:101D2000DF910895DF93CF9300D000D000D0CDB7DE
:101D3000DEB79C838B837E836D83EB81FC81818105
:101D400092819A838983ED81FE8189819A8193832F
:101D50008283E981FA8184819581ED81FE81958379
:101D60008483E981FA810480F581E02D8D819E8153
:101D700093838283E981FA818D819E819583848317
:101D8000ED81FE818B819C8191878087EB81FC8135
:101D900080818F5FEB81FC81808326960FB6F8945B
:101DA000DEBF0FBECDBFCF91DF910895DF93CF93FC
:101DB000CDB7DEB728970FB6F894DEBF0FBECDBF04
:101DC0009E838D8378876F83EF81F88580819181F1
:101DD0009A83898389819A812FEF8F3F920739F403
:101DE000ED81FE81878190859C838B8318C08D81D6
:101DF0009E8103969C838B8306C0EB81FC8182814C
:101E000093819C838B83EB81FC810280F381E02DA5
:101E10002081318189819A818217930770F7EB8144
:101E2000FC8182819381EF81F88593838283EF81A6
:101E3000F8850280F381E02D8F81988595838483D6
:101E4000EF81F8858B819C8195838483EB81FC8174
:101E50008F81988593838283EF81F8858D819E8120
:101E600091878087ED81FE8180818F5FED81FE818A
:101E7000808328960FB6F894DEBF0FBECDBFCF91FA
:101E8000DF910895DF93CF9300D000D0CDB7DEB7B8
:101E90009C838B83EB81FC81808591859A838983E8
:101EA000EB81FC81A281B381EB81FC8184819581EE
:101EB00015969C938E931497EB81FC81A481B58138
:101EC000EB81FC818281938113969C938E93129770
:101ED000E981FA81218132818B819C812817390720
:101EE00041F4EB81FC8184819581E981FA819283BF
:101EF0008183EB81FC8111861086E981FA818081E2
:101F00008150E981FA818083E981FA8180810F9093
:101F10000F900F900F90CF91DF910895EF92FF9265
:101F20000F93DF93CF93CDB7DEB78BEB9FE020E627
:101F300030E0B90144E650E020E030E002E0EE2479
:101F4000FF240E946F1A87EF9FE022E630E0B9017C
:101F500044E650E020E030E001E0EE24FF240E945F
:101F60006F1A81E00E948E149093110480931004E4
:101F70000E94AF1FFFCFDF93CF9300D0CDB7DEB766
:101F80009A838983A1E3B0E0E1E3F0E08081806897
:101F90008C93809110049091110460E070E048EE01
:101FA00053E020E00E94031620910E0430910F04AC
:101FB00080911204909113042817390741F0A2E38D
:101FC000B0E0E2E3F0E0908180E889278C93809193
:101FD00010049091110460E070E040E050E020E0D7
:101FE0000E94AE1484E690E00E94FE1CD2CFDF93E4
:101FF000CF93CDB7DEB760970FB6F894DEBF0FBEB4
:10200000CDBF988B8F8780910E0490910F0401961D
:1020100090930F0480930E0480E090E0A8E4B3E472
:102020008B879C87AD87BE876B857C858D859E85DC
:1020300020E030E04AEF54E40E941F02DC01CB01B3
:102040008F839887A987BA876F81788589859A85D4
:1020500020E030E040E85FE30E94790388232CF41D
:1020600081E090E09E838D833FC06F817885898574
:102070009A8520E03FEF4FE757E40E9419031816B6
:102080004CF56B857C858D859E8520E030E040E2B7
:1020900051E40E941F02DC01CB01BC01CD010E9472
:1020A0004900DC01CB019E838D830FC088EC90E05A
:1020B0009C838B838B819C810197F1F79C838B831D
:1020C0008D819E8101979E838D838D819E81009756
:1020D00069F714C06F81788589859A850E944900C7
:1020E000DC01CB019E838D838D819E819A838983C0
:1020F00089819A810197F1F79A83898380911204EB
:1021000090911304019690931304809312047BCF53
:10211000DF93CF93CDB7DEB728970FB6F894DEBF25
:102120000FBECDBF9C838B837E836D8358874F8387
:10213000EB81FC8181E180838B819C8101979C8371
:102140008B83EB81FC8182E280838B819C81019770
:102150009C838B83EB81FC8183E380838B819C81D7
:1021600001979C838B838D819E819A83898389814A
:10217000EB81FC8180838B819C8101979C838B8385
:1021800089819A81892F99279A8389838981EB8113
:10219000FC8180838B819C8101979C838B83EB8165
:1021A000FC8110828B819C8101979C838B83EB81C6
:1021B000FC8180E880838B819C8101979C838B8349
:1021C000EB81FC8110828B819C8101979C838B83A6
:1021D000EB81FC8182E080838B819C8101979C83D1
:1021E0008B83EB81FC8183E080838B819C810197D1
:1021F0009C838B83EB81FC8184E080838B819C8139
:1022000001979C838B83EB81FC8185E080838B81AC
:102210009C8101979C838B83EB81FC8186E080838A
:102220008B819C8101979C838B83EB81FC8187E070
:1022300080838B819C8101979C838B83EB81FC81C4
:1022400088E080838B819C8101979C838B83EB81C9
:10225000FC8189E080838B819C8101979C838B83A7
:10226000EB81FC8180E180838B819C8101979C8341
:102270008B83EB81FC8181E180838B819C81019741
:102280009C838B83EB81FC8182E180838B819C81A9
:1022900001979C838B83EB81FC8183E180838B811D
:1022A0009C8101979C838B83EB81FC8184E18083FB
:1022B0008B819C8101979C838B83EB81FC8185E1E1
:1022C00080838B819C8101979C838B83EB81FC8134
:1022D00086E180838B819C8101979C838B83EB813A
:1022E000FC8187E180838B819C8101979C838B8318
:1022F000EB81FC8188E180838B819C8101979C83A9
:102300008B83EB81FC8189E180838B819C810197A8
:102310009C838B83EB81FC8180E280838B819C8119
:1023200001979C838B83EB81FC8181E280838B818D
:102330009C8101979C838B83EB81FC8182E280836B
:102340008B819C8101979C838B83EB81FC8183E251
:1023500080838B819C8101979C838B838F8198855F
:102360009A8389838981EB81FC8180838B819C8125
:1023700001979C838B8389819A81892F99279A83DE
:1023800089838981EB81FC8180838B819C8101978A
:102390009C838B83EB81FC8186E280838B819C8193
:1023A00001979C838B83EB81FC8187E280838B8107
:1023B0009C8101979C838B83EB81FC8188E28083E5
:1023C0008B819C8101979C838B83EB81FC8189E2CB
:1023D00080838B819C8101979C838B83EB81FC8123
:1023E00080E380838B819C8101979C838B83EB812D
:1023F000FC8181E380838B819C8101979C838B830B
:102400008B819C8128960FB6F894DEBF0FBECDBF9E
:10241000CF91DF910895DF93CF93CDB7DEB70E94C0
:10242000FD12A0919F03B091A003CD91CDBFDD918E
:10243000DEBFFF91EF91DF91CF91BF91AF919F915F
:102440008F917F916F915F914F913F912F911F914C
:102450000F91FF90EF90DF90CF90BF90AF909F9043
:102460008F907F906F905F904F903F902F901F9034
:102470000F900FBE0F90089581E0CF91DF910895E6
:10248000DF93CF93CDB7DEB7CF91DF9108950F9251
:102490000FB6F8940F921F9211242F923F924F92F1
:1024A0005F926F927F928F929F92AF92BF92CF92E4
:1024B000DF92EF92FF920F931F932F933F934F93CF
:1024C0005F936F937F938F939F93AF93BF93CF93BC
:1024D000DF93EF93FF93A0919F03B091A0030DB6FC
:1024E0000D920EB60D920E94B521A0919F03B0915E
:1024F000A003CD91CDBFDD91DEBFFF91EF91DF91C4
:10250000CF91BF91AF919F918F917F916F915F918B
:102510004F913F912F911F910F91FF90EF90DF907E
:10252000CF90BF90AF909F908F907F906F905F9073
:102530004F903F902F901F900F900FBE0F900895D7
:102540000F920FB6F8940F921F9211242F923F9280
:102550004F925F926F927F928F929F92AF92BF92B3
:10256000CF92DF92EF92FF920F931F932F933F939F
:102570004F935F936F937F938F939F93AF93BF938B
:10258000CF93DF93EF93FF93A0919F03B091A003AC
:102590000DB60D920EB60D920E94E920882311F01F
:1025A0000E94B521A0919F03B091A003CD91CDBF12
:1025B000DD91DEBFFF91EF91DF91CF91BF91AF91A0
:1025C0009F918F917F916F915F914F913F912F914B
:1025D0001F910F91FF90EF90DF90CF90BF90AF9041
:1025E0009F908F907F906F905F904F903F902F9033
:1025F0001F900F900FBE0F900895DF93CF9300D0E0
:1026000000D000D0CDB7DEB780E49FE1A0E0B0E01D
:102610008B839C83AD83BE838B819C81AD81BE8186
:10262000689415F8B695A795979587951694D1F760
:102630008B839C83AD83BE838B819C81AD81BE8166
:102640000197A109B1098B839C83AD83BE838B81E4
:1026500089838B819C81AD81BE81892F9A2FAB2F7D
:10266000BB278B839C83AD83BE838B818A83EBE402
:10267000F0E08A818083EAE4F0E0898180838BE066
:102680008983EEE4F0E089818083E9E5F0E08081F0
:102690008983898180618983E9E5F0E0898180838C
:1026A00026960FB6F894DEBF0FBECDBFCF91DF9157
:1026B00008950E94A0121895DF93CF9300D000D008
:1026C0000F92CDB7DEB79C838B836D838B819C810A
:1026D0009A8389830FB6F8940F92E981FA81408139
:1026E0005181E981FA81838D282F30E0E981FA81D7
:1026F000848D882F90E0BC01269FC001279F900DFC
:10270000369F900D1124840F951FE981FA819383E0
:102710008283E981FA81128EE981FA818081918137
:10272000E981FA8195838483E981FA81408151812D
:10273000E981FA81838D882F90E09C0121503040FF
:10274000E981FA81848D882F90E0BC01269FC00129
:10275000279F900D369F900D1124840F951FE981BE
:10276000FA8197838683E981FA818FEF858FE981EA
:10277000FA818FEF868F8D81882379F4E981FA8140
:1027800080858823A1F089819A8108960E9474220D
:10279000882369F00E9447120AC089819A810896AD
:1027A0000E94580E89819A8141960E94580E0F907E
:1027B0000FBE81E00F900F900F900F900F90CF9170
:1027C000DF9108950F931F93DF93CF93CDB7DEB7BB
:1027D00029970FB6F894DEBF0FBECDBF8F836887F1
:1027E00049878885882319F41C821B8210C08F8139
:1027F000282F30E08885882F90E0AC01249FC0010D
:10280000259F900D349F900D11249C838B838B8189
:102810009C814F960E94BC0C9E838D838D819E81EE
:10282000009781F08D819E814F969A8389832981BB
:102830003A81ED81FE818F816885A90129858F010B
:102840000E942F148D819E8129960FB6F894DEBFC9
:102850000FBECDBFCF91DF911F910F9108950F93C0
:102860001F93DF93CF93CDB7DEB727970FB6F894BA
:10287000DEBF0FBECDBF89836A835C834B832D830C
:102880001F830E838A81882339F48E819F81EE8194
:10289000FF819183808306C08B819C81EE81FF81C3
:1028A00091838083EE81FF818981838FEE81FF8117
:1028B0008A81848F8E819F8161E00E945C132796BC
:1028C0000FB6F894DEBF0FBECDBFCF91DF911F9141
:1028D0000F910895DF93CF9300D0CDB7DEB79A83E1
:1028E000898389819A810097A1F0E981FA81138215
:1028F0001282E981FA8111821082E981FA811682BD
:1029000089819A8160E070E040E050E020E00E9420
:10291000AE140F900F90CF91DF910895DF93CF9376
:1029200000D000D00F92CDB7DEB78D8381E08A83CF
:1029300019828A8169814D810E94E2139C838B8375
:102940008B819C810E946A148B819C810F900F90D7
:102950000F900F900F90CF91DF910895DF93CF9359
:10296000CDB7DEB72F970FB6F894DEBF0FBECDBF41
:10297000998788877B876A875D874C872E871C822B
:10298000888599859A8389830FB6F8940F92E98197
:10299000FA81928DE981FA81838D981718F08E85DE
:1029A000823011F589819A812A853B85B9014E854E
:1029B0000E94E6178B83E981FA818189882351F08F
:1029C00089819A8141960E947422882341F00E9455
:1029D000471205C08B81882311F00E9447120F9087
:1029E0000FBE81E08F875CC08C859D85009721F4A8
:1029F0000F900FBE1F8654C08C81882331F4CE0106
:102A000005960E94442381E08C830F900FBE0E94A4
:102A1000ED1F0FB6F8940F92E981FA81858D8F3FF3
:102A200019F4E981FA81158EE981FA81868D8F3F4B
:102A300019F4E981FA81168E0F900FBECE0105962A
:102A40009E01245F3F4FB9010E945D23882309F551
:102A500089819A810E946D198823A1F089819A81C8
:102A600008962C853D85B9010E94222289819A8190
:102A70000E94E5180E94F91F882309F085CF0E9463
:102A8000471282CF89819A810E94E5180E94F91F1E
:102A90007BCF89819A810E94E5180E94F91F1F86C9
:102AA0008F852F960FB6F894DEBF0FBECDBFCF91A6
:102AB000DF910895DF93CF93CDB7DEB72C970FB694
:102AC000F894DEBF0FBECDBF9F838E837987688762
:102AD0005B874A872C878E819F819B838A831C8298
:102AE000EA81FB81928DEA81FB81838D981718F032
:102AF0008C85823061F5EA81FB81868D89838A81AC
:102B00009B8128853985B9014C850E94E61789810A
:102B10008F3FA9F4EA81FB8181898823A9F08A810A
:102B20009B8141960E947422882371F08A859B853F
:102B3000009751F0EA85FB8581E0808305C089819B
:102B40008F5FEA81FB81868F81E08D8301C01D82CA
:102B50008D812C960FB6F894DEBF0FBECDBFCF91FE
:102B6000DF910895DF93CF93CDB7DEB72A970FB6E5
:102B7000F894DEBF0FBECDBF98878F837A876987B1
:102B80008F8198859C838B831D82EB81FC81828D54
:102B90008A83EB81FC81938D8A81891748F5EB81CB
:102BA000FC81868D89838A818F5FEB81FC81828F96
:102BB00089818F3FA9F4EB81FC8181898823A9F069
:102BC0008B819C8141960E947422882371F08985B3
:102BD0009A85009751F0E985FA8581E0808305C0E8
:102BE00089818F5FEB81FC81868F81E08E8301C0BC
:102BF0001E828E812A960FB6F894DEBF0FBECDBF1F
:102C0000CF91DF910895DF93CF93CDB7DEB7619772
:102C10000FB6F894DEBF0FBECDBF9B878A877D8736
:102C20006C875F874E87288B1E828A859B859B8356
:102C30008A830FB6F8940F92EA81FB81828D898393
:102C40008981882309F449C0EA81FB8186819781C3
:102C50009D838C838A819B812C853D85B9010E944F
:102C60009E188889882301F589818150EA81FB813A
:102C7000828FEA81FB8180819181009731F40E94EB
:102C8000DB25EA81FB8193838283EA81FB81808556
:102C90008823F1F08A819B8108960E947422882300
:102CA000B9F00E94471214C0EA81FB818C819D819A
:102CB00097838683EA81FB818189882349F08A8111
:102CC0009B8141960E947422882311F00E94471232
:102CD0000F900FBE81E0898B74C08E859F85009711
:102CE00021F40F900FBE198A6CC08E81882331F4B5
:102CF000CE0107960E94442381E08E830F900FBE81
:102D00000E94ED1F0FB6F8940F92EA81FB81858D2A
:102D10008F3F19F4EA81FB81158EEA81FB81868D54
:102D20008F3F19F4EA81FB81168E0F900FBECE0102
:102D300007969E01225F3F4FB9010E945D238823C1
:102D400091F58A819B810E943819882329F1EA81B3
:102D5000FB8180819181009759F40FB6F8940F920E
:102D6000EA81FB81828193810E94B7240F900FBE7C
:102D70008A819B8141962E853F85B9010E9422223E
:102D80008A819B810E94E5180E94F91F882309F01F
:102D900050CF0E9447124DCF8A819B810E94E51837
:102DA0000E94F91F46CF8A819B810E94E5180E94EC
:102DB000F91F8A819B810E943819882309F439CF31
:102DC000198A898961960FB6F894DEBF0FBECDBF10
:102DD000CF91DF910895DF93CF93CDB7DEB72C97D6
:102DE0000FB6F894DEBF0FBECDBF98878F837A876A
:102DF00069875C874B878F8198859C838B831D8235
:102E0000EB81FC81828D8A838A81882381F1EB8129
:102E1000FC81858D89838B819C8129853A85B901C7
:102E20000E949E188A818150EB81FC81828F89816A
:102E30008F3FA9F4EB81FC8180858823A9F08B81E9
:102E40009C8108960E947422882371F08B859C8552
:102E5000009751F0EB85FC8581E0808305C0898176
:102E60008F5FEB81FC81858F81E08E8301C01E82A4
:102E70008E812C960FB6F894DEBF0FBECDBFCF91DA
:102E8000DF910895DF93CF93CDB7DEB72A970FB6C2
:102E9000F894DEBF0FBECDBF98878F837A8769878E
:102EA0008F8198859A8389831D82E981FA81828D39
:102EB0008823B1F0E981FA81868197819C838B8395
:102EC00089819A8129853A85B9010E949E18E981F4
:102ED000FA818B819C819783868381E08E8301C0F8
:102EE0001E828E812A960FB6F894DEBF0FBECDBF2C
:102EF000CF91DF910895DF93CF9300D00F92CDB79C
:102F0000DEB79B838A830FB6F8940F92EA81FB8128
:102F1000828D89830F900FBE89810F900F900F9043
:102F2000CF91DF910895DF93CF9300D000D00F921F
:102F3000CDB7DEB79D838C838C819D819A838983F5
:102F40000FB6F8940F92E981FA81938DE981FA81A5
:102F5000828D292F281B822F8B830F900FBE8B8190
:102F60000F900F900F900F900F90CF91DF910895D9
:102F7000DF93CF9300D00F92CDB7DEB79B838A83C8
:102F8000EA81FB81828D898389810F900F900F9058
:102F9000CF91DF910895DF93CF9300D000D0CDB7CC
:102FA000DEB79C838B838B819C819A838983898103
:102FB0009A810E942D1A89819A810E94A40D0F90F6
:102FC0000F900F900F90CF91DF910895DF93CF93E3
:102FD000CDB7DEB727970FB6F894DEBF0FBECDBFD3
:102FE0009C838B837E836D834F831A82EB81FC816C
:102FF000828D8983EB81FC81848D882399F4EB8118
:10300000FC8180819181009709F089C0EB81FC816E
:10301000828193810E9442258A83EB81FC81138205
:1030200012827DC08F81882399F5EB81FC816481B8
:103030007581EB81FC81848D482F50E02D813E818C
:10304000CB01B9010E94502AEB81FC81248135819A
:10305000EB81FC81848D882F90E0820F931FEB81A0
:10306000FC8195838483EB81FC8124813581EB8114
:10307000FC81828193812817390708F450C0EB81C5
:10308000FC8180819181EB81FC819583848347C0A1
:10309000EB81FC8166817781EB81FC81848D482FF7
:1030A00050E02D813E81CB01B9010E94502AEB8175
:1030B000FC8126813781EB81FC81848D882F90E013
:1030C000909581959F4F820F931FEB81FC81978391
:1030D0008683EB81FC8126813781EB81FC818081B5
:1030E00091812817390790F4EB81FC81228133818B
:1030F000EB81FC81848D882F90E0909581959F4F86
:10310000820F931FEB81FC81978386838F818230AE
:1031100031F48981882319F08981815089838981DB
:103120008F5FEB81FC81828F8A8127960FB6F8949E
:10313000DEBF0FBECDBFCF91DF910895DF93CF9358
:1031400000D000D0CDB7DEB79A8389837C836B83B0
:10315000E981FA81848D882389F1E981FA812681C8
:103160003781E981FA81848D882F90E0820F931F47
:10317000E981FA8197838683E981FA812681378103
:10318000E981FA81828193812817390740F0E9812A
:10319000FA8180819181E981FA8197838683E9812F
:1031A000FA8146815781E981FA81848D282F30E0A8
:1031B0008B819C81BA01A9010E94502A0F900F9027
:1031C0000F900F90CF91DF910895DF93CF9300D0B0
:1031D00000D0CDB7DEB79C838B830FB6F8940F92E7
:1031E000EB81FC81868D8A8311C0EB81FC81818912
:1031F000882379F08B819C8141960E9474228823D8
:1032000011F00E94CA238A8181508A838A8118160C
:1032100064F3EB81FC818FEF868F0F900FBE0FB6AA
:10322000F8940F92EB81FC81858D898311C0EB812D
:10323000FC818085882379F08B819C8108960E948F
:103240007422882311F00E94CA23898181508983C6
:103250008981181664F3EB81FC818FEF858F0F90C5
:103260000FBE0F900F900F900F90CF91DF910895A8
:10327000DF93CF9300D00F92CDB7DEB79B838A83C5
:103280000FB6F8940F92EA81FB81828D882319F49E
:1032900081E0898301C019820F900FBE89810F9050
:1032A0000F900F90CF91DF910895DF93CF9300D0CF
:1032B0000F92CDB7DEB79B838A83EA81FB81828D33
:1032C000882319F481E0898301C0198289810F90D4
:1032D0000F900F90CF91DF910895DF93CF9300D09F
:1032E0000F92CDB7DEB79B838A830FB6F8940F9207
:1032F000EA81FB81928DEA81FB81838D981719F415
:1033000081E0898301C019820F900FBE89810F90DF
:103310000F900F90CF91DF910895DF93CF9300D05E
:103320000F92CDB7DEB79B838A83EA81FB81928DB2
:10333000EA81FB81838D981719F481E0898301C0AC
:10334000198289810F900F900F90CF91DF9108958E
:10335000DF93CF9300D000D00F92CDB7DEB79B8321
:103360008A837D836C8319822FC08981882F90E0A6
:10337000880F991F880F991FFC01EC5EFB4F80811D
:1033800091810097F1F48981882F90E0880F991F2F
:10339000880F991FFC01EC5EFB4F8C819D8191830E
:1033A00080838981882F90E0880F991F0196880F6C
:1033B000991FFC01EC5EFB4F8A819B819183808386
:1033C00006C089818F5F89838981883070F20F9070
:1033D0000F900F900F900F90CF91DF910895DF9392
:1033E000CF9300D000D00F92CDB7DEB79D838C83F2
:1033F0001A8219821B8224C08B81882F90E0880F4B
:10340000991F0196880F991FFC01EC5EFB4F2081EC
:1034100031818C819D812817390779F48B81882F20
:1034200090E0880F991F880F991FFC01EC5EFB4FFD
:10343000808191819A83898306C08B818F5F8B8382
:103440008B818830C8F289819A810F900F900F90FC
:103450000F900F90CF91DF910895DF93CF9300D01D
:103460000F92CDB7DEB79B838A8319822FC08981E3
:10347000882F90E0880F991F0196880F991FFC01F3
:10348000EC5EFB4F208131818A819B8128173907AF
:10349000D1F48981882F90E0880F991F880F991F98
:1034A000FC01EC5EFB4F118210828981882F90E035
:1034B000880F991F0196880F991FFC01EC5EFB4F46
:1034C0001182108206C089818F5F8983898188304B
:1034D00070F20F900F900F90CF91DF9108958F921F
:1034E0009F92AF92BF92CF92DF92EF92FF920F9393
:1034F0001F93DF93CF93CDB7DEB760970FB6F894E5
:10350000DEBF0FBECDBF9F838E83798768875B87C1
:103510004A873D872C870E87F88AEF868A859B85A8
:103520000E94BC0C9A83898389819A810097B1F0AB
:103530008AE290E00E94BC0C9D838C838C819D81EB
:10354000009739F0EC81FD8189819A81908F878B7A
:1035500007C089819A810E94A40D02C01D821C822D
:103560008C819D810097E9F08A859B859C0140E0D4
:1035700050E08E819F8168857985EC85FD85AF85DA
:10358000B889AC80BD808F01EE846D0188249924B8
:103590000E94E71A8C819D810E94A21B81E08B838F
:1035A00002C08FEF8B838B8160960FB6F894DEBFDD
:1035B0000FBECDBFCF91DF911F910F91FF90EF9084
:1035C000DF90CF90BF90AF909F908F9008958F9293
:1035D0009F92AF92BF92CF92DF92EF920F931F9381
:1035E000DF93CF93CDB7DEB764970FB6F894DEBF05
:1035F0000FBECDBF9D838C837F836E8328873987E1
:103600004A875B871D870C87EE86D88ACF86BA8A61
:10361000A98A9C8A8B8AE989FA892789308D8885CD
:1036200099850197820F931F9B838A83198221C0FA
:103630008981482F50E08981282F30E08E819F8139
:10364000FC01E20FF31F208189899A89840F951F5D
:10365000FC01799620838981282F30E08E819F811B
:10366000FC01E20FF31F8081882331F089818F5F95
:10367000898389818A30E0F2E989FA8912A28E85EC
:10368000853010F084E08E87E989FA898E85868BF3
:10369000E989FA898E8583A3E989FA8914A289893F
:1036A0009A8902960E94820E89899A890C960E94B4
:1036B000820EE989FA8989899A89918780878E851E
:1036C000282F30E085E090E0821B930BE989FA898E
:1036D00095878487E989FA8989899A89938B828B6E
:1036E000E989FA8915A216A217A210A6E989FA8912
:1036F00011A68A819B812C813D814C855D85B90114
:103700000E948810E989FA89918380838F8598893E
:10371000009731F0EF85F88989899A8991838083B0
:1037200064960FB6F894DEBF0FBECDBFCF91DF9188
:103730001F910F91EF90DF90CF90BF90AF909F902F
:103740008F900895DF93CF9300D0CDB7DEB79A83E3
:1037500089830FB6F8940F928091A2038F5F8093B4
:10376000A20380919F039091A003009769F489813F
:103770009A819093A00380939F038091A20381304C
:10378000B9F40E94E42314C08091A603882381F435
:10379000E0919F03F091A0039689E981FA818689DF
:1037A000891730F089819A819093A00380939F03B9
:1037B0008091AA038F5F8093AA03E981FA81968999
:1037C0008091A503891728F4E981FA81868980937D
:1037D000A503E981FA818689282F30E0C901880F85
:1037E000991F880F991F880F991F820F931FAC0193
:1037F00040555C4F89819A819C012E5F3F4FCA01E1
:10380000B9010E94920E0F900FBE8091A6038823EB
:1038100061F0E0919F03F091A0039689E981FA811C
:103820008689981710F40E9447120F900F90CF913D
:10383000DF910895DF93CF9300D000D000D0CDB7B3
:10384000DEB79C838B830FB6F8940F928B819C819B
:10385000009739F480919F039091A0039E838D83FC
:1038600004C08B819C819E838D838D819E819A83F0
:10387000898389819A8102960E94420FE981FA81A7
:1038800084899589009729F089819A810C960E94F4
:10389000420F8091AA038F5F8093AA0320919F0318
:1038A0003091A00389819A818217930781F48981DD
:1038B0009A819C012E5F3F4F8CEF93E0B9010E94EB
:1038C000920E8091A1038F5F8093A1030BC0809122
:1038D000A20381508093A20389819A810E9464246B
:1038E0000E947A240F900FBE8091A603882359F07E
:1038F00020919F033091A00389819A8182179307B9
:1039000011F40E94471226960FB6F894DEBF0FBE40
:10391000CDBFCF91DF910895DF93CF93CDB7DEB7C1
:103920002A970FB6F894DEBF0FBECDBF98878F835E
:103930007A8769871B820E94ED1F8091A303909173
:10394000A4039A838983EF81F88520813181898559
:103950009A85820F931F9E838D83EF81F885208146
:10396000318189819A818217930798F4EF81F885D4
:10397000208131818D819E8182179307E0F42D8112
:103980003E8189819A8182179307A8F481E08B8315
:1039900012C0EF81F885208131818D819E8182174F
:1039A000930738F02D813E8189819A818217930790
:1039B00010F481E08B83EF81F8858D819E81918366
:1039C00080838B81882349F08D819E8129813A8172
:1039D000821B930B60E00E949D290E94F91F8C833B
:1039E0008C81882311F40E9447122A960FB6F8940E
:1039F000DEBF0FBECDBFCF91DF910895DF93CF9390
:103A000000D00F92CDB7DEB79B838A8319828A815B
:103A10009B81009751F00E94ED1F8A819B8160E09D
:103A20000E949D290E94F91F89838981882311F4AE
:103A30000E9447120F900F900F90CF91DF91089541
:103A4000DF93CF93CDB7DEB727970FB6F894DEBFDD
:103A50000FBECDBF9D838C830FB6F8940F928C81DF
:103A60009D81009739F480919F039091A0039F83DB
:103A70008E8304C08C819D819F838E838E819F81E4
:103A80009B838A83EA81FB81868989830F900FBE9D
:103A9000898127960FB6F894DEBF0FBECDBFCF91B8
:103AA000DF910895DF93CF93CDB7DEB728970FB698
:103AB000F894DEBF0FBECDBF9E838D8319828D81AA
:103AC0009E81009739F480919F039091A00398877D
:103AD0008F8304C08D819E8198878F838F81988585
:103AE0009C838B83EB81FC8186898A838A812896DB
:103AF0000FB6F894DEBF0FBECDBFCF91DF91089512
:103B0000DF93CF93CDB7DEB72A970FB6F894DEBF19
:103B10000FBECDBF9F838E836887198288858530CD
:103B200010F084E088870FB6F8940F928E819F8101
:103B3000009739F480919F039091A0039A87898719
:103B400004C08E819F819A87898789859A859D8304
:103B50008C83EC81FD8183A18B839B818885981761
:103B600009F48DC098858B818917A0F420919F035B
:103B70003091A0038C819D8182179307B1F0E09171
:103B80009F03F091A00396898885891770F081E0E2
:103B900089830BC020919F033091A0038C819D816C
:103BA0008217930711F481E08983EC81FD81868976
:103BB0008A83EC81FD8193A1EC81FD818689981730
:103BC00021F4EC81FD818885868BEC81FD818885DF
:103BD00083A3EC81FD818485958599235CF088859C
:103BE000282F30E085E090E0821B930BEC81FD8173
:103BF00095878487EC81FD81428553858A81282FB2
:103C000030E0C901880F991F880F991F880F991FED
:103C1000820F931F80559C4F4817590759F58C8187
:103C20009D8102960E94420FEC81FD8196898091D0
:103C3000A503891728F4EC81FD8186898093A5036B
:103C4000EC81FD818689282F30E0C901880F991FFA
:103C5000880F991F880F991F820F931FAC01405541
:103C60005C4F8C819D819C012E5F3F4FCA01B90141
:103C70000E94920E8981882311F00E9447120F90B2
:103C80000FBE2A960FB6F894DEBF0FBECDBFCF9100
:103C9000DF910895DF93CF9300D000D000D0CDB74F
:103CA000DEB79C838B830FB6F8940F928B819C8137
:103CB000009739F480919F039091A0039E838D8398
:103CC00004C08B819C819E838D838D819E819A838C
:103CD000898389819A8102960E94420FE981FA8143
:103CE00084899589009729F089819A810C960E9490
:103CF000420F89819A819C012E5F3F4F85E094E0BD
:103D0000B9010E94920E0F900FBE8091A6038823E6
:103D100039F00FB6F8940F920E947A240F900FBEDC
:103D200020919F033091A00389819A818217930784
:103D3000A1F48091A603882319F00E9447120DC0B8
:103D4000909105048091A203981729F41092A00382
:103D500010929F0302C00E94B52126960FB6F894D8
:103D6000DEBF0FBECDBFCF91DF910895DF93CF931C
:103D700000D000D00F92CDB7DEB79D838C831B821D
:103D80008C819D819A838983E981FA8182859385DB
:103D900024E08530920781F4E981FA81848995894C
:103DA00023E0833F920741F0E981FA818489958974
:103DB000009711F481E08B838B810F900F900F900F
:103DC0000F900F90CF91DF910895DF93CF9300D0A4
:103DD00000D0CDB7DEB79C838B838B819C819A8387
:103DE000898389819A81009709F44CC020919F03AF
:103DF0003091A00389819A818217930709F442C008
:103E00000FB6F8940F9289819A810E94B61E88237A
:103E1000B9F189819A8102960E94420FE981FA8163
:103E200096898091A503891728F4E981FA8186890A
:103E30008093A503E981FA818689282F30E0C901A2
:103E4000880F991F880F991F880F991F820F931F42
:103E5000AC0140555C4F89819A819C012E5F3F4F98
:103E6000CA01B9010E94920EE981FA819689E09116
:103E70009F03F091A0038689981710F00E944712C3
:103E80000F900FBE0F900F900F900F90CF91DF917A
:103E90000895DF93CF9300D000D000D0CDB7DEB728
:103EA0009E838D831C828D819E819B838A83198250
:103EB0008A819B810E94B61E882309F446C08091A6
:103EC000AF038823C1F5EA81FB819689E0919F03C6
:103ED000F091A0038689981710F081E08C838A8185
:103EE0009B8102960E94420FEA81FB819689809114
:103EF000A503891728F4EA81FB8186898093A503AD
:103F0000EA81FB818689282F30E0C901880F991F3B
:103F1000880F991F880F991F820F931FAC0140557E
:103F20005C4F8A819B819C012E5F3F4FCA01B90182
:103F30000E94920E0AC08A819B819C01245F3F4FA0
:103F400083EF93E0B9010E94920E8C8126960FB602
:103F5000F894DEBF0FBECDBFCF91DF910895EF92F1
:103F6000FF920F93DF93CF930F92CDB7DEB784ED1F
:103F700093E224E630E0EDEAF3E0B90148EC50E0EA
:103F800020E030E000E07F010E946F1A8983898180
:103F9000813081F4F8948FEF9FEF9093AC0380937E
:103FA000AB0381E08093A6031092A4031092A303B5
:103FB0000E940B120F90CF91DF910F91FF90EF9025
:103FC0000895DF93CF93CDB7DEB7F8941092A60390
:103FD0000E944012CF91DF910895DF93CF93CDB728
:103FE000DEB78091AF038F5F8093AF03CF91DF91F6
:103FF0000895DF93CF9300D000D0CDB7DEB71C82F9
:104000001B821A820FB6F8940F928091AF038150F1
:104010008093AF038091AF03882309F073C0809130
:10402000A203882309F46EC045C0E091F803F09123
:10403000F903868197819C838B838B819C810C966D
:104040000E94420F8B819C8102960E94420FEB815D
:10405000FC8196898091A503891728F4EB81FC8166
:1040600086898093A503EB81FC818689282F30E027
:10407000C901880F991F880F991F880F991F820FF8
:10408000931FAC0140555C4F8B819C819C012E5F3E
:104090003F4FCA01B9010E94920EEB81FC819689C3
:1040A000E0919F03F091A0038689981718F081E0B2
:1040B0008093A8038091F303882309F0B6CF8B8106
:1040C0009C81009711F00E947A248091A703898334
:1040D0008981882379F00E94E920882319F081E002
:1040E0008093A8038981815089838981882399F7E6
:1040F0001092A7038091A803882321F081E08A838E
:104100000E9447120F900FBE8A810F900F900F9060
:104110000F90CF91DF910895DF93CF9300D0CDB76B
:10412000DEB70FB6F8940F928091A3039091A40389
:104130009A8389830F900FBE89819A810F900F9087
:10414000CF91DF910895DF93CF9300D00F92CDB739
:10415000DEB719828091A3039091A4039B838A8385
:104160008A819B810F900F900F90CF91DF910895DE
:10417000DF93CF93CDB7DEB78091A203CF91DF91CC
:104180000895DF93CF9300D000D000D0CDB7DEB735
:104190009C838B838B819C81009739F480919F0352
:1041A0009091A0039E838D8304C08B819C819E830C
:1041B0008D838D819E819A83898389819A81499695
:1041C00026960FB6F894DEBF0FBECDBFCF91DF911C
:1041D0000895DF93CF93CDB7DEB729970FB6F89444
:1041E000DEBF0FBECDBF1D828091AF03882309F0D3
:1041F000A7C08091A3039091A40301969C838B8315
:104200008B819C819093A4038093A3038B819C81D9
:104210000097D9F48091EF039091F0039A838983FA
:104220008091F1039091F2039093F0038093EF0358
:1042300089819A819093F2038093F1038091A9037D
:104240008F5F8093A9030E947A242091AB03309161
:10425000AC038B819C818217930708F476C0E091B0
:10426000EF03F091F0038081882339F48FEF9FEF03
:104270009093AC038093AB0368C0E091EF03F0919F
:10428000F0030580F681E02D8681978199878887E4
:10429000E885F985828193819F838E832B813C8180
:1042A0008E819F812817390738F48E819F819093E2
:1042B000AC038093AB0349C08885998502960E9420
:1042C000420FE885F98584899589009729F08885CA
:1042D00099850C960E94420FE885F9859689809110
:1042E000A503891728F4E885F98586898093A503B5
:1042F000E885F9858689282F30E0C901880F991F44
:10430000880F991F880F991F820F931FAC0140558A
:104310005C4F888599859C012E5F3F4FCA01B9018A
:104320000E94920EE885F9859689E0919F03F091AD
:10433000A0038689981708F492CF81E08D838FCFF0
:104340008091A7038F5F8093A7038091A8038823A0
:1043500011F081E08D838D8129960FB6F894DEBF30
:104360000FBECDBFCF91DF910895DF93CF9300D0E3
:104370000F92CDB7DEB78091AF03882321F081E0A3
:104380008093A80359C01092A8038091A5038B8342
:1043900003C08B8181508B838B81282F30E0C90132
:1043A000880F991F880F991F880F991F820F931FDD
:1043B000FC01E055FC4F8081882359F38B81282F25
:1043C00030E0C901880F991F880F991F880F991F26
:1043D000820F931F80559C4F9A838983E981FA81CC
:1043E0000180F281E02D82819381E981FA819283BB
:1043F0008183E981FA812181328189819A810396C1
:104400002817390759F4E981FA810180F281E02DFA
:1044100082819381E981FA8192838183E981FA81A2
:104420000180F281E02D868197819093A003809393
:104430009F038B818093A5030F900F900F90CF91D6
:10444000DF910895DF93CF9300D000D0CDB7DEB7D2
:104450009A8389837C836B8380919F039091A003CF
:104460009C01245F3F4F89819A81B9010E94D60E39
:104470008B819C8161E00E949D290F900F900F908D
:104480000F90CF91DF910895DF93CF9300D000D0AC
:1044900000D0CDB7DEB79A8389837C836B835E833C
:1044A0004D83E0919F03F091A0038B819C819068E4
:1044B0009587848780919F039091A0039C01245F3E
:1044C0003F4F89819A81B9010E94920E8D819E8110
:1044D00061E00E949D2926960FB6F894DEBF0FBEBC
:1044E000CDBFCF91DF910895DF93CF9300D000D05F
:1044F0000F92CDB7DEB79D838C83EC81FD81058063
:10450000F681E02D868197819B838A838A819B81B6
:104510000C960E94420F8091AF03882361F58A8137
:104520009B8102960E94420FEA81FB8196898091CD
:10453000A503891728F4EA81FB8186898093A50366
:10454000EA81FB818689282F30E0C901880F991FF5
:10455000880F991F880F991F820F931FAC01405538
:104560005C4F8A819B819C012E5F3F4FCA01B9013C
:104570000E94920E0AC08A819B819C01245F3F4F5A
:1045800083EF93E0B9010E94920EEA81FB81968944
:10459000E0919F03F091A0038689891730F481E0B0
:1045A000898381E08093A80301C0198289810F90DB
:1045B0000F900F900F900F90CF91DF910895DF93A0
:1045C000CF93CDB7DEB727970FB6F894DEBF0FBEF7
:1045D000CDBF9D838C837F836E838E819F81906806
:1045E000EC81FD8191838083EC81FD8186819781BF
:1045F0009B838A838C819D810E94420F8A819B814B
:1046000002960E94420FEA81FB8196898091A50360
:10461000891728F4EA81FB8186898093A503EA81C2
:10462000FB818689282F30E0C901880F991F880FE8
:10463000991F880F991F820F931FAC0140555C4F43
:104640008A819B819C012E5F3F4FCA01B9010E9464
:10465000920EEA81FB819689E0919F03F091A0037D
:104660008689891730F481E0898381E08093A803EB
:1046700001C01982898127960FB6F894DEBF0FBE5C
:10468000CDBFCF91DF910895DF93CF9300D0CDB709
:10469000DEB79A8389838091A903E981FA818083B7
:1046A0008091A3039091A403E981FA81928381838D
:1046B0000F900F90CF91DF910895DF93CF93CDB7F7
:1046C000DEB727970FB6F894DEBF0FBECDBF9D8330
:1046D0008C837F836E830FB6F8940F928091A3032F
:1046E0009091A4039A838983EE81FF8180819181D7
:1046F0002FEF8F3F920711F41B8240C0EC81FD81A8
:1047000090818091A903981761F0EC81FD8121814E
:10471000328189819A818217930718F081E08B8317
:104720002DC0EC81FD812181328189819A81AC018A
:10473000421B530B9A01EE81FF81808191812817E2
:104740003907D0F4EE81FF8140815181EC81FD81F8
:104750002181328189819A81B901681B790BCB0152
:10476000840F951FEE81FF81918380838C819D81D1
:104770000E9444231B8202C081E08B830F900FBEF6
:104780008B8127960FB6F894DEBF0FBECDBFCF91B9
:10479000DF910895DF93CF93CDB7DEB781E08093AB
:1047A000A803CF91DF910895DF93CF9300D0CDB7C9
:1047B000DEB79A8389830E9425248091B0038230DA
:1047C000D0F30E944712F7CFDF93CF930F92CDB76C
:1047D000DEB7198213C08981282F30E0C901880F04
:1047E000991F880F991F880F991F820F931F80555B
:1047F0009C4F0E94580E89818F5F89838981853003
:1048000050F38DED93E00E94580E86EE93E00E94E7
:10481000580E83EF93E00E94580E8CEF93E00E94B5
:10482000580E85E094E00E94580E8DED93E0909331
:10483000F0038093EF0386EE93E09093F20380936E
:10484000F1030F90CF91DF910895DF93CF9300D0C4
:104850000F92CDB7DEB72EC00E94ED1F8091FC03F2
:104860001B82882311F481E08B830E94F91F8B81C6
:10487000882301F50FB6F8940F92E0910104F091AE
:104880000204868197819A83898389819A8102961D
:104890000E94420F8091A20381508093A2038091D5
:1048A000A10381508093A1030F900FBE89819A814B
:1048B0000E9464248091A103882371F60F900F90C9
:1048C0000F90CF91DF910895DF93CF9300D0CDB7B4
:1048D000DEB79A838983E981FA818789908D0E9466
:1048E000A40D89819A810E94A40D0F900F90CF9101
:1048F000DF910895DF93CF9300D0CDB7DEB7E0917D
:10490000EF03F091F0038081882339F48FEF9FEF5C
:104910009093AC038093AB0313C0E091EF03F0914D
:10492000F0030580F681E02D868197819A83898343
:10493000E981FA81828193819093AC038093AB03E8
:104940000F900F90CF91DF910895DF93CF9300D018
:10495000CDB7DEB780919F039091A0039A8389839E
:1049600089819A810F900F90CF91DF910895DF9305
:10497000CF9300D000D0CDB7DEB79C838B838B81E3
:104980009C819A8389838B819C81009709F473C0F1
:10499000E981FA819689E0919F03F091A0038689CD
:1049A000981708F068C0E981FA8184859585992374
:1049B0007CF0E0919F03F091A0038689282F30E0DE
:1049C00085E090E0821B930BE981FA8195878487CB
:1049D000E981FA8142855385E981FA818689282F08
:1049E00030E0C901880F991F880F991F880F991F00
:1049F000820F931F80559C4F48175907A1F5898155
:104A00009A8102960E94420FE0919F03F091A003C9
:104A10008689E981FA81868BE981FA81968980917C
:104A2000A503891728F4E981FA8186898093A50373
:104A3000E981FA818689282F30E0C901880F991F02
:104A4000880F991F880F991F820F931FAC01405543
:104A50005C4F89819A819C012E5F3F4FCA01B90149
:104A60000E94920E08C0E0919F03F091A0038689F6
:104A7000E981FA81868B0F900F900F900F90CF9164
:104A8000DF910895DF93CF9300D000D00F92CDB780
:104A9000DEB79D838C838C819D819B838A83198261
:104AA0008C819D81009709F456C0EA81FB8184A125
:104AB0008150EA81FB8184A3EA81FB819689EA81A6
:104AC000FB8183A1981709F446C0EA81FB8184A188
:104AD000882309F040C08A819B8102960E94420F80
:104AE000EA81FB8183A1EA81FB81868BEA81FB81DC
:104AF0008689282F30E085E090E0821B930BEA81C5
:104B0000FB8195878487EA81FB8196898091A50343
:104B1000891728F4EA81FB8186898093A503EA81BD
:104B2000FB818689282F30E0C901880F991F880FE3
:104B3000991F880F991F820F931FAC0140555C4F3E
:104B40008A819B819C012E5F3F4FCA01B9010E945F
:104B5000920E81E0898389810F900F900F900F90C2
:104B60000F90CF91DF910895DF93CF9300D0CDB711
:104B7000DEB7E0919F03F091A003848595859A8329
:104B80008983A0919F03B091A003E0919F03F091CE
:104B9000A0038689282F30E085E090E0821B930BEC
:104BA0001D969C938E931C9789819A810F900F90EC
:104BB000CF91DF910895DF93CF93CDB7DEB780918A
:104BC0009F039091A003009739F0E0919F03F0912B
:104BD000A00384A18F5F84A380919F039091A00381
:104BE000CF91DF910895DF93CF93CDB7DEB72797AD
:104BF0000FB6F894DEBF0FBECDBF8D837F836E836B
:104C00000FB6F8940F92E0919F03F091A00385A155
:104C100096A1A7A1B0A50097A105B10589F4E091DF
:104C20009F03F091A00381E081A78E819F8100976F
:104C300039F08E819F8161E00E949D290E94471278
:104C40000F900FBE0FB6F8940F92E0919F03F09172
:104C5000A00385A196A1A7A1B0A589839A83AB8360
:104C6000BC8389819A81AB81BC810097A105B10584
:104C7000D9F08D81882349F0E0919F03F091A00342
:104C800015A216A217A210A60FC0E0919F03F091E3
:104C9000A00389819A81AB81BC810197A109B109E7
:104CA00085A396A3A7A3B0A7E0919F03F091A003CB
:104CB00011A60F900FBE89819A81AB81BC81BC0186
:104CC000CD0127960FB6F894DEBF0FBECDBFCF91B2
:104CD000DF910895EF92FF920F931F93DF93CF938D
:104CE000CDB7DEB72D970FB6F894DEBF0FBECDBFA0
:104CF0006A837B838C839D832E833F834887598778
:104D00001B870A87FD86EC860FB6F8940F92E09118
:104D10009F03F091A00381A5823049F1E0919F03A8
:104D2000F091A00325A136A147A150A58A819B81BE
:104D3000AC81BD8180959095A095B09582239323F9
:104D4000A423B52385A396A3A7A3B0A7E0919F03AF
:104D5000F091A00381E081A78C859D85009739F0B3
:104D60008C859D8561E00E949D290E9447120F90CD
:104D70000FBE0FB6F8940F928A859B85009771F04D
:104D8000E0919F03F091A00385A196A1A7A1B0A5F2
:104D9000EA85FB8580839183A283B383E0919F039F
:104DA000F091A00381A5813011F419821AC0E0911D
:104DB0009F03F091A00325A136A147A150A58E81A4
:104DC0009F81A885B98580959095A095B0958223FF
:104DD0009323A423B52385A396A3A7A3B0A781E01B
:104DE0008983E0919F03F091A00311A60F900FBE5D
:104DF00089812D960FB6F894DEBF0FBECDBFCF913F
:104E0000DF911F910F91FF90EF9008950F931F93E3
:104E1000DF93CF93CDB7DEB72F970FB6F894DEBFF1
:104E20000FBECDBF9E838D834F83588769877A8756
:104E30002B871D870C8781E08A838D819E819C83CF
:104E40008B830FB6F8940F928C859D85009761F047
:104E5000EB81FC8185A196A1A7A1B0A5EC85FD857C
:104E600080839183A283B383EB81FC8181A58983B5
:104E7000EB81FC8182E081A78B85282F30E03F8782
:104E80002E878E859F858230910559F12E853F852D
:104E90002330310534F48E859F858130910561F092
:104EA0004AC02E853F852330310559F18E859F8577
:104EB0008430910589F13FC0EB81FC8125A136A1A9
:104EC00047A150A58F819885A985BA85822B932B00
:104ED000A42BB52BEB81FC8185A396A3A7A3B0A738
:104EE0002AC0EB81FC8185A196A1A7A1B0A501965E
:104EF000A11DB11DEB81FC8185A396A3A7A3B0A73B
:104F00001AC0EB81FC818F819885A985BA8585A31C
:104F100096A3A7A3B0A70FC08981823059F0EB8177
:104F2000FC818F819885A985BA8585A396A3A7A3BF
:104F3000B0A701C01A8289818130B9F58B819C812B
:104F400002960E94420FEB81FC8196898091A50315
:104F5000891728F4EB81FC8186898093A503EB8176
:104F6000FC818689282F30E0C901880F991F880F9E
:104F7000991F880F991F820F931FAC0140555C4FFA
:104F80008B819C819C012E5F3F4FCA01B9010E9419
:104F9000920EEB81FC819689E0919F03F091A00332
:104FA0008689891710F40E9447120F900FBE8A81DC
:104FB0002F960FB6F894DEBF0FBECDBFCF91DF9115
:104FC0001F910F910895EF92FF920F931F93DF931C
:104FD000CF93CDB7DEB762970FB6F894DEBF0FBEA2
:104FE000CDBF9F838E83488759876A877B872C87AD
:104FF0001E870D87F88AEF8681E08A838E819F81E4
:105000009D838C8319828D859E85009761F0EC814C
:10501000FD8185A196A1A7A1B0A5ED85FE85808320
:105020009183A283B383EC81FD8181A58B83EC8185
:10503000FD8182E081A78C85282F30E03A8B298B77
:1050400089899A898230910559F129893A892330D1
:10505000310534F489899A898130910561F04AC01B
:1050600029893A892330310559F189899A8984300F
:10507000910589F13FC0EC81FD8125A136A147A1B1
:1050800050A588859985AA85BB85822B932BA42B57
:10509000B52BEC81FD8185A396A3A7A3B0A72AC059
:1050A000EC81FD8185A196A1A7A1B0A50196A11DC6
:1050B000B11DEC81FD8185A396A3A7A3B0A71AC05B
:1050C000EC81FD8188859985AA85BB8585A396A3FA
:1050D000A7A3B0A70FC08B81823059F0EC81FD816E
:1050E00088859985AA85BB8585A396A3A7A3B0A724
:1050F00001C01A828B81813009F050C08091AF03CA
:10510000882361F58C819D8102960E94420FEC817B
:10511000FD8196898091A503891728F4EC81FD8192
:1051200086898093A503EC81FD818689282F30E054
:10513000C901880F991F880F991F880F991F820F27
:10514000931FAC0140555C4F8C819D819C012E5F6B
:105150003F4FCA01B9010E94920E0AC08C819D8105
:105160009C01245F3F4F83EF93E0B9010E94920EB0
:10517000EC81FD819689E0919F03F091A0038689DF
:10518000891760F48F859889009729F0EF85F88951
:1051900081E0808303C081E08093A8038A816296C6
:1051A0000FB6F894DEBF0FBECDBFCF91DF911F9138
:1051B0000F91FF90EF900895DF93CF93CDB7DEB7B7
:1051C00028970FB6F894DEBF0FBECDBF9E838D83A8
:1051D00078876F838D819E819C838B831982EB817D
:1051E000FC8181A58A83EB81FC8182E081A7EB8130
:1051F000FC8185A196A1A7A1B0A50196A11DB11D15
:10520000EB81FC8185A396A3A7A3B0A78A818130F7
:1052100009F050C08091AF03882361F58B819C8198
:1052200002960E94420FEB81FC8196898091A50332
:10523000891728F4EB81FC8186898093A503EB8193
:10524000FC818689282F30E0C901880F991F880FBB
:10525000991F880F991F820F931FAC0140555C4F17
:105260008B819C819C012E5F3F4FCA01B9010E9436
:10527000920E0AC08B819C819C01245F3F4F83EF7B
:1052800093E0B9010E94920EEB81FC819689E09136
:105290009F03F091A0038689891760F48F81988518
:1052A000009729F0EF81F88581E0808303C081E0D9
:1052B0008093A80328960FB6F894DEBF0FBECDBF2B
:1052C000CF91DF910895DF93CF93CDB7DEB72797C6
:1052D0000FB6F894DEBF0FBECDBF9D838C838C814B
:1052E0009D81009739F480919F039091A0039F8343
:1052F0008E8304C08C819D819F838E838E819F814C
:105300009B838A830FB6F8940F92EA81FB8181A573
:10531000823031F4EA81FB8111A681E0898301C0EA
:1053200019820F900FBE898127960FB6F894DEBFC1
:105330000FBECDBFCF91DF910895DF93CF93CDB74F
:10534000DEB727970FB6F894DEBF0FBECDBF9E83A2
:105350008D836F838091A3039091A4039A838983A3
:1053600080919F039091A00302960E94420F8D812D
:105370009E812FEF8F3F920781F48F81882369F000
:1053800080919F039091A0039C012E5F3F4F85E089
:1053900094E0B9010E94920E43C029813A818D8127
:1053A0009E81820F931F9C838B83E0919F03F091DA
:1053B000A0038B819C81938382832B813C81898193
:1053C0009A812817390770F48091F1039091F203C4
:1053D00020919F033091A0032E5F3F4FB9010E949F
:1053E000D60E1EC04091EF035091F00380919F03B1
:1053F0009091A0039C012E5F3F4FCA01B9010E940A
:10540000D60E2091AB033091AC038B819C81821727
:10541000930730F48B819C819093AC038093AB0312
:1054200027960FB6F894DEBF0FBECDBFCF91DF91A8
:1054300008952F923F924F925F926F927F928F9238
:105440009F92AF92BF92CF92DF92EF92FF920F9313
:105450001F93CF93DF93CDB7DEB7CA1BDB0B0FB61D
:10546000F894DEBF0FBECDBF09942A8839884888DA
:105470005F846E847D848C849B84AA84B984C88470
:10548000DF80EE80FD800C811B81AA81B981CE0F67
:10549000D11D0FB6F894DEBF0FBECDBFED0108954C
:1054A000FB01DC0102C001900D9241505040D8F741
:0654B0000895F894FFCFFF
:1054B6004D004E0049444C4500000000000000002D
:0654C600001F03040000BA
:00000001FF
