:100000000C942A000C9434000C9434000C943400AA
:100010000C9434000C9434000C9434000C94340090
:100020000C9434000C9434000C9434000C94340080
:100030000C9434000C9434000C9434000C94340070
:100040000C9434000C9434000C9434000C94340060
:100050000C94340011241FBECFE5D8E0DEBFCDBF25
:100060000E9485000C948F000C940000DF93CF93C6
:1000700000D00F92CDB7DEB79A8389836B83EEE30E
:10008000F0E089818083EFE3F0E089819A81892F14
:1000900099278083EDE3F0E08B818083ECE3F0E04F
:1000A00086E08083ECE3F0E08081882F90E082702E
:1000B00090709595879581309105A1F30F900F90E1
:1000C0000F90CF91DF910895DF93CF9300D0CDB7FC
:1000D000DEB79A838983EEE3F0E089818083EFE3E2
:1000E000F0E089819A81892F99278083ACE3B0E081
:1000F000ECE3F0E0808181608C93EDE3F0E08081BF
:100100000F900F90CF91DF910895DF93CF93CDB7EC
:10011000DEB780E390E060E50E943600FFCFF89400
:02012000FFCF0F
:00000001FF
