:100000000C942A000C9434000C9434000C943400AA
:100010000C9434000C9434000C9434000C94340090
:100020000C9434000C9434000C9434000C94340080
:100030000C9434000C9434000C9434000C94340070
:100040000C9434000C9434000C9434000C94340060
:100050000C94340011241FBECFE5D8E0DEBFCDBF25
:100060000E9436000C9485060C9400000F931F9399
:10007000DF93CF93CDB7DEB70E94650084E460E0E4
:100080000E94420684E461E00E94420684E462E049
:100090000E94420684E463E00E94420684E464E035
:1000A0000E94420684E465E00E94420684E466E021
:1000B0000E94420684E467E00E94420602E310E0E8
:1000C0000E948800F8018083F9CFDF93CF93CDB7EA
:1000D000DEB7A7E2B0E0E7E2F0E0808180648C93D5
:1000E000A6E2B0E0E6E2F0E0808180688C93A6E2D0
:1000F000B0E0E6E2F0E0808184608C93A6E2B0E0BC
:10010000E6E2F0E0808182608C93CF91DF910895E8
:10011000DF93CF9300D0CDB7DEB7A6E2B0E0E6E242
:10012000F0E0808180648C93E6E2F0E08081882FAB
:1001300090E08071907095958795959587959595A8
:10014000879595958795009779F3A6E2B0E0E6E26A
:10015000F0E0808180618C93E4E2F0E08081882F80
:1001600090E09A838983E5E2F0E08081882F90E037
:10017000982F88279C0189819A81822B932B9A83BF
:10018000898389819A810F900F90CF91DF91089593
:10019000DF93CF9300D000D00F92CDB7DEB7898325
:1001A0006A834B838981282F30E03D832C838C81A7
:1001B0009D818234910509F444C02C813D81233412
:1001C000310534F48C819D818134910571F0BCC07E
:1001D0002C813D812334310509F45FC08C819D81E0
:1001E0008434910509F485C0AFC08B818130A1F4BE
:1001F000AAE3B0E0EAE3F0E08081482F8A81282F6B
:1002000030E081E090E0022E02C0880F991F0A942E
:10021000E2F7842B8C9398C0AAE3B0E0EAE3F0E025
:100220008081482F8A81282F30E081E090E0022EE3
:1002300002C0880F991F0A94E2F7809584238C935B
:1002400083C08B818130A1F4A7E3B0E0E7E3F0E065
:100250008081482F8A81282F30E081E090E0022EB3
:1002600002C0880F991F0A94E2F7842B8C936CC00C
:10027000A7E3B0E0E7E3F0E08081482F8A81282FF0
:1002800030E081E090E0022E02C0880F991F0A94AE
:10029000E2F7809584238C9357C08B818130A1F441
:1002A000A4E3B0E0E4E3F0E08081482F8A81282FC6
:1002B00030E081E090E0022E02C0880F991F0A947E
:1002C000E2F7842B8C9340C0A4E3B0E0E4E3F0E0D9
:1002D0008081482F8A81282F30E081E090E0022E33
:1002E00002C0880F991F0A94E2F7809584238C93AB
:1002F0002BC08B818130A1F4A1E3B0E0E1E3F0E019
:100300008081482F8A81282F30E081E090E0022E02
:1003100002C0880F991F0A94E2F7842B8C9314C0B3
:10032000A1E3B0E0E1E3F0E08081482F8A81282F4B
:1003300030E081E090E0022E02C0880F991F0A94FD
:10034000E2F7809584238C930F900F900F900F907D
:100350000F90CF91DF910895DF93CF9300D000D01D
:100360000F92CDB7DEB789836A834B838981282FAB
:1003700030E03D832C838C819D818234910509F48A
:1003800044C02C813D812334310534F48C819D811E
:100390008134910571F0BCC02C813D81233431053D
:1003A00009F45FC08C819D818434910509F485C076
:1003B000AFC08B818130A1F4ABE3B0E0EBE3F0E0C0
:1003C0008081482F8A81282F30E081E090E0022E42
:1003D00002C0880F991F0A94E2F7842B8C9398C06F
:1003E000ABE3B0E0EBE3F0E08081482F8A81282F77
:1003F00030E081E090E0022E02C0880F991F0A943D
:10040000E2F7809584238C9383C08B818130A1F4A3
:10041000A8E3B0E0E8E3F0E08081482F8A81282F4C
:1004200030E081E090E0022E02C0880F991F0A940C
:10043000E2F7842B8C936CC0A8E3B0E0E8E3F0E033
:100440008081482F8A81282F30E081E090E0022EC1
:1004500002C0880F991F0A94E2F7809584238C9339
:1004600057C08B818130A1F4A5E3B0E0E5E3F0E073
:100470008081482F8A81282F30E081E090E0022E91
:1004800002C0880F991F0A94E2F7842B8C9340C016
:10049000A5E3B0E0E5E3F0E08081482F8A81282FD2
:1004A00030E081E090E0022E02C0880F991F0A948C
:1004B000E2F7809584238C932BC08B818130A1F44B
:1004C000A2E3B0E0E2E3F0E08081482F8A81282FA8
:1004D00030E081E090E0022E02C0880F991F0A945C
:1004E000E2F7842B8C9314C0A2E3B0E0E2E3F0E0E7
:1004F0008081482F8A81282F30E081E090E0022E11
:1005000002C0880F991F0A94E2F7809584238C9388
:100510000F900F900F900F900F90CF91DF91089553
:10052000DF93CF9300D000D00F92CDB7DEB78A8390
:100530006B8319828A81282F30E03D832C834C8184
:100540005D8142345105B1F18C819D8183349105E7
:1005500034F42C813D812134310571F084C04C810B
:100560005D814334510509F443C08C819D818434FD
:10057000910509F45BC077C0E9E3F0E08081482F82
:1005800050E08B81282F30E081E090E002C0880F9E
:10059000991F2A95E2F79A01282339238B81882F06
:1005A00090E0A90102C0559547958A95E2F7CA01E6
:1005B000898359C0E6E3F0E08081482F50E08B81C9
:1005C000282F30E081E090E002C0880F991F2A9523
:1005D000E2F79A01282339238B81882F90E0A90123
:1005E00002C0559547958A95E2F7CA0189833BC0B9
:1005F000E3E3F0E08081482F50E08B81282F30E04A
:1006000081E090E002C0880F991F2A95E2F79A01D5
:10061000282339238B81882F90E0A90102C05595AA
:1006200047958A95E2F7CA0189831DC0E0E3F0E0AF
:100630008081482F50E08B81282F30E081E090E0CE
:1006400002C0880F991F2A95E2F79A0128233923BF
:100650008B81882F90E0A90102C0559547958A9516
:10066000E2F7CA01898389810F900F900F900F9054
:100670000F90CF91DF910895DF93CF9300D000D0FA
:10068000CDB7DEB789836A838981282F30E03C8328
:100690002B838B819C818234910551F12B813C818C
:1006A0002334310534F48B819C818134910561F0D0
:1006B0005AC02B813C812334310571F18B819C819F
:1006C00084349105E9F14FC0ABE3B0E0EBE3F0E037
:1006D0008081482F8A81282F30E081E090E0022E2F
:1006E00002C0880F991F0A94E2F784278C933BC0BD
:1006F000A8E3B0E0E8E3F0E08081482F8A81282F6A
:1007000030E081E090E0022E02C0880F991F0A9429
:10071000E2F784278C9327C0A5E3B0E0E5E3F0E09F
:100720008081482F8A81282F30E081E090E0022EDE
:1007300002C0880F991F0A94E2F784278C9313C094
:10074000A2E3B0E0E2E3F0E08081482F8A81282F25
:1007500030E081E090E0022E02C0880F991F0A94D9
:10076000E2F784278C930F900F900F900F90CF910A
:10077000DF910895DF93CF9300D000D0CDB7DEB7DF
:1007800089836A838981282F30E03C832B838B8186
:100790009C8182349105D9F02B813C812334310531
:1007A00034F48B819C818134910561F01EC02B81D2
:1007B0003C812334310581F08B819C818434910507
:1007C00081F013C0EAE3F0E08A8180830EC0E7E3A2
:1007D000F0E08A81808309C0E4E3F0E08A818083CD
:1007E00004C0E1E3F0E08A8180830F900F900F90C6
:1007F0000F90CF91DF910895DF93CF9300D000D079
:10080000CDB7DEB789836A838981282F30E03C83A6
:100810002B838B819C8182349105D9F02B813C8183
:100820002334310534F48B819C818134910561F04E
:100830001EC02B813C812334310581F08B819C814A
:100840008434910581F013C0EBE3F0E08A8180836A
:100850000EC0E8E3F0E08A81808309C0E5E3F0E0C0
:100860008A81808304C0E2E3F0E08A8180830F9074
:100870000F900F900F90CF91DF910895DF93CF935A
:1008800000D000D0CDB7DEB78A8319828A81282FA5
:1008900030E03C832B838B819C8182349105D9F09D
:1008A0002B813C812334310534F48B819C8181344C
:1008B000910561F01EC02B813C812334310581F00C
:1008C0008B819C818434910581F013C0E9E3F0E0D1
:1008D000808189830EC0E6E3F0E08081898309C0CE
:1008E000E3E3F0E08081898304C0E0E3F0E080810D
:1008F000898389810F900F900F900F90CF91DF9196
:100900000895DF93CF9300D000D00F92CDB7DEB71C
:1009100089836A834B838981282F30E03D832C8330
:100920008C819D818234910509F444C02C813D81E4
:100930002334310534F48C819D818134910571F02B
:10094000BCC02C813D812334310509F45FC08C810A
:100950009D818434910509F485C0AFC08B818130BD
:10096000A1F4ABE3B0E0EBE3F0E08081482F8A81B3
:10097000282F30E081E090E0022E02C0880F991FFE
:100980000A94E2F7842B8C9398C0ABE3B0E0EBE3DE
:10099000F0E08081482F8A81282F30E081E090E0CC
:1009A000022E02C0880F991F0A94E2F780958423D3
:1009B0008C9383C08B818130A1F4A8E3B0E0E8E39D
:1009C000F0E08081482F8A81282F30E081E090E09C
:1009D000022E02C0880F991F0A94E2F7842B8C9391
:1009E0006CC0A8E3B0E0E8E3F0E08081482F8A81A2
:1009F000282F30E081E090E0022E02C0880F991F7E
:100A00000A94E2F7809584238C9357C08B818130C0
:100A1000A1F4A5E3B0E0E5E3F0E08081482F8A810E
:100A2000282F30E081E090E0022E02C0880F991F4D
:100A30000A94E2F7842B8C9340C0A5E3B0E0E5E391
:100A4000F0E08081482F8A81282F30E081E090E01B
:100A5000022E02C0880F991F0A94E2F78095842322
:100A60008C932BC08B818130A1F4A2E3B0E0E2E350
:100A7000F0E08081482F8A81282F30E081E090E0EB
:100A8000022E02C0880F991F0A94E2F7842B8C93E0
:100A900014C0A2E3B0E0E2E3F0E08081482F8A8155
:100AA000282F30E081E090E0022E02C0880F991FCD
:100AB0000A94E2F7809584238C930F900F900F9007
:100AC0000F900F90CF91DF910895DF93CF9300D0D7
:100AD00000D0CDB7DEB789836A838A818F708A831D
:100AE0008981282F30E03C832B838B819C81823449
:100AF000910529F12B813C812334310534F48B811C
:100B00009C818134910561F047C02B813C81233465
:100B1000310521F18B819C818434910571F13CC0B8
:100B2000ABE3B0E0EBE3F0E08081807F8C93ABE35C
:100B3000B0E0EBE3F0E090818A81892B8C93A8E30D
:100B4000B0E0E8E3F0E08081807F8C93A8E3B0E040
:100B5000E8E3F0E090818A81892B8C93A5E3B0E0F3
:100B6000E5E3F0E08081807F8C93A5E3B0E0E5E3EE
:100B7000F0E090818A81892B8C93A2E3B0E0E2E3DC
:100B8000F0E08081807F8C93A2E3B0E0E2E3F0E0CC
:100B900090818A81892B8C930F900F900F900F90EA
:100BA000CF91DF910895DF93CF9300D000D0CDB7E0
:100BB000DEB789836A838A818295807F8A8389816F
:100BC000282F30E03C832B838B819C8182349105DC
:100BD00029F12B813C812334310534F48B819C81B4
:100BE0008134910561F047C02B813C81233431056C
:100BF00021F18B819C818434910571F13CC0ABE380
:100C0000B0E0EBE3F0E080818F708C93ABE3B0E079
:100C1000EBE3F0E090818A81892B8C93A8E3B0E02C
:100C2000E8E3F0E080818F708C93A8E3B0E0E8E324
:100C3000F0E090818A81892B8C93A5E3B0E0E5E315
:100C4000F0E080818F708C93A5E3B0E0E5E3F0E005
:100C500090818A81892B8C93A2E3B0E0E2E3F0E0FB
:100C600080818F708C93A2E3B0E0E2E3F0E09081AA
:100C70008A81892B8C930F900F900F900F90CF91BA
:100C8000DF910895DF93CF9300D0CDB7DEB789838E
:100C90006A8389816A8141E00E94C8000F900F90A9
:100CA000CF91DF910895DF93CF9300D0CDB7DEB71A
:100CB00089836A8389816A8141E00E94AC010F9037
:100CC0000F90CF91DF910895DF93CF9300D0CDB7F0
:100CD000DEB789836A8389816A8140E00E94AC0122
:100CE0000F900F90CF91DF910895DF93CF9300D0B5
:100CF000CDB7DEB789836A8389816A810E943C030C
:0E0D00000F900F90CF91DF910895F894FFCFE0
:00000001FF
