:100000000C942A000C9447000C9447000C94470071
:100010000C9447000C9447000C9447000C94BC05CA
:100020000C9447000C9447000C9447000C94470034
:100030000C9447000C9447000C9447000C94470024
:100040000C9447000C9447000C9447000C94470014
:100050000C94470011241FBECFE5D8E0DEBFCDBF12
:1000600010E0A0E6B0E0E2E8F7E202C005900D92F1
:10007000AC36B107D9F714E0ACE6B0E001C01D9290
:10008000A432B107E1F70E944E060C94BF130C9402
:100090000000823429F1833420F4813409F06AC0ED
:1000A00006C08334B1F1843409F064C04BC04130E0
:1000B00059F42AB381E090E002C0880F991F6A9535
:1000C000E2F7282B2ABB08952AB381E090E002C012
:1000D000880F991F6A95E2F7809582238ABB08955D
:1000E000413059F427B381E090E002C0880F991F96
:1000F0006A95E2F7282B27BB089527B381E090E0AB
:1001000002C0880F991F6A95E2F78095822387BB0A
:100110000895413059F424B381E090E002C0880F83
:10012000991F6A95E2F7282B24BB089524B381E038
:1001300090E002C0880F991F6A95E2F780958223AC
:1001400084BB0895413059F421B381E090E002C0AE
:10015000880F991F6A95E2F7282B21BB089521B3D8
:1001600081E090E002C0880F991F6A95E2F78095C0
:10017000822381BB0895823429F1833420F48134B1
:1001800009F06AC006C08334B1F1843409F064C058
:100190004BC0413059F42BB381E090E002C0880F8E
:1001A000991F6A95E2F7282B2BBB08952BB381E0AA
:1001B00090E002C0880F991F6A95E2F7809582232C
:1001C0008BBB0895413059F428B381E090E002C020
:1001D000880F991F6A95E2F7282B28BB089528B34A
:1001E00081E090E002C0880F991F6A95E2F7809540
:1001F000822388BB0895413059F425B381E090E013
:1002000002C0880F991F6A95E2F7282B25BB089535
:1002100025B381E090E002C0880F991F6A95E2F74C
:100220008095822385BB0895413059F422B381E043
:1002300090E002C0880F991F6A95E2F7282B22BB35
:10024000089522B381E090E002C0880F991F6A955B
:10025000E2F78095822382BB0895823461F0833473
:1002600018F4813469F505C0833439F0843441F5DC
:1002700016C029B303C026B301C023B381E090E0C8
:10028000062E02C0880F991F0A94E2F730E08223FD
:10029000932302C0959587956A95E2F7089520B358
:1002A00081E090E0062E02C0880F991F0A94E2F7C1
:1002B00030E08223932302C0959587956A95E2F7F3
:1002C00008958234A9F0833418F4813489F505C087
:1002D0008334C9F0843461F521C02BB381E090E010
:1002E00002C0880F991F6A95E2F728272BBB089553
:1002F00028B381E090E002C0880F991F6A95E2F769
:10030000282728BB089525B381E090E002C0880F1C
:10031000991F6A95E2F7282725BB089522B381E04B
:1003200090E002C0880F991F6A95E2F7282722BB48
:100330000895823461F0833418F4813469F405C07F
:10034000833439F0843441F406C06BBB089568BB34
:10035000089565BB089562BB0895823479F08334B3
:1003600018F48134C9F405C0833469F08434A1F4ED
:100370000FC08BB3607F862B8BBB089588B3607FE3
:10038000862B88BB089585B3607F862B85BB089537
:1003900082B3607F862B82BB0895823471F08334F0
:1003A00018F48134A9F405C0833459F0843481F4FD
:1003B0000CC08BB38F708BBB089588B38F7088BBD4
:1003C000089585B38F7085BB089582B38F7082BB0B
:1003D0000895FC010FB6F8940F9220813181609549
:1003E000709562237323718360830F900FBEC901E0
:1003F0000895FC01808191810895BA010E94E9016C
:100400000895CF93DF93EC010E945C0A06C08F81B0
:10041000988560E072E00E949B0C8A818823B9F77E
:10042000CE010E9480030E94900EDF91CF9108952B
:10043000CF92DF92EF92FF920F931F93CF93DF93B0
:100440008B01EC0185E0E82EF12CEC0EFD1E0E94E4
:100450005C0AEF81F88588819981802B912B9983A3
:10046000888300E010E024C0D280C3808081918125
:10047000BC016070AC0150702881398192FD05C0CB
:1004800024233523232B31F40FC0242335232417B1
:10049000350751F470FF02C0042B152B6881798158
:1004A0007260CF010E949B0C8D2D9C2D9C01F90147
:1004B000EE15FF05C9F60095109588819981802376
:1004C0009123998388830E94900E88819981DF917E
:1004D000CF911F910F91FF90EF90DF90CF900895F3
:1004E000BA010E9418020895AF92BF92CF92DF9294
:1004F000EF92FF920F931F93CF93DF937B01A42E74
:10050000B22E68018C010E945C0AF80120813181C1
:10051000C70182239323BB2021F4892B09F05AC001
:1005200004C08E159F0509F455C0C114D10459F4B7
:10053000E9011BC0C7018095909582239323F801A0
:10054000918380834AC0AA2019F060E071E002C064
:1005500060E070E0B11074606E297F29C8010296D6
:10056000A6010E947111C0E0D0E00E94900ECD283B
:1005700029F1882311F40E94BF050E94070B91FD09
:100580001BC00FB6F8940F92F801808191819701FA
:1005900028233923BB2019F4232B19F50BC02E1562
:1005A0003F0541F41EC0E094F094E822F922F801DE
:1005B000F182E0820F900FBEEC01D070CE01DF918E
:1005C000CF911F910F91FF90EF90DF90CF90BF9050
:1005D000AF900895AA2009F0ADCFE901CC24DD2425
:1005E000C4CFAA2001F7E6CF8F929F92AF92BF921D
:1005F000CF92DF92EF92FF920F931F93CF93DF93EF
:10060000F82EE92E8B015A014901C82ED92E0E94DD
:100610005C0AF601C081D1818F2D9E2DB8010E9408
:100620001802C02BD12BC5018C239D238A159B0555
:1006300069F4950120953095F6018081918182239E
:100640009323918380838824992410C0811491047A
:1006500051F0B5017560C6010296A4010E947111A6
:10066000C0E0D0E003C0F601C081D1810E94900EAD
:100670008928F9F0882311F40E94BF050E94070B16
:100680009C0191FD14C00FB6F8940F92F6012081E1
:100690003181C501822393238A159B0531F4A094EF
:1006A000B094A222B322B182A0820F900FBEE901C2
:1006B000D070CE01DF91CF911F910F91FF90EF90FD
:1006C000DF90CF90BF90AF909F908F900895CF9381
:1006D000DF938BE090E00E94B003EC01009731F0D3
:1006E000FC0111921192CF010E945304CE01DF91BF
:1006F000CF9108958091690090916A0008950895BE
:10070000CF93DF93009749F1EC0124970E945C0A94
:100710004A815B81ADE8B3E02C9111963C91119731
:10072000BD01C901DC0112968D919C91139784172C
:10073000950790F3FB01B983A883D183C08380918F
:10074000690090916A002A813B81820F931F9093E8
:100750006A00809369000E94900EDF91CF91089506
:10076000EF92FF920F931F93CF93DF93EC010E94C0
:100770005C0A80916C00882309F58EE690E09093E6
:100780008E0380938D031092900310928F038FE15C
:1007900093E09093940380939303109292031092AA
:1007A0009103909371008093700081E993E090939E
:1007B0006F0080936E0081E080936C00209709F0B9
:1007C0002496CE0101978E51934008F060C040916D
:1007D0008D0350918E03EDE8F3E0DA0112968D91CE
:1007E0009C9113978C179D0738F48D919C910097DD
:1007F00019F0AC01FD01F1CFB3E041395B0709F419
:1008000046C0E080F180DA018D919C91119791832F
:10081000808312968D919C9113978C1B9D0B893030
:10082000910528F1BA016C0F7D1FFB019383828330
:100830001396DC93CE9312970280F381E02DADE8FE
:10084000B3E02C9111963C9111971A2F0B2FC901EF
:10085000DC0112968D919C9113978E179F0788F358
:10086000E12FF02FEB01B983A88371836083E70147
:1008700024968091690090916A00FA012281338167
:10088000821B930B90936A008093690002C0C0E0C2
:10089000D0E00E94900ECE01DF91CF911F910F9179
:1008A000FF90EF900895FC019C012D5F3F4F328334
:1008B00021838FEF9FEF9483838336832583308753
:1008C000278310820895FC01118610860895AC01DB
:1008D000FC01A181B281FB01B383A28314968D91A7
:1008E0009C911597958384831496ED91FC911597AF
:1008F0007383628315967C936E931497FB015187E3
:100900004087FA0180818F5F80830895CF93DF93C2
:100910009C01EB01488159818FEF4F3F580721F42B
:10092000F901A781B0850DC0D90113961296ED91FA
:10093000FC911397808191814817590710F0DF01CE
:10094000F5CF1296ED91FC911397FB83EA83D58343
:10095000C483BD83AC831396DC93CE9312973987FF
:100960002887F90180818F5F8083DF91CF9108957F
:10097000CF93DF93DC011896CD91DC9119971296F5
:100980004D915C91139714968D919C911597FA0156
:100990009583848314962D913C911597F901538387
:1009A000428389819A818A179B0711F43A832983AC
:1009B00019961C921E921897888181508883DF9126
:1009C000CF910895FC0191E1908322E2229383E389
:1009D000829362937293129280E88293129282E0E1
:1009E000829383E0829384E0829385E0829386E021
:1009F000829387E0829388E0829389E0829380E10A
:100A00008293929382E1829383E1829384E1829341
:100A100085E1829386E1829387E1829388E18293E4
:100A200089E1829380E2829381E28293229383E23E
:100A300082934293529386E2829387E2829388E282
:100A4000829389E2829380E3829381E38293319758
:100A5000CF0108951BBC8BE08ABD8EBD89B7806134
:100A600089BFA0919503B0919603CD91CDBFDD9143
:100A7000DEBFFF91EF91DF91CF91BF91AF919F9139
:100A80008F917F916F915F914F913F912F911F9126
:100A90000F91FF90EF90DF90CF90BF90AF909F901D
:100AA0008F907F906F905F904F903F902F901F900E
:100AB0000F900FBE0F90089581E0089508950F9252
:100AC0000FB6F8940F921F9211242F923F924F92DB
:100AD0005F926F927F928F929F92AF92BF92CF92CE
:100AE000DF92EF92FF920F931F932F933F934F93B9
:100AF0005F936F937F938F939F93AF93BF93CF93A6
:100B0000DF93EF93FF93A0919503B09196030DB6F9
:100B10000D920EB60D920E940F0D882311F00E94C7
:100B2000810AA0919503B0919603CD91CDBFDD913F
:100B3000DEBFFF91EF91DF91CF91BF91AF919F9178
:100B40008F917F916F915F914F913F912F911F9165
:100B50000F91FF90EF90DF90CF90BF90AF909F905C
:100B60008F907F906F905F904F903F902F901F904D
:100B70000F900FBE0F9008950E945F0518950F9279
:100B80000FB6F8940F921F9211242F923F924F921A
:100B90005F926F927F928F929F92AF92BF92CF920D
:100BA000DF92EF92FF920F931F932F933F934F93F8
:100BB0005F936F937F938F939F93AF93BF93CF93E5
:100BC000DF93EF93FF93A0919503B09196030DB639
:100BD0000D920EB60D920E94810AA0919503B091DC
:100BE0009603CD91CDBFDD91DEBFFF91EF91DF91F7
:100BF000CF91BF91AF919F918F917F916F915F91B5
:100C00004F913F912F911F910F91FF90EF90DF90A7
:100C1000CF90BF90AF909F908F907F906F905F909C
:100C20004F903F902F901F900F900FBE0F90089500
:100C3000FC0121B381E090E0008002C0880F991F81
:100C40000A94E2F7982F282B21BB48EC50E082B39E
:100C5000892782BB28E833E1FA013197F1F7215067
:100C60003040D1F7F4CFFC0121B381E090E0008067
:100C700002C0880F991F0A94E2F7982F282B21BBF6
:100C800048EC50E082B3892782BB28E833E1FA01BF
:100C90003197F1F721503040D1F7F4CFEF92FF9226
:100CA0000F9383E396E060E670E044E650E027E0CF
:100CB00030E001E0EE24FF240E948C1288E196E0EF
:100CC00062E670E044E650E026E030E00E948C12DC
:100CD0000E948E13FFCF0FB6F8940F92FC01828D05
:100CE0000F900FBE0895FC010FB6F8940F92928DED
:100CF0000F900FBE838D891B0895FC01828D08958E
:100D0000FC01828D90E0882309F491E0892F0895F9
:100D1000FC01928D20E0838D981709F421E0822F49
:100D200008959C01E4E0F4E0A0E0B0E080819181CE
:100D3000892B71F4AA0FBB1FAA0FBB1FFD01EC5F2B
:100D4000FB4F71836083AA5FBB4F2D933C93089543
:100D500011963496A830B10549F708959C01A6E094
:100D6000B4E0E0E0F0E08D919C9111978217930739
:100D700049F4EE0FFF1FEE0FFF1FEC5FFB4F2081CA
:100D8000318107C031961496E830F10561F720E013
:100D900030E0C90108959C01E6E0F4E0A0E0B0E095
:100DA000808191818217930771F4AA0FBB1FAA0F4C
:100DB000BB1FFD01EC5FFB4F11821082AA5FBB4F8E
:100DC0001D921C92089511963496A830B10541F7F2
:100DD00008950F931F93182F092F0E94CB06812F80
:100DE000902F0E9480031F910F910895FC01562FB0
:100DF000A72F248D2223B9F086819781820F911D20
:100E000097838683228133818217930720F0808124
:100E1000918197838683448D66817781852F9A2F70
:100E200050E00E94B61308950F931F93CF93DF9362
:100E3000EC018A8D882341F00E811F81CE010E9432
:100E4000F6061F830E8381E0DF91CF911F910F91F2
:100E50000895EF92FF920F931F93CF93DF937A0140
:100E6000EC011A8D112311F480E01AC00D8D0E943F
:100E7000F60611501A8F0F3F81F48885882379F088
:100E8000CE0108960E94CF0C882349F0E114F104AA
:100E900031F081E0F701808303C00F5F0D8F81E0A7
:100EA000DF91CF911F910F91FF90EF900895CF9315
:100EB000DF93EB01FC01928D838D981710F080E099
:100EC00016C0868D9F5F928F8F3F71F48189882332
:100ED00069F0CF0141960E94CF0C882339F020970A
:100EE00029F081E0888303C08F5F868F81E0DF91E6
:100EF000CF910895EF92FF921F93CF93DF93EC0170
:100F00000FB6F8940F921E8D61E1E62EF12CE80EDB
:100F1000F91E0BC08989882351F0C7010E94CF0CAC
:100F2000882311F00E94FD0A115011169CF38FEFD7
:100F30008E8F0F900FBE0FB6F8940F921D8D58E054
:100F4000E52EF12CEC0EFD1E0BC08885882351F098
:100F5000C7010E94CF0C882311F00E94FD0A115096
:100F600011169CF38FEF8D8F0F900FBEDF91CF91F5
:100F70001F91FF90EF9008956F927F928F929F92B2
:100F8000AF92BF92CF92DF92EF92FF920F931F9397
:100F9000DF93CF9300D000D00F92CDB7DEB74B01D7
:100FA0005D834C83E22E8C01E1E1AE2EB12CA80EC4
:100FB000B91E20E06E010894C11CD11C74E0672E9C
:100FC000712C6C0E7D1E01C021E00FB6F8940F92BB
:100FD000F801F28CFF2061F1C680D780C801B4010E
:100FE0000E94F606EE2099F4FA94F801F28E8081C0
:100FF0009181892B29F40E941F0BF801938382832E
:10100000F8018085882381F0C801089607C0F8019F
:10101000D782C6828189882339F0C5010E94CF0C0E
:10102000882311F00E94BF050F900FBE81E063C0BE
:101030008C819D81892B21F40F900FBE80E05BC0D5
:10104000222319F4C6010E94BB0A0F900FBE0E9412
:101050005C0A0FB6F8940F92F801858D8F3F09F462
:10106000158EF801868D8F3F09F4168E0F900FBEF6
:10107000C601B3010E94C60A882371F50FB6F89421
:101080000F92F801828D0F900FBE8823F9F4F801BA
:1010900080819181892B51F40FB6F8940F92F80159
:1010A000828193810E94490C0F900FBE6C817D81DB
:1010B000C5010E94CC11C8010E947A070E94900EBF
:1010C000882309F081CF0E94BF057ECFC8010E940E
:1010D0007A070E94900E78CFC8010E947A070E947A
:1010E000900E0FB6F8940F92F801828D0F900FBEFC
:1010F000882309F069CF0F900F900F900F900F90F9
:10110000CF91DF911F910F91FF90EF90DF90CF90E3
:10111000BF90AF909F908F907F906F9008950F93A6
:101120001F93CF93DF93EC01042F1A8D4C8D442332
:1011300061F488819981892B09F03FC08A819B8164
:101140000E94140C1B821A8239C00023B1F48C81D6
:101150009D8150E00E94B6138C8D2C813D81280F1B
:10116000311D3D832C838A819B812817390728F103
:10117000888199819D838C8320C08E819F8150E0DE
:101180000E94B6138C8D90E044275527481B590BBD
:101190008E819F81840F951F9F838E832881398143
:1011A0008217930730F48A819B81840F951F9F8358
:1011B0008E83023011F41111115080E01F5F1A8FDD
:1011C000DF91CF911F910F910895EF92FF921F939E
:1011D000CF93DF937A01EC019A8D8B8D981720F0D5
:1011E000223011F080E01AC01E8DCE01422F0E94E5
:1011F0008F081F3F81F48989882379F0CE014196B9
:101200000E94CF0C882349F0E114F10431F081E011
:10121000F701808303C01F5F1E8F81E0DF91CF91B4
:101220001F91FF90EF9008956F927F929F92AF92DF
:10123000BF92CF92DF92EF92FF920F931F93DF93B3
:10124000CF9300D000D00F92CDB7DEB76B015D8396
:101250004C83922E8C01A8E0EA2EF12CE80EF91EA8
:1012600020E05E010894A11CB11CF4E06F2E712CEB
:101270006C0E7D1E01C021E00FB6F8940F92F801AC
:10128000928D838D981718F0F2E09F16C9F4C8016B
:10129000B601492D0E948F08982FF8018189882373
:1012A00039F0C80141960E94CF0C882329F002C072
:1012B000992311F00E94BF050F900FBE81E04CC032
:1012C0008C819D81892B19F40F900FBE44C022237D
:1012D00019F4C5010E94BB0A0F900FBE0E945C0A60
:1012E0000FB6F8940F92F801858D8F3F09F4158E93
:1012F000F801868D8F3F09F4168E0F900FBEC50141
:10130000B3010E94C60A882309F50FB6F8940F921C
:10131000F801928D0F900FBEF801838D981781F41C
:101320006C817D81C7010E94CC11C8010E947A079F
:101330000E94900E882309F09ECF0E94BF059BCF8C
:10134000C8010E947A070E94900E95CFC8010E94A2
:101350007A070E94900E80E00F900F900F900F90F0
:101360000F90CF91DF911F910F91FF90EF90DF9041
:10137000CF90BF90AF909F907F906F900895CF9344
:10138000DF93EC010FB6F8940F92EC8D2B8DE29F5A
:10139000C001112448815981840F951F9B838A8342
:1013A0001A8E5D834C8330E021503040F0E02E9F58
:1013B000C0012F9F900D3E9F900D1124480F591F83
:1013C0005F834E838FEF8D8F8E8F662361F48885C8
:1013D000882389F0CE0108960E94CF0C882359F00B
:1013E0000E94BF0508C0CE0108960E945304CE019A
:1013F00041960E9453040F900FBE81E0DF91CF9180
:1014000008950F931F93CF93DF93082F162F662312
:1014100019F480E090E003C0689FC00111244F964A
:101420000E94B003EC01009771F0112319F4998325
:10143000888303C04F96998388830B8F1C8FCE01BE
:1014400061E00E94BF09CE01DF91CF911F910F9102
:101450000895CF93DF93482F81E060E00E94010A56
:10146000EC01009761F01B821A82198218821E8299
:1014700060E070E040E050E020E00E941409CE01FE
:10148000DF91CF9108950FB6F8940F92009729F449
:10149000E0919503F091960301C0FC010F900FBEFF
:1014A00086890895009729F4E0919503F0919603B9
:1014B00001C0FC0186890895809197038F5F809316
:1014C000970308950FB6F8940F9220919A033091E4
:1014D0009B030F900FBEC901089520919A0330918C
:1014E0009B03C90108958091A0030895009721F4FA
:1014F00080919503909196039C01275E3F4FC9010F
:10150000089580919703882321F081E080939903C7
:101510000895109299032091980399E001C02150F9
:10152000299FD0011124AA55BC4F8C918823B9F36F
:101530001196ED91FC9112970280F381E02D1296A5
:10154000FC93EE931197CD010396E817F90731F458
:101550008281938112969C938E9311971196ED91AF
:10156000FC911297868197819093960380939503BF
:10157000209398030895FC0180919E0380838091BD
:101580009A0390919B03928381830895FC01DB0170
:101590000FB6F8940F9240919A0350919B036D916E
:1015A0007C9111978FEF6F3F780709F190919E031F
:1015B0008081981729F08181928148175907C8F4D2
:1015C00021813281CA01821B930B8617970788F409
:1015D000241B350B260F371F2D933C9380919E03C0
:1015E000808380919A0390919B039283818380E012
:1015F00001C081E00F900FBE089581E080939903B0
:1016000008952091950330919603C9010895E091C2
:101610009503F091960384859585A0919503B091EB
:101620009603E0919503F0919603468925E030E01A
:10163000241B31091D963C932E931C97089580918D
:10164000950390919603892B39F0E0919503F091E1
:10165000960384A18F5F84A3209195033091960314
:10166000C9010895009729F4E0919503F09196033C
:1016700001C0FC010FB6F8940F9281A5823011F0E1
:1016800080E002C011A681E00F900FBE0895EF9296
:10169000FF920F931F93CF93DF937B01EC0129A55A
:1016A00082E089A78DA19EA1AFA1B8A50196A11D39
:1016B000B11D8DA39EA3AFA3B8A7213091F5809152
:1016C00097038823A9F48E010E5F1F4FC8010E9463
:1016D000B8049E8980919803891710F49093980319
:1016E00089E0989FC00111248A559C4FB80105C01C
:1016F000BE01645F7F4F89EE93E00E946704E09132
:101700009503F09196039E898689891750F4E11418
:10171000F10421F081E0F701808303C081E0809330
:101720009903DF91CF911F910F91FF90EF90089552
:10173000EF92FF920F931F93CF93DF93F801EC0189
:101740000115110541F08DA19EA1AFA1B8A580831F
:101750009183A283B38339A582E089A7223099F0CF
:10176000233018F4213019F505C02330E1F024307E
:10177000F1F415C08DA19EA1AFA1B8A5842B952B26
:10178000A62BB72B07C08DA19EA1AFA1B8A501962E
:10179000A11DB11D8DA39EA3AFA3B8A708C0323071
:1017A00011F480E03AC04DA35EA36FA378A7313057
:1017B00099F5809197038823A9F48E010E5F1F4F3E
:1017C000C8010E94B8049E8980919803891710F47B
:1017D0009093980389E0989FC00111248A559C4FEB
:1017E000B80105C0BE01645F7F4F89EE93E00E949F
:1017F0006704E0919503F09196039E898689891785
:1018000058F4E114F10421F081E0F701808305C070
:1018100081E08093990301C081E0DF91CF911F9116
:101820000F91FF90EF9008950F931F93CF93DF9345
:10183000EC01009741F12CA121502CA39E898BA192
:10184000981709F12223F9F48E010E5F1F4FC8018A
:101850000E94B8042BA12E8B85E090E0821B910999
:101860009D878C8780919803821710F420939803AA
:1018700089E0289FC00111248A559C4FB8010E941D
:10188000670481E001C080E0DF91CF911F910F914B
:1018900008950F931F93CF93DF93EC01009709F402
:1018A00045C0E0919503F09196039E89868998172B
:1018B000E8F58C859D8597FD0BC0E0919503F0912F
:1018C0009603268985E090E0821B91099D878C878D
:1018D0008E8929E0829FC00111248A559C4F2A8558
:1018E0003B8528173907E1F48E010E5F1F4FC801B1
:1018F0000E94B804E0919503F091960396899E8B1F
:1019000080919803891710F49093980389E0989F29
:10191000C00111248A559C4FB8010E94670406C07B
:10192000E0919503F091960386898E8BDF91CF919C
:101930001F910F9108950F931F93CF93DF93FC0195
:10194000706871836083C681D7810E94B8048E015C
:101950000E5F1F4FC8010E94B8049E8980919803B2
:10196000891710F49093980389E0989FC00111247F
:101970008A559C4FB8010E946704E0919503F0914D
:1019800096039E898689891710F080E003C081E064
:1019900080939903DF91CF911F910F9108950F9339
:1019A0001F93CF93DF93DC011596ED91FC91169771
:1019B000C681D7818E01045F1F4FC8010E94B80401
:1019C000809197038823A1F48E010E5F1F4FC801F9
:1019D0000E94B8049E8980919803891710F490930F
:1019E000980389E0989FC00111248A559C4F02C03A
:1019F00089EE93E0B8010E946704E0919503F091AD
:101A000096039E898689891710F080E003C081E0E3
:101A100080939903DF91CF911F910F910895CF92F9
:101A2000DF92EF92FF920F931F93CF93DF938091FA
:101A30009703882309F0A6C000919A0310919B0395
:101A40000F5F1F4F10939B0300939A03011511051D
:101A500079F52091E5033091E6038091E7039091B9
:101A6000E8039093E6038093E5033093E803209323
:101A7000E70380919E038F5F80939E03E091E503CF
:101A8000F091E6038081882319F48FEF9FEF0CC05B
:101A9000E091E503F091E6030580F681E02D0680F4
:101AA000F781E02D8281938190939D0380939C0325
:101AB00080919C0390919D030817190708F44BC06F
:101AC000DD2449E0C42EE091E503F091E603808136
:101AD000882319F48FEF9FEF0EC0E091E503F0919A
:101AE000E6030580F681E02DC681D7818A819B813E
:101AF0000817190728F490939D0380939C032CC02A
:101B000032E0E32EF12CEC0EFD1EC7010E94B8045A
:101B10008C899D89892B21F0CE010C960E94B804F6
:101B20009E8980919803891710F4909398039C9D47
:101B3000C00111248A559C4FB7010E946704E091AF
:101B40009503F09196039E898689981708F4BBCF78
:101B5000DD24D394B8CFDD24E0919503F091960372
:101B6000868990E0FC0123E0EE0FFF1F2A95E1F744
:101B7000E80FF91FEA55FC4F8081823048F0DD24E0
:101B8000D39406C080919F038F5F80939F03DD24D1
:101B900080919903882311F0DD24D3948D2DDF915A
:101BA000CF911F910F91FF90EF90DF90CF9008950C
:101BB000DF92EF92FF920F931F93CF93DF93EC018D
:101BC0008A859B858B5F934091F58C899D8923E065
:101BD000893E920761F1892B51F533C0DE88E0918F
:101BE0009503F0919603068952E0E52EF12CEC0E58
:101BF000FD1EC7010E94B8046E8980919803861764
:101C000010F46093980310E0D01608F011E089E01A
:101C1000689FC00111248A559C4FB7010E94670438
:101C200007C02C9689EE93E0BE010E94670410E085
:101C3000812FDF91CF911F910F91FF90EF90DF9057
:101C4000089580919703882349F2EBCF0F931F9358
:101C5000CF93DF93F801EC010FB6F8940F920115C2
:101C6000110541F08DA19EA1AFA1B8A580839183FC
:101C7000A283B38339A582E089A7223099F023306B
:101C800018F4213019F505C02330E1F02430F1F4C7
:101C900015C08DA19EA1AFA1B8A5842B952BA62B15
:101CA000B72B07C08DA19EA1AFA1B8A50196A11D1C
:101CB000B11D8DA39EA3AFA3B8A708C0323011F405
:101CC00080E027C04DA35EA36FA378A7313001F554
:101CD0008E010E5F1F4FC8010E94B8049E8980913B
:101CE0009803891710F49093980389E0989FC00196
:101CF00011248A559C4FB8010E946704E091950316
:101D0000F09196039E898689891710F40E94BF0579
:101D100081E00F900FBEDF91CF911F910F91089539
:101D2000EF92FF920F931F93CF93DF930FB6F89428
:101D30000F9280919703815080939703809197032E
:101D4000882309F06CC08091A003882309F467C040
:101D5000C0E0D0E069E0E62EFF24F39429C0E091D2
:101D6000EE03F091EF03C681D781CE010C960E945D
:101D7000B8048E010E5F1F4FC8010E94B8049E89EF
:101D800080919803891710F4909398039E9DC00149
:101D900011248A559C4FB8010E946704E091950375
:101DA000F09196039E898689981710F0F092990316
:101DB0008091E903882399F6CD2BD1F0E091E503DA
:101DC000F091E6038081882319F48FEF9FEF0CC018
:101DD000E091E503F091E6030580F681E02D0680B1
:101DE000F781E02D8281938190939D0380939C03E2
:101DF00010919F03112359F001E00E940F0D8823D9
:101E000011F0009399031150C1F710929F03809134
:101E10009903882321F00E94BF0581E001C080E082
:101E20000F900FBEDF91CF911F910F91FF90EF9018
:101E300008950F931F93CF93DF93EC01009709F45C
:101E40003CC08091950390919603C817D907A9F1DA
:101E50000FB6F8940F928A859B858B5F9340F1F4BF
:101E60008C899D8923E0893E9207C1F0892BB1F4CA
:101E700018C09093980389E0989FC00111248A5557
:101E80009C4FB8010E946704E0919503F09196037E
:101E90009E898689981710F00E94BF050F900FBE8B
:101EA0000CC08E010E5F1F4FC8010E94B8049E89AE
:101EB000809198038917E8F2DECFDF91CF911F91CF
:101EC0000F9108950F931F93CF93DF930FB6F8945C
:101ED0000F92009729F4C0919503D091960301C009
:101EE000EC018E010E5F1F4FC8010E94B8048C895F
:101EF0009D89892B21F0CE010C960E94B8048BEFAE
:101F000093E0B8010E9467040F900FBE8091A10377
:101F10008823F9F00FB6F8940F92E091E503F09161
:101F2000E6038081882319F48FEF9FEF0CC0E091C6
:101F3000E503F091E6030580F681E02D0680F78148
:101F4000E02D8281938190939D0380939C030F9059
:101F50000FBE8091950390919603C817D907A1F4FD
:101F60008091A103882319F00E94BF050DC09091B4
:101F7000A0038091FB03891729F410929603109215
:101F8000950302C00E94810ADF91CF911F910F91AA
:101F90000895FF920F931F93CF93DF93653008F05E
:101FA00064E00FB6F8940F92009729F4C09195035E
:101FB000D091960301C0EC012BA1261709F452C061
:101FC000261790F48091950390919603C817D9072E
:101FD00011F4FF2413C0E0919503F0919603FF24C0
:101FE0008689681758F008C08091950390919603F0
:101FF000FF24C817D90711F4FF24F3943E8923174F
:1020000009F46E8B6BA38C859D8597FD06C085E0DA
:1020100090E0861B91099D878C8789E0389FC001DD
:1020200011248A559C4F2A853B8528173907B1F41E
:102030008E010E5F1F4FC8010E94B8049E898091D7
:102040009803891710F49093980389E0989FC00132
:1020500011248A559C4FB8010E946704FF2011F09B
:102060000E94BF050F900FBEDF91CF911F910F917E
:10207000FF900895FF920F931F93CF93DF93EC018E
:10208000F62E00919A0310919B03809195039091F5
:10209000960302960E94B8048FEFCF3FD80769F4E9
:1020A000FF2059F060919503709196036E5F7F4F0A
:1020B0008BEF93E00E9467042FC0C00FD11FE09107
:1020C0009503F0919603D383C283C017D10768F4B8
:1020D0008091E7039091E8036091950370919603D6
:1020E0006E5F7F4F0E94860417C08091E503909138
:1020F000E60360919503709196036E5F7F4F0E9497
:10210000860480919C0390919D03C817D90720F401
:10211000D0939D03C0939C03DF91CF911F910F91AA
:10212000FF9008956F927F928F929F92AF92BF928D
:10213000CF92DF92EF92FF920F931F93CF93DF9393
:102140005B016C0139014A01E8010FB6F8940F9266
:10215000E0919503F091960381A5823019F1E09109
:102160009503F091960385A196A1A7A1B0A5A0948F
:10217000B094C094D0948A219B21AC21BD2185A329
:1021800096A3A7A3B0A7E0919503F091960381E0F1
:1021900081A7E114F10431F0C70161E00E943A1017
:1021A0000E94BF050F900FBE0FB6F8940F922097B4
:1021B00061F0E0919503F091960385A196A1A7A106
:1021C000B0A588839983AA83BB83E0919503F0919E
:1021D000960381A5813011F480E015C0E09195034C
:1021E000F091960385A196A1A7A1B0A560947094E3
:1021F0008094909486219721A821B92185A396A344
:10220000A7A3B0A781E0E0919503F091960311A6F2
:102210000F900FBEDF91CF911F910F91FF90EF9024
:10222000DF90CF90BF90AF909F908F907F906F90F6
:1022300008951F93182F0FB6F8940F92E09195030D
:10224000F091960385A196A1A7A1B0A50097A1053D
:10225000B10579F4E0919503F091960381E081A7AF
:102260006115710531F0CB0161E00E943A100E94C6
:10227000BF050F900FBE0FB6F8940F92E091950333
:10228000F091960325A136A147A150A5211531054E
:1022900041055105D9F0112349F0E0919503F091E2
:1022A000960315A216A217A210A610C0E0919503DE
:1022B000F0919603215030404040504025A336A372
:1022C00047A350A72F5F3F4F4F4F5F4FE0919503BC
:1022D000F091960311A60F900FBEB901CA011F918C
:1022E00008950F931F938A01E0919503F09196034F
:1022F0007068758764876091950370919603645F39
:102300007F4F0E946704C80161E00E943A101F914C
:102310000F9108959C01009769F0809197038F5F5A
:1023200080939703C90160E00E943A100E94900ECA
:10233000882311F40E94BF050895FC018091970342
:102340008F5F8093970340919A0350919B03208164
:102350003181620F731F4217530728F46217730706
:1023600028F080E008C06217730720F080E046176D
:10237000570708F481E071836083882331F0CB0133
:10238000841B950B60E00E943A100E94900E8823F7
:1023900011F40E94BF0508950F931F938B01609164
:1023A000950370919603645F7F4F0E948604C80175
:1023B00061E00E943A101F910F910895F8941092D5
:1023C000A1030E945E0508950F931F932CC0809176
:1023D00097038F5F809397031091F2030E94900EF2
:1023E000112309F10FB6F8940F92E091F703F091E1
:1023F000F80306811781C80102960E94B8048091F3
:10240000A00381508093A0038091A4038150809306
:10241000A4030F900FBEF8018789908D0E9480035E
:10242000C8010E9480038091A403882381F68091D3
:10243000A6038230C0F30E94BF05F5CF0F931F9310
:10244000CF93DF930FB6F8940F92009729F4C091C1
:102450009503D091960301C0EC018E010E5F1F4FD2
:10246000C8010E94B8048C899D89892B21F0CE0176
:102470000C960E94B8048091A5038F5F8093A503FA
:102480008091950390919603C817D90759F482EF6C
:1024900093E0B8010E9467048091A4038F5F80934A
:1024A000A40326C08091A00381508093A0038F894C
:1024B000988D0E948003CE010E948003E091E50385
:1024C000F091E6038081882319F48FEF9FEF0CC011
:1024D000E091E503F091E6030580F681E02D0680AA
:1024E000F781E02D8281938190939D0380939C03DB
:1024F0000F900FBE8091A103882349F0809195032E
:1025000090919603C817D90711F40E94BF05DF9177
:10251000CF911F910F9108954F925F926F927F928A
:102520008F929F92AF92BF92CF92DF92EF92FF92E3
:102530000F931F93CF93DF932C01162F972E5A01E1
:102540003901CA010E94B003EC010097A1F08AE2B0
:1025500090E00E94B0036C01009751F0FC01D08F15
:10256000C78B812F992D9C01F901D60190E005C000
:10257000CE010E9480038FEFC0C0808159968C935A
:1025800059978081882329F09F5F319611969A3060
:10259000A1F7F60112A2053008F004E0F601068B5F
:1025A00003A314A2E2E08E2E912C8C0C9D1CC4017E
:1025B0000E946304C6010C960E946304F601D18652
:1025C000C08685E090E0801B910995878487D38A37
:1025D000C28A15A216A217A210A611A60894A108D5
:1025E000B108CE018A0D9B1DB201A3010E94E20435
:1025F000F60191838083E114F10419F0F701D1828F
:10260000C0820FB6F8940F928091A0038F5F8093E1
:10261000A0038091950390919603892B99F5D09210
:102620009603C09295038091A0038130E1F5C6EA3C
:10263000D3E0CE010E9453042996F3E0C33DDF07A7
:10264000C1F773EDE72E73E0F72EC7010E94530424
:102650000CED13E0C8010E94530489EE93E00E9440
:10266000530482EF93E00E9453048BEF93E00E94A7
:102670005304F092E603E092E5031093E80300931D
:10268000E70311C08091A103882369F4E0919503C9
:10269000F09196039689F6018689891720F0D092E9
:1026A0009603C09295038091A5038F5F8093A50345
:1026B000F601968980919803891710F490939803F6
:1026C000F601868929E0829FC00111248A559C4F1A
:1026D000B4010E9467040F900FBE8091A10388236C
:1026E00059F0E0919503F09196039689F601868959
:1026F000981710F40E94BF0581E0DF91CF911F91E0
:102700000F91FF90EF90DF90CF90BF90AF909F9090
:102710008F907F906F905F904F900895EF92FF920F
:102720000F9384EE91E164E670E048EC50E020E025
:1027300030E000E0F2EAEF2EF3E0FF2E0E948C1270
:10274000813081F4F8948FEF9FEF90939D038093F5
:102750009C0381E08093A10310929B0310929A0343
:102760000E942A050F91FF90EF900895FB01DC0174
:1027700002C001900D9241505040D8F70895F8944E
:02278000FFCF89
:0C2782004200410049444C45001F030088
:00000001FF
