:100000000C942A000C943F000C943F000C943F0089
:100010000C943F000C943F000C943F000C943F0064
:100020000C943F000C943F000C943F000C943F0054
:100030000C943F000C943F000C943F000C943F0044
:100040000C943F000C943F000C943F000C943F0034
:100050000C943F0011241FBECFE5D8E0DEBFCDBF1A
:1000600010E0A0E6B0E0E4E9F8E002C005900D92EF
:10007000A837B107D9F70E9472030C9448040C9476
:100080000000823429F1833420F4813409F06AC0FD
:1000900006C08334B1F1843409F064C04BC04130F0
:1000A00059F42AB381E090E002C0880F991F6A9545
:1000B000E2F7282B2ABB08952AB381E090E002C022
:1000C000880F991F6A95E2F7809582238ABB08956D
:1000D000413059F427B381E090E002C0880F991FA6
:1000E0006A95E2F7282B27BB089527B381E090E0BB
:1000F00002C0880F991F6A95E2F78095822387BB1B
:100100000895413059F424B381E090E002C0880F93
:10011000991F6A95E2F7282B24BB089524B381E048
:1001200090E002C0880F991F6A95E2F780958223BC
:1001300084BB0895413059F421B381E090E002C0BE
:10014000880F991F6A95E2F7282B21BB089521B3E8
:1001500081E090E002C0880F991F6A95E2F78095D0
:10016000822381BB0895823429F1833420F48134C1
:1001700009F06AC006C08334B1F1843409F064C068
:100180004BC0413059F42BB381E090E002C0880F9E
:10019000991F6A95E2F7282B2BBB08952BB381E0BA
:1001A00090E002C0880F991F6A95E2F7809582233C
:1001B0008BBB0895413059F428B381E090E002C030
:1001C000880F991F6A95E2F7282B28BB089528B35A
:1001D00081E090E002C0880F991F6A95E2F7809550
:1001E000822388BB0895413059F425B381E090E023
:1001F00002C0880F991F6A95E2F7282B25BB089546
:1002000025B381E090E002C0880F991F6A95E2F75C
:100210008095822385BB0895413059F422B381E053
:1002200090E002C0880F991F6A95E2F7282B22BB45
:10023000089522B381E090E002C0880F991F6A956B
:10024000E2F78095822382BB0895823469F083347B
:1002500018F4813429F406C0833441F08434C1F0A9
:1002600080E0089529B303C026B301C023B381E021
:1002700090E0062E02C0880F991F0A94E2F730E042
:100280008223932302C0959587956A95E2F7089596
:1002900020B381E090E0062E02C0880F991F0A94D7
:1002A000E2F730E08223932302C0959587956A9503
:1002B000E2F708958234A9F0833418F4813489F583
:1002C00005C08334C9F0843461F521C02BB381E0CB
:1002D00090E002C0880F991F6A95E2F728272BBB90
:1002E000089528B381E090E002C0880F991F6A95B5
:1002F000E2F7282728BB089525B381E090E002C0EB
:10030000880F991F6A95E2F7282725BB089522B325
:1003100081E090E002C0880F991F6A95E2F72827D4
:1003200022BB0895823461F0833418F4813469F477
:1003300005C0833439F0843441F406C06ABB0895A3
:1003400067BB089564BB089561BB0895823461F072
:10035000833418F4813469F405C0833439F084346B
:1003600041F406C06BBB089568BB089565BB089552
:1003700062BB0895823469F0833418F4813429F41F
:1003800006C0833441F0843441F080E0089589B39D
:10039000089586B3089583B3089580B30895823491
:1003A00029F1833420F4813409F06AC006C0833413
:1003B000B1F1843409F064C04BC0413059F42BB31F
:1003C00081E090E002C0880F991F6A95E2F7282B20
:1003D0002BBB08952BB381E090E002C0880F991FDA
:1003E0006A95E2F7809582238BBB0895413059F4DA
:1003F00028B381E090E002C0880F991F6A95E2F768
:10040000282B28BB089528B381E090E002C0880F14
:10041000991F6A95E2F78095822388BB0895413041
:1004200059F425B381E090E002C0880F991F6A95C6
:10043000E2F7282B25BB089525B381E090E002C0A8
:10044000880F991F6A95E2F78095822385BB0895EE
:10045000413059F422B381E090E002C0880F991F27
:100460006A95E2F7282B22BB089522B381E090E041
:1004700002C0880F991F6A95E2F78095822382BB9C
:1004800008956F70823481F0833418F48134F1F46C
:1004900005C0833479F08434C9F412C08BB3807FF3
:1004A0008BBB8BB3862B8BBB88B3807F88BB88B319
:1004B000862B88BB85B3807F85BB85B3862B85BBA8
:1004C00082B3807F82BB82B3682B62BB0895629542
:1004D000607F823481F0833418F48134F1F405C0F4
:1004E000833479F08434C9F412C08BB38F708BBB22
:1004F0008BB3862B8BBB88B38F7088BB88B3862B5E
:1005000088BB85B38F7085BB85B3862B85BB82B3D3
:100510008F7082BB82B3682B62BB08950F931F93C9
:1005200082E460E041E00E94B30000EA1FE0C801FD
:100530000197F1F782E460E040E00E94B300C80157
:100540000197F1F71F910F9108951F93182F682FAE
:1005500062956F7081E40E94670282E461E041E08D
:100560000E94B3000E948E0281E4612F0E94670204
:1005700082E461E041E00E94B3000E948E0280EDBF
:1005800097E00197F1F71F910895CF93DF93EC0166
:1005900003C00E94A502219688818823D1F7DF91AC
:1005A000CF9108951F93182F682F62956F7081E483
:1005B0000E94670282E461E040E00E94B3000E9472
:1005C0008E0281E4612F0E94670282E461E040E0D4
:1005D0000E94B3000E948E0280ED97E00197F1F730
:1005E0001F910895982F8150823070F4613160F42A
:1005F000662351F0913019F4862F815806C092304D
:1006000021F4862F815401C080E80E94D20280ED3F
:1006100097E00197F1F7089581E00E94D20280E20D
:100620009EE40197F1F70895EF92FF920F931F93C5
:1006300080ED97E028EC30E0F9013197F1F7019770
:10064000D9F781E464E041E00E94410081E465E083
:1006500041E00E94410081E466E041E00E944100E7
:1006600081E467E041E00E94410082E460E041E013
:100670000E94410082E462E041E00E94410082E485
:1006800061E041E00E94410082E462E040E00E94BB
:10069000B30082E00E94D20280E2E82E8EE4F82EBF
:1006A000C7010197F1F788E20E94D20200ED17E03E
:1006B000C8010197F1F78EE00E94D202C8010197AC
:1006C000F1F781E00E94D202C7010197F1F786E0BD
:1006D0000E94D202C8010197F1F71F910F91FF907C
:1006E000EF900895AF92BF92CF92DF92EF92FF9278
:1006F0000F931F93CF93DF930E94140384E467E06A
:1007000041E00E94410030E2D32E20E1A22E91EC84
:10071000B92E81E8C82EC9E1D0E01FBCD8BE84E460
:1007200067E041E00E94B3008A2D8A95F1F784E4E6
:1007300067E040E00E94B300BEBC08B605FEFDCFF6
:1007400086B597B5D8BECEBC08B605FEFDCF66B55A
:1007500077B5D8BE1DBC1CBC1EBC681B790B80E0E5
:1007600090E028E237E840E050E00E94F30320E800
:1007700034E84EE150E00E94260479018A012035D8
:10078000310570F00E940C0380E690E00E94C502E3
:1007900088E893E1FE013197F1F70197D9F7BDCFD2
:1007A0000E940C038AE690E00E94C502C7016AE03D
:1007B00070E00E941204862F805D0E94A502C7018E
:1007C0006AE070E00E941204805D0E94A50284E746
:1007D00090E00E94C50288E893E1FE013197F1F7AD
:1007E0000197D9F79ACF629FD001739FF001829F42
:1007F000E00DF11D649FE00DF11D929FF00D839FB0
:10080000F00D749FF00D659FF00D9927729FB00D4C
:10081000E11DF91F639FB00DE11DF91FBD01CF015F
:1008200011240895AA1BBB1B51E107C0AA1FBB1FBF
:10083000A617B70710F0A61BB70B881F991F5A956C
:10084000A9F780959095BC01CD010895A1E21A2EDB
:10085000AA1BBB1BFD010DC0AA1FBB1FEE1FFF1F64
:10086000A217B307E407F50720F0A21BB30BE40BB4
:10087000F50B661F771F881F991F1A9469F76095FB
:100880007095809590959B01AC01BD01CF010895B5
:04089000F894FFCF0A
:100894006E6F206F626A6563740064697374616E5D
:0808A40063653D00636D000077
:00000001FF
