:100000000C942A000C943C000C943C000C943C0092
:100010000C943C000C943C000C943C000C943C0070
:100020000C943C000C943C000C943C000C943C0060
:100030000C9477040C943C000C943C000C943C0011
:100040000C943C000C943C000C943C000C943C0040
:100050000C943C0011241FBECFE5D8E0DEBFCDBF1D
:1000600010E0A0E6B0E001C01D92AA36B107E1F7AA
:100070000E94BD040C94DC040C940000823429F12D
:10008000833420F4813409F06AC006C08334B1F1AE
:10009000843409F064C04BC0413059F42AB381E084
:1000A00090E002C0880F991F6A95E2F7282B2ABBBF
:1000B00008952AB381E090E002C0880F991F6A95E5
:1000C000E2F7809582238ABB0895413059F427B323
:1000D00081E090E002C0880F991F6A95E2F7282B13
:1000E00027BB089527B381E090E002C0880F991FD5
:1000F0006A95E2F78095822387BB0895413059F4D1
:1001000024B381E090E002C0880F991F6A95E2F75E
:10011000282B24BB089524B381E090E002C0880F0F
:10012000991F6A95E2F78095822384BB0895413038
:1001300059F421B381E090E002C0880F991F6A95BD
:10014000E2F7282B21BB089521B381E090E002C0A3
:10015000880F991F6A95E2F78095822381BB0895E5
:10016000823429F1833420F4813409F06AC006C056
:100170008334B1F1843409F064C04BC0413059F488
:100180002BB381E090E002C0880F991F6A95E2F7D7
:10019000282B2BBB08952BB381E090E002C0880F81
:1001A000991F6A95E2F7809582238BBB08954130B1
:1001B00059F428B381E090E002C0880F991F6A9536
:1001C000E2F7282B28BB089528B381E090E002C015
:1001D000880F991F6A95E2F78095822388BB08955E
:1001E000413059F425B381E090E002C0880F991F97
:1001F0006A95E2F7282B25BB089525B381E090E0AE
:1002000002C0880F991F6A95E2F78095822385BB0B
:100210000895413059F422B381E090E002C0880F84
:10022000991F6A95E2F7282B22BB089522B381E03B
:1002300090E002C0880F991F6A95E2F780958223AB
:1002400082BB0895823469F0833418F4813429F430
:1002500006C0833441F08434C1F080E0089529B3AE
:1002600003C026B301C023B381E090E0062E02C094
:10027000880F991F0A94E2F730E08223932302C08B
:10028000959587956A95E2F7089520B381E090E00F
:10029000062E02C0880F991F0A94E2F730E08223ED
:1002A000932302C0959587956A95E2F70895823465
:1002B000A9F0833418F4813489F505C08334C9F07A
:1002C000843461F521C02BB381E090E002C0880F37
:1002D000991F6A95E2F728272BBB089528B381E080
:1002E00090E002C0880F991F6A95E2F7282728BB83
:1002F000089525B381E090E002C0880F991F6A95A8
:10030000E2F7282725BB089522B381E090E002C0E0
:10031000880F991F6A95E2F7282722BB0895823437
:1003200061F0833418F4813469F405C0833439F002
:10033000843441F406C06ABB089567BB089564BB6A
:10034000089561BB0895823461F0833418F48134D8
:1003500069F405C0833439F0843441F406C06BBBC2
:10036000089568BB089565BB089562BB0895823403
:1003700069F0833418F4813429F406C0833441F0E1
:10038000843441F080E0089589B3089586B30895D8
:1003900083B3089580B30895823429F1833420F41F
:1003A000813409F06AC006C08334B1F1843409F0A5
:1003B00064C04BC0413059F42BB381E090E002C0DF
:1003C000880F991F6A95E2F7282B2BBB08952BB352
:1003D00081E090E002C0880F991F6A95E2F780954E
:1003E00082238BBB0895413059F428B381E090E01B
:1003F00002C0880F991F6A95E2F7282B28BB089541
:1004000028B381E090E002C0880F991F6A95E2F757
:100410008095822388BB0895413059F425B381E04B
:1004200090E002C0880F991F6A95E2F7282B25BB40
:10043000089525B381E090E002C0880F991F6A9566
:10044000E2F78095822385BB0895413059F422B3A9
:1004500081E090E002C0880F991F6A95E2F7282B8F
:1004600022BB089522B381E090E002C0880F991F5B
:100470006A95E2F78095822382BB08956F7082347B
:1004800081F0833418F48134F1F405C0833479F0B9
:100490008434C9F412C08BB3807F8BBB8BB3862BA3
:1004A0008BBB88B3807F88BB88B3862B88BB85B322
:1004B000807F85BB85B3862B85BB82B3807F82BB63
:1004C00082B3682B62BB08956295607F823481F0AD
:1004D000833418F48134F1F405C0833479F0843422
:1004E000C9F412C08BB38F708BBB8BB3862B8BBBC5
:1004F00088B38F7088BB88B3862B88BB85B38F7019
:1005000085BB85B3862B85BB82B38F7082BB82B3DC
:10051000682B62BB08950F931F9382E460E041E073
:100520000E94B00000EA1FE0C8010197F1F782E4E1
:1005300060E040E00E94B000C8010197F1F71F9110
:100540000F9108951F93182F682F62956F7081E4A3
:100550000E94640282E461E041E00E94B0000E94D7
:100560008B0281E4612F0E94640282E461E041E039
:100570000E94B0000E948B0280ED97E00197F1F796
:100580001F910895CF93DF93EC0103C00E94A20254
:10059000219688818823D1F7DF91CF9108951F9309
:1005A000182F682F62956F7081E40E94640282E4C4
:1005B00061E040E00E94B0000E948B0281E4612F64
:1005C0000E94640282E461E040E00E94B0000E9468
:1005D0008B0280ED97E00197F1F71F910895982F16
:1005E0008150823070F4613160F4662351F09130B3
:1005F00019F4862F815806C0923021F4862F815439
:1006000001C080E80E94CF0280ED97E00197F1F7EA
:10061000089581E00E94CF0280E29EE40197F1F705
:100620000895EF92FF920F931F9380ED97E028ECCF
:1006300030E0F9013197F1F70197D9F781E464E0EF
:1006400041E00E943E0081E465E041E00E943E00FE
:1006500081E466E041E00E943E0081E467E041E021
:100660000E943E0082E460E041E00E943E0082E49D
:1006700062E041E00E943E0082E461E041E00E94CD
:100680003E0082E462E040E00E94B00082E00E940E
:10069000CF0280E2E82E8EE4F82EC7010197F1F731
:1006A00088E20E94CF0200ED17E0C8010197F1F740
:1006B0008EE00E94CF02C8010197F1F781E00E940D
:1006C000CF02C7010197F1F786E00E94CF02C8016F
:1006D0000197F1F71F910F91FF90EF9008956D989A
:1006E0006C986B986A98689A699870986F986E9AE7
:1006F0000895FC01009709F474C04581442309F46E
:1007000070C03481332309F46CC02681222309F49C
:1007100068C05281552309F464C07081772309F4BD
:1007200060C06381662309F45CC09181992309F458
:1007300058C0413011F081E002C06A9A80E0332352
:1007400021F0313021F081E003C06B9801C06B9A39
:100750002330B9F0243028F4213069F0223068F4D5
:1007600008C02530A1F0253078F0263091F081E0E6
:1007700013C0689803C0689805C0689A6998709A11
:100780000BC0689A699807C06898699AF8CF68980A
:1007900001C0689A699A7098552331F0513011F070
:1007A00081E003C06D9801C06D9A662321F061302D
:1007B00021F081E003C06C9A01C06C98772321F08E
:1007C000713021F081E003C06F9801C06F9A9923C6
:1007D00021F0913021F081E008956E9808956E9A8D
:1007E000089582E00895982FFB018091620088238C
:1007F00011F083E008959FB980E090E0A0E0B0E0C0
:1008000003C00196A11DB11D779B06C08051974280
:10081000A040B04051F40DC0803127E2920720E0A3
:10082000A20720E0B20769F704C08FB1808380E09F
:1008300001C084E0109262000895DF92EF92FF926F
:100840000F931F93CF93DF937B01D42E0097A1F0DA
:100850006115710589F08C01C0E0D0E009C0B701D5
:100860006C0F7D1FF80181918F010E94F303219687
:10087000CD15A8F380E001C082E0DF91CF911F91F8
:100880000F91FF90EF90DF900895FC01809162003E
:10089000882311F083E00895309739F1A081B18168
:1008A000109719F14281538141155105F1F02581CD
:1008B000368121153105C9F081E080936200B09343
:1008C0006600A093650050936100409360008481AE
:1008D0008093670030936400209363001092680057
:1008E0008C918FB96F9A80E0089582E008951F92ED
:1008F0000F920FB60F9211242F933F934F935F9354
:100900006F937F938F939F93AF93BF93EF93FF93D7
:10091000909168008FB1E0916000F0916100E90F63
:10092000F11D80839F5F9093680080916700981706
:1009300059F4109262006F98E0916300F0916400A6
:10094000309751F0099508C0E0916500F09166007C
:10095000E90FF11D80818FB9FF91EF91BF91AF91A8
:100960009F918F917F916F915F914F913F912F91C7
:100970000F900FBE0F901F9018950F931F93DF934A
:10098000CF930F92CDB7DEB70E946F030E94110381
:100990008F988E9A8D988C988E010F5F1F4F8FEFD6
:1009A00090E0B8010E94F303809369008823B9F7AF
:0C09B00089810E94A202F3CFF894FFCFCF
:00000001FF
